{
  "_format": "hh-sol-artifact-1",
  "contractName": "EIP4337Manager",
  "sourceName": "contracts/gnosis/EIP4337Manager.sol",
  "abi": [
    {
      "inputs": [
        {
          "internalType": "address",
          "name": "anEntryPoint",
          "type": "address"
        }
      ],
      "stateMutability": "nonpayable",
      "type": "constructor"
    },
    {
      "anonymous": false,
      "inputs": [
        {
          "indexed": false,
          "internalType": "address",
          "name": "owner",
          "type": "address"
        }
      ],
      "name": "AddedOwner",
      "type": "event"
    },
    {
      "anonymous": false,
      "inputs": [
        {
          "indexed": true,
          "internalType": "bytes32",
          "name": "approvedHash",
          "type": "bytes32"
        },
        {
          "indexed": true,
          "internalType": "address",
          "name": "owner",
          "type": "address"
        }
      ],
      "name": "ApproveHash",
      "type": "event"
    },
    {
      "anonymous": false,
      "inputs": [
        {
          "indexed": false,
          "internalType": "address",
          "name": "handler",
          "type": "address"
        }
      ],
      "name": "ChangedFallbackHandler",
      "type": "event"
    },
    {
      "anonymous": false,
      "inputs": [
        {
          "indexed": false,
          "internalType": "address",
          "name": "guard",
          "type": "address"
        }
      ],
      "name": "ChangedGuard",
      "type": "event"
    },
    {
      "anonymous": false,
      "inputs": [
        {
          "indexed": false,
          "internalType": "uint256",
          "name": "threshold",
          "type": "uint256"
        }
      ],
      "name": "ChangedThreshold",
      "type": "event"
    },
    {
      "anonymous": false,
      "inputs": [
        {
          "indexed": false,
          "internalType": "address",
          "name": "module",
          "type": "address"
        }
      ],
      "name": "DisabledModule",
      "type": "event"
    },
    {
      "anonymous": false,
      "inputs": [
        {
          "indexed": false,
          "internalType": "address",
          "name": "module",
          "type": "address"
        }
      ],
      "name": "EnabledModule",
      "type": "event"
    },
    {
      "anonymous": false,
      "inputs": [
        {
          "indexed": false,
          "internalType": "bytes32",
          "name": "txHash",
          "type": "bytes32"
        },
        {
          "indexed": false,
          "internalType": "uint256",
          "name": "payment",
          "type": "uint256"
        }
      ],
      "name": "ExecutionFailure",
      "type": "event"
    },
    {
      "anonymous": false,
      "inputs": [
        {
          "indexed": true,
          "internalType": "address",
          "name": "module",
          "type": "address"
        }
      ],
      "name": "ExecutionFromModuleFailure",
      "type": "event"
    },
    {
      "anonymous": false,
      "inputs": [
        {
          "indexed": true,
          "internalType": "address",
          "name": "module",
          "type": "address"
        }
      ],
      "name": "ExecutionFromModuleSuccess",
      "type": "event"
    },
    {
      "anonymous": false,
      "inputs": [
        {
          "indexed": false,
          "internalType": "bytes32",
          "name": "txHash",
          "type": "bytes32"
        },
        {
          "indexed": false,
          "internalType": "uint256",
          "name": "payment",
          "type": "uint256"
        }
      ],
      "name": "ExecutionSuccess",
      "type": "event"
    },
    {
      "anonymous": false,
      "inputs": [
        {
          "indexed": false,
          "internalType": "address",
          "name": "owner",
          "type": "address"
        }
      ],
      "name": "RemovedOwner",
      "type": "event"
    },
    {
      "anonymous": false,
      "inputs": [
        {
          "indexed": true,
          "internalType": "address",
          "name": "sender",
          "type": "address"
        },
        {
          "indexed": false,
          "internalType": "uint256",
          "name": "value",
          "type": "uint256"
        }
      ],
      "name": "SafeReceived",
      "type": "event"
    },
    {
      "anonymous": false,
      "inputs": [
        {
          "indexed": true,
          "internalType": "address",
          "name": "initiator",
          "type": "address"
        },
        {
          "indexed": false,
          "internalType": "address[]",
          "name": "owners",
          "type": "address[]"
        },
        {
          "indexed": false,
          "internalType": "uint256",
          "name": "threshold",
          "type": "uint256"
        },
        {
          "indexed": false,
          "internalType": "address",
          "name": "initializer",
          "type": "address"
        },
        {
          "indexed": false,
          "internalType": "address",
          "name": "fallbackHandler",
          "type": "address"
        }
      ],
      "name": "SafeSetup",
      "type": "event"
    },
    {
      "anonymous": false,
      "inputs": [
        {
          "indexed": true,
          "internalType": "bytes32",
          "name": "msgHash",
          "type": "bytes32"
        }
      ],
      "name": "SignMsg",
      "type": "event"
    },
    {
      "stateMutability": "nonpayable",
      "type": "fallback"
    },
    {
      "inputs": [],
      "name": "NONCE_LINE",
      "outputs": [
        {
          "internalType": "uint256",
          "name": "",
          "type": "uint256"
        }
      ],
      "stateMutability": "view",
      "type": "function"
    },
    {
      "inputs": [],
      "name": "VERSION",
      "outputs": [
        {
          "internalType": "string",
          "name": "",
          "type": "string"
        }
      ],
      "stateMutability": "view",
      "type": "function"
    },
    {
      "inputs": [
        {
          "internalType": "address",
          "name": "owner",
          "type": "address"
        },
        {
          "internalType": "uint256",
          "name": "_threshold",
          "type": "uint256"
        }
      ],
      "name": "addOwnerWithThreshold",
      "outputs": [],
      "stateMutability": "nonpayable",
      "type": "function"
    },
    {
      "inputs": [
        {
          "internalType": "bytes32",
          "name": "hashToApprove",
          "type": "bytes32"
        }
      ],
      "name": "approveHash",
      "outputs": [],
      "stateMutability": "nonpayable",
      "type": "function"
    },
    {
      "inputs": [
        {
          "internalType": "address",
          "name": "",
          "type": "address"
        },
        {
          "internalType": "bytes32",
          "name": "",
          "type": "bytes32"
        }
      ],
      "name": "approvedHashes",
      "outputs": [
        {
          "internalType": "uint256",
          "name": "",
          "type": "uint256"
        }
      ],
      "stateMutability": "view",
      "type": "function"
    },
    {
      "inputs": [
        {
          "internalType": "uint256",
          "name": "_threshold",
          "type": "uint256"
        }
      ],
      "name": "changeThreshold",
      "outputs": [],
      "stateMutability": "nonpayable",
      "type": "function"
    },
    {
      "inputs": [
        {
          "internalType": "bytes32",
          "name": "dataHash",
          "type": "bytes32"
        },
        {
          "internalType": "bytes",
          "name": "data",
          "type": "bytes"
        },
        {
          "internalType": "bytes",
          "name": "signatures",
          "type": "bytes"
        },
        {
          "internalType": "uint256",
          "name": "requiredSignatures",
          "type": "uint256"
        }
      ],
      "name": "checkNSignatures",
      "outputs": [],
      "stateMutability": "view",
      "type": "function"
    },
    {
      "inputs": [
        {
          "internalType": "bytes32",
          "name": "dataHash",
          "type": "bytes32"
        },
        {
          "internalType": "bytes",
          "name": "data",
          "type": "bytes"
        },
        {
          "internalType": "bytes",
          "name": "signatures",
          "type": "bytes"
        }
      ],
      "name": "checkSignatures",
      "outputs": [],
      "stateMutability": "view",
      "type": "function"
    },
    {
      "inputs": [
        {
          "internalType": "address",
          "name": "prevModule",
          "type": "address"
        },
        {
          "internalType": "address",
          "name": "module",
          "type": "address"
        }
      ],
      "name": "disableModule",
      "outputs": [],
      "stateMutability": "nonpayable",
      "type": "function"
    },
    {
      "inputs": [],
      "name": "domainSeparator",
      "outputs": [
        {
          "internalType": "bytes32",
          "name": "",
          "type": "bytes32"
        }
      ],
      "stateMutability": "view",
      "type": "function"
    },
    {
      "inputs": [],
      "name": "eip4337Fallback",
      "outputs": [
        {
          "internalType": "address",
          "name": "",
          "type": "address"
        }
      ],
      "stateMutability": "view",
      "type": "function"
    },
    {
      "inputs": [
        {
          "internalType": "address",
          "name": "module",
          "type": "address"
        }
      ],
      "name": "enableModule",
      "outputs": [],
      "stateMutability": "nonpayable",
      "type": "function"
    },
    {
      "inputs": [
        {
          "internalType": "address",
          "name": "to",
          "type": "address"
        },
        {
          "internalType": "uint256",
          "name": "value",
          "type": "uint256"
        },
        {
          "internalType": "bytes",
          "name": "data",
          "type": "bytes"
        },
        {
          "internalType": "enum Enum.Operation",
          "name": "operation",
          "type": "uint8"
        },
        {
          "internalType": "uint256",
          "name": "safeTxGas",
          "type": "uint256"
        },
        {
          "internalType": "uint256",
          "name": "baseGas",
          "type": "uint256"
        },
        {
          "internalType": "uint256",
          "name": "gasPrice",
          "type": "uint256"
        },
        {
          "internalType": "address",
          "name": "gasToken",
          "type": "address"
        },
        {
          "internalType": "address",
          "name": "refundReceiver",
          "type": "address"
        },
        {
          "internalType": "uint256",
          "name": "_nonce",
          "type": "uint256"
        }
      ],
      "name": "encodeTransactionData",
      "outputs": [
        {
          "internalType": "bytes",
          "name": "",
          "type": "bytes"
        }
      ],
      "stateMutability": "view",
      "type": "function"
    },
    {
      "inputs": [],
      "name": "entryPoint",
      "outputs": [
        {
          "internalType": "address",
          "name": "",
          "type": "address"
        }
      ],
      "stateMutability": "view",
      "type": "function"
    },
    {
      "inputs": [
        {
          "internalType": "uint256",
          "name": "startTimestamp",
          "type": "uint256"
        },
        {
          "internalType": "uint256",
          "name": "endTimestamp",
          "type": "uint256"
        },
        {
          "internalType": "address",
          "name": "to",
          "type": "address"
        },
        {
          "internalType": "uint256",
          "name": "value",
          "type": "uint256"
        },
        {
          "internalType": "bytes",
          "name": "data",
          "type": "bytes"
        },
        {
          "internalType": "enum Enum.Operation",
          "name": "operation",
          "type": "uint8"
        }
      ],
      "name": "execSchemaTransaction",
      "outputs": [
        {
          "internalType": "bool",
          "name": "success",
          "type": "bool"
        }
      ],
      "stateMutability": "nonpayable",
      "type": "function"
    },
    {
      "inputs": [
        {
          "internalType": "address",
          "name": "to",
          "type": "address"
        },
        {
          "internalType": "uint256",
          "name": "value",
          "type": "uint256"
        },
        {
          "internalType": "bytes",
          "name": "data",
          "type": "bytes"
        },
        {
          "internalType": "enum Enum.Operation",
          "name": "operation",
          "type": "uint8"
        },
        {
          "internalType": "uint256",
          "name": "safeTxGas",
          "type": "uint256"
        },
        {
          "internalType": "uint256",
          "name": "baseGas",
          "type": "uint256"
        },
        {
          "internalType": "uint256",
          "name": "gasPrice",
          "type": "uint256"
        },
        {
          "internalType": "address",
          "name": "gasToken",
          "type": "address"
        },
        {
          "internalType": "address payable",
          "name": "refundReceiver",
          "type": "address"
        },
        {
          "internalType": "bytes",
          "name": "signatures",
          "type": "bytes"
        }
      ],
      "name": "execTransaction",
      "outputs": [
        {
          "internalType": "bool",
          "name": "success",
          "type": "bool"
        }
      ],
      "stateMutability": "payable",
      "type": "function"
    },
    {
      "inputs": [
        {
          "internalType": "address",
          "name": "to",
          "type": "address"
        },
        {
          "internalType": "uint256",
          "name": "value",
          "type": "uint256"
        },
        {
          "internalType": "bytes",
          "name": "data",
          "type": "bytes"
        },
        {
          "internalType": "enum Enum.Operation",
          "name": "operation",
          "type": "uint8"
        }
      ],
      "name": "execTransactionFromModule",
      "outputs": [
        {
          "internalType": "bool",
          "name": "success",
          "type": "bool"
        }
      ],
      "stateMutability": "nonpayable",
      "type": "function"
    },
    {
      "inputs": [
        {
          "internalType": "address",
          "name": "to",
          "type": "address"
        },
        {
          "internalType": "uint256",
          "name": "value",
          "type": "uint256"
        },
        {
          "internalType": "bytes",
          "name": "data",
          "type": "bytes"
        },
        {
          "internalType": "enum Enum.Operation",
          "name": "operation",
          "type": "uint8"
        }
      ],
      "name": "execTransactionFromModuleReturnData",
      "outputs": [
        {
          "internalType": "bool",
          "name": "success",
          "type": "bool"
        },
        {
          "internalType": "bytes",
          "name": "returnData",
          "type": "bytes"
        }
      ],
      "stateMutability": "nonpayable",
      "type": "function"
    },
    {
      "inputs": [],
      "name": "getChainId",
      "outputs": [
        {
          "internalType": "uint256",
          "name": "",
          "type": "uint256"
        }
      ],
      "stateMutability": "view",
      "type": "function"
    },
    {
      "inputs": [
        {
          "internalType": "contract GnosisSafe",
          "name": "safe",
          "type": "address"
        }
      ],
      "name": "getCurrentEIP4337Manager",
      "outputs": [
        {
          "internalType": "address",
          "name": "prev",
          "type": "address"
        },
        {
          "internalType": "address",
          "name": "manager",
          "type": "address"
        }
      ],
      "stateMutability": "view",
      "type": "function"
    },
    {
      "inputs": [
        {
          "internalType": "address",
          "name": "start",
          "type": "address"
        },
        {
          "internalType": "uint256",
          "name": "pageSize",
          "type": "uint256"
        }
      ],
      "name": "getModulesPaginated",
      "outputs": [
        {
          "internalType": "address[]",
          "name": "array",
          "type": "address[]"
        },
        {
          "internalType": "address",
          "name": "next",
          "type": "address"
        }
      ],
      "stateMutability": "view",
      "type": "function"
    },
    {
      "inputs": [],
      "name": "getOwners",
      "outputs": [
        {
          "internalType": "address[]",
          "name": "",
          "type": "address[]"
        }
      ],
      "stateMutability": "view",
      "type": "function"
    },
    {
      "inputs": [
        {
          "internalType": "uint256",
          "name": "offset",
          "type": "uint256"
        },
        {
          "internalType": "uint256",
          "name": "length",
          "type": "uint256"
        }
      ],
      "name": "getStorageAt",
      "outputs": [
        {
          "internalType": "bytes",
          "name": "",
          "type": "bytes"
        }
      ],
      "stateMutability": "view",
      "type": "function"
    },
    {
      "inputs": [],
      "name": "getThreshold",
      "outputs": [
        {
          "internalType": "uint256",
          "name": "",
          "type": "uint256"
        }
      ],
      "stateMutability": "view",
      "type": "function"
    },
    {
      "inputs": [
        {
          "internalType": "address",
          "name": "to",
          "type": "address"
        },
        {
          "internalType": "uint256",
          "name": "value",
          "type": "uint256"
        },
        {
          "internalType": "bytes",
          "name": "data",
          "type": "bytes"
        },
        {
          "internalType": "enum Enum.Operation",
          "name": "operation",
          "type": "uint8"
        },
        {
          "internalType": "uint256",
          "name": "safeTxGas",
          "type": "uint256"
        },
        {
          "internalType": "uint256",
          "name": "baseGas",
          "type": "uint256"
        },
        {
          "internalType": "uint256",
          "name": "gasPrice",
          "type": "uint256"
        },
        {
          "internalType": "address",
          "name": "gasToken",
          "type": "address"
        },
        {
          "internalType": "address",
          "name": "refundReceiver",
          "type": "address"
        },
        {
          "internalType": "uint256",
          "name": "_nonce",
          "type": "uint256"
        }
      ],
      "name": "getTransactionHash",
      "outputs": [
        {
          "internalType": "bytes32",
          "name": "",
          "type": "bytes32"
        }
      ],
      "stateMutability": "view",
      "type": "function"
    },
    {
      "inputs": [
        {
          "internalType": "address",
          "name": "module",
          "type": "address"
        }
      ],
      "name": "isModuleEnabled",
      "outputs": [
        {
          "internalType": "bool",
          "name": "",
          "type": "bool"
        }
      ],
      "stateMutability": "view",
      "type": "function"
    },
    {
      "inputs": [
        {
          "internalType": "address",
          "name": "owner",
          "type": "address"
        }
      ],
      "name": "isOwner",
      "outputs": [
        {
          "internalType": "bool",
          "name": "",
          "type": "bool"
        }
      ],
      "stateMutability": "view",
      "type": "function"
    },
    {
      "inputs": [],
      "name": "nonce",
      "outputs": [
        {
          "internalType": "uint256",
          "name": "",
          "type": "uint256"
        }
      ],
      "stateMutability": "view",
      "type": "function"
    },
    {
      "inputs": [
        {
          "internalType": "address",
          "name": "prevOwner",
          "type": "address"
        },
        {
          "internalType": "address",
          "name": "owner",
          "type": "address"
        },
        {
          "internalType": "uint256",
          "name": "_threshold",
          "type": "uint256"
        }
      ],
      "name": "removeOwner",
      "outputs": [],
      "stateMutability": "nonpayable",
      "type": "function"
    },
    {
      "inputs": [
        {
          "internalType": "address",
          "name": "prevModule",
          "type": "address"
        },
        {
          "internalType": "contract EIP4337Manager",
          "name": "oldManager",
          "type": "address"
        },
        {
          "internalType": "contract EIP4337Manager",
          "name": "newManager",
          "type": "address"
        }
      ],
      "name": "replaceEIP4337Manager",
      "outputs": [],
      "stateMutability": "nonpayable",
      "type": "function"
    },
    {
      "inputs": [
        {
          "internalType": "address",
          "name": "to",
          "type": "address"
        },
        {
          "internalType": "uint256",
          "name": "value",
          "type": "uint256"
        },
        {
          "internalType": "bytes",
          "name": "data",
          "type": "bytes"
        },
        {
          "internalType": "enum Enum.Operation",
          "name": "operation",
          "type": "uint8"
        }
      ],
      "name": "requiredTxGas",
      "outputs": [
        {
          "internalType": "uint256",
          "name": "",
          "type": "uint256"
        }
      ],
      "stateMutability": "nonpayable",
      "type": "function"
    },
    {
      "inputs": [
        {
          "internalType": "address",
          "name": "handler",
          "type": "address"
        }
      ],
      "name": "setFallbackHandler",
      "outputs": [],
      "stateMutability": "nonpayable",
      "type": "function"
    },
    {
      "inputs": [
        {
          "internalType": "address",
          "name": "guard",
          "type": "address"
        }
      ],
      "name": "setGuard",
      "outputs": [],
      "stateMutability": "nonpayable",
      "type": "function"
    },
    {
      "inputs": [
        {
          "internalType": "address[]",
          "name": "_owners",
          "type": "address[]"
        },
        {
          "internalType": "uint256",
          "name": "_threshold",
          "type": "uint256"
        },
        {
          "internalType": "address",
          "name": "to",
          "type": "address"
        },
        {
          "internalType": "bytes",
          "name": "data",
          "type": "bytes"
        },
        {
          "internalType": "address",
          "name": "fallbackHandler",
          "type": "address"
        },
        {
          "internalType": "address",
          "name": "paymentToken",
          "type": "address"
        },
        {
          "internalType": "uint256",
          "name": "payment",
          "type": "uint256"
        },
        {
          "internalType": "address payable",
          "name": "paymentReceiver",
          "type": "address"
        }
      ],
      "name": "setup",
      "outputs": [],
      "stateMutability": "nonpayable",
      "type": "function"
    },
    {
      "inputs": [
        {
          "internalType": "address",
          "name": "singleton",
          "type": "address"
        },
        {
          "internalType": "contract EIP4337Manager",
          "name": "manager",
          "type": "address"
        },
        {
          "internalType": "address[]",
          "name": "owners",
          "type": "address[]"
        },
        {
          "internalType": "bytes",
          "name": "EmptyBytes",
          "type": "bytes"
        }
      ],
      "name": "setupEIP4337",
      "outputs": [],
      "stateMutability": "nonpayable",
      "type": "function"
    },
    {
      "inputs": [
        {
          "internalType": "bytes32",
          "name": "",
          "type": "bytes32"
        }
      ],
      "name": "signedMessages",
      "outputs": [
        {
          "internalType": "uint256",
          "name": "",
          "type": "uint256"
        }
      ],
      "stateMutability": "view",
      "type": "function"
    },
    {
      "inputs": [
        {
          "internalType": "address",
          "name": "targetContract",
          "type": "address"
        },
        {
          "internalType": "bytes",
          "name": "calldataPayload",
          "type": "bytes"
        }
      ],
      "name": "simulateAndRevert",
      "outputs": [],
      "stateMutability": "nonpayable",
      "type": "function"
    },
    {
      "inputs": [
        {
          "internalType": "address",
          "name": "prevOwner",
          "type": "address"
        },
        {
          "internalType": "address",
          "name": "oldOwner",
          "type": "address"
        },
        {
          "internalType": "address",
          "name": "newOwner",
          "type": "address"
        }
      ],
      "name": "swapOwner",
      "outputs": [],
      "stateMutability": "nonpayable",
      "type": "function"
    },
    {
      "inputs": [
        {
          "internalType": "uint256",
          "name": "",
          "type": "uint256"
        }
      ],
      "name": "usedNonce",
      "outputs": [
        {
          "internalType": "bool",
          "name": "",
          "type": "bool"
        }
      ],
      "stateMutability": "view",
      "type": "function"
    },
    {
      "inputs": [
        {
          "internalType": "contract GnosisSafe",
          "name": "safe",
          "type": "address"
        },
        {
          "internalType": "contract EIP4337Manager",
          "name": "manager",
          "type": "address"
        }
      ],
      "name": "validateEip4337",
      "outputs": [],
      "stateMutability": "nonpayable",
      "type": "function"
    },
    {
      "inputs": [
        {
          "components": [
            {
              "internalType": "address",
              "name": "sender",
              "type": "address"
            },
            {
              "internalType": "uint256",
              "name": "nonce",
              "type": "uint256"
            },
            {
              "internalType": "bytes",
              "name": "initCode",
              "type": "bytes"
            },
            {
              "internalType": "bytes",
              "name": "callData",
              "type": "bytes"
            },
            {
              "internalType": "uint256",
              "name": "callGasLimit",
              "type": "uint256"
            },
            {
              "internalType": "uint256",
              "name": "verificationGasLimit",
              "type": "uint256"
            },
            {
              "internalType": "uint256",
              "name": "preVerificationGas",
              "type": "uint256"
            },
            {
              "internalType": "uint256",
              "name": "maxFeePerGas",
              "type": "uint256"
            },
            {
              "internalType": "uint256",
              "name": "maxPriorityFeePerGas",
              "type": "uint256"
            },
            {
              "internalType": "bytes",
              "name": "paymasterAndData",
              "type": "bytes"
            },
            {
              "internalType": "bytes",
              "name": "signature",
              "type": "bytes"
            }
          ],
          "internalType": "struct UserOperation",
          "name": "userOp",
          "type": "tuple"
        },
        {
          "internalType": "bytes32",
          "name": "userOpHash",
          "type": "bytes32"
        },
        {
          "internalType": "address",
          "name": "",
          "type": "address"
        },
        {
          "internalType": "uint256",
          "name": "missingAccountFunds",
          "type": "uint256"
        }
      ],
      "name": "validateUserOp",
      "outputs": [
        {
          "internalType": "uint256",
          "name": "deadline",
          "type": "uint256"
        }
      ],
      "stateMutability": "nonpayable",
      "type": "function"
    },
    {
      "stateMutability": "payable",
      "type": "receive"
    }
  ],
  "bytecode": "0x60c06040523480156200001157600080fd5b506040516200577f3803806200577f8339810160408190526200003491620000a5565b60016004556001600160a01b03811660a0526040513090620000569062000097565b6001600160a01b039091168152602001604051809103906000f08015801562000083573d6000803e3d6000fd5b506001600160a01b031660805250620000d7565b610ae08062004c9f83390190565b600060208284031215620000b857600080fd5b81516001600160a01b0381168114620000d057600080fd5b9392505050565b60805160a051614b946200010b6000396000818161065d01528181610a760152612277015260006105510152614b946000f3fe60806040526004361061024a5760003560e01c8063a0e67e2b11610139578063db145205116100b6578063e86637db1161007a578063e86637db146107fe578063efae6e061461081e578063f08a03231461083e578063f698da251461085e578063f8dc5dd914610873578063ffa1ad741461089357610286565b8063db1452051461076d578063e009cfde14610789578063e19a9dd9146107a9578063e318b52b146107c9578063e75235b8146107e957610286565b8063b63e800d116100fd578063b63e800d146106bf578063c4ca3a9c146106df578063cc2f8452146106ff578063d4d9bdcd1461072d578063d8d11f781461074d57610286565b8063a0e67e2b14610613578063affed0e014610635578063b0d691fe1461064b578063b4faba091461067f578063b58fd5e81461069f57610286565b80635229073f116101c75780636a7612021161018b5780636a7612021461052c57806370b8a01d1461053f5780637d8329741461058b578063934f3a11146105c35780639723fb6d146105e357610286565b80635229073f146104645780635624b25b146104925780635ae6bd37146104bf578063610b5925146104ec578063694e80c31461050c57610286565b80632f54bf6e1161020e5780632f54bf6e146103d15780633251a957146103f15780633408e4701461041157806345b1e0ca14610424578063468721a71461044457610286565b8063039b1728146102ec5780630825d1fc146103315780630d582f131461035f57806312fb68e0146103815780632d9ad53d146103a157610286565b366102865760405134815233907f3d0ce9bfc3ed7d6862dbb28b2dea94561fe714a1b4d019aa8af39730d1ad7c3d9060200160405180910390a2005b34801561029257600080fd5b507f6c9a6c4a39284e37ed1cf53d337577d14212a4870fb976a4366c693b939918d58054806102bd57005b36600080373360601b365260008060143601600080855af190503d6000803e806102e6573d6000fd5b503d6000f35b3480156102f857600080fd5b5061030c610307366004613a2e565b6108c4565b604080516001600160a01b039384168152929091166020830152015b60405180910390f35b34801561033d57600080fd5b5061035161034c366004613a5b565b610a43565b604051908152602001610328565b34801561036b57600080fd5b5061037f61037a366004613ac1565b610f1c565b005b34801561038d57600080fd5b5061037f61039c366004613ba2565b611073565b3480156103ad57600080fd5b506103c16103bc366004613a2e565b6114db565b6040519015158152602001610328565b3480156103dd57600080fd5b506103c16103ec366004613a2e565b611516565b3480156103fd57600080fd5b5061037f61040c366004613c9b565b61154e565b34801561041d57600080fd5b5046610351565b34801561043057600080fd5b5061037f61043f366004613d2f565b611696565b34801561045057600080fd5b506103c161045f366004613d77565b611a33565b34801561047057600080fd5b5061048461047f366004613d77565b611b09565b604051610328929190613e38565b34801561049e57600080fd5b506104b26104ad366004613e53565b611b3f565b6040516103289190613e75565b3480156104cb57600080fd5b506103516104da366004613e88565b60076020526000908152604090205481565b3480156104f857600080fd5b5061037f610507366004613a2e565b611bc4565b34801561051857600080fd5b5061037f610527366004613e88565b611d06565b6103c161053a366004613ea1565b611d9e565b34801561054b57600080fd5b506105737f000000000000000000000000000000000000000000000000000000000000000081565b6040516001600160a01b039091168152602001610328565b34801561059757600080fd5b506103516105a6366004613ac1565b600860209081526000928352604080842090915290825290205481565b3480156105cf57600080fd5b5061037f6105de366004613f79565b6120e7565b3480156105ef57600080fd5b506103c16105fe366004613e88565b60096020526000908152604090205460ff1681565b34801561061f57600080fd5b50610628612131565b6040516103289190614029565b34801561064157600080fd5b5061035160055481565b34801561065757600080fd5b506105737f000000000000000000000000000000000000000000000000000000000000000081565b34801561068b57600080fd5b5061037f61069a36600461403c565b612221565b3480156106ab57600080fd5b506103c16106ba36600461408b565b612244565b3480156106cb57600080fd5b5061037f6106da366004614106565b6123c0565b3480156106eb57600080fd5b506103516106fa3660046141d6565b6124e1565b34801561070b57600080fd5b5061071f61071a366004613ac1565b61257b565b604051610328929190614246565b34801561073957600080fd5b5061037f610748366004613e88565b612674565b34801561075957600080fd5b50610351610768366004614270565b612709565b34801561077957600080fd5b50610351673fffffffffffffff81565b34801561079557600080fd5b5061037f6107a4366004613d2f565b612736565b3480156107b557600080fd5b5061037f6107c4366004613a2e565b612865565b3480156107d557600080fd5b5061037f6107e4366004614330565b6128ca565b3480156107f557600080fd5b50600454610351565b34801561080a57600080fd5b506104b2610819366004614270565b612ab9565b34801561082a57600080fd5b5061037f610839366004614330565b612b92565b34801561084a57600080fd5b5061037f610859366004613a2e565b612ff2565b34801561086a57600080fd5b5061035161305b565b34801561087f57600080fd5b5061037f61088e36600461437b565b6130b2565b34801561089f57600080fd5b506104b2604051806040016040528060058152602001640312e332e360dc1b81525081565b604051636617c22960e11b8152600160048201819052606460248301529060009081906001600160a01b0385169063cc2f845290604401600060405180830381865afa158015610918573d6000803e3d6000fd5b505050506040513d6000823e601f3d908101601f1916820160405261094091908101906143c7565b50905060005b8151811015610a365760008282815181106109635761096361448a565b602090810291909101810151604080516004815260248101825292830180516001600160e01b0316630af2b70960e21b1790525190925060009182916001600160a01b038516916109b3916144a0565b600060405180830381855afa9150503d80600081146109ee576040519150601f19603f3d011682016040523d82523d6000602084013e6109f3565b606091505b50915091508115610a1e5780806020019051810190610a1291906144bc565b95505050505050915091565b50909450819050610a2e816144ef565b915050610946565b5060009485945092505050565b6000808036610a5360148261450a565b610a5e928290614521565b610a679161454b565b60601c90506001600160a01b037f0000000000000000000000000000000000000000000000000000000000000000168114610ae95760405162461bcd60e51b815260206004820152601c60248201527f6163636f756e743a206e6f742066726f6d20656e747279706f696e740000000060448201526064015b60405180910390fd5b306000610b43876040517f19457468657265756d205369676e6564204d6573736167653a0a3332000000006020820152603c8101829052600090605c01604051602081830303815290604052805190602001209050919050565b90506000610b95610b586101408b018b614580565b8080601f01602080910402602001604051908101604052809392919081815260200183838082843760009201919091525086939250506132259050565b9050600454600114610be95760405162461bcd60e51b815260206004820152601960248201527f6163636f756e743a206f6e6c79207468726573686f6c642031000000000000006044820152606401610ae0565b6040516317aa5fb760e11b81526001600160a01b038281166004830152841690632f54bf6e90602401602060405180830381865afa158015610c2f573d6000803e3d6000fd5b505050506040513d601f19601f82011682018060405250810190610c5391906145c6565b610c6f5760405162461bcd60e51b8152600401610ae0906145e8565b610c7c60408a018a614580565b15159050610eae57673fffffffffffffff89602001351115610e4f576020808a013560009081526009909152604090205460ff1615610cf65760405162461bcd60e51b81526020600482015260166024820152756163636f756e743a20696e76616c6964206e6f6e636560501b6044820152606401610ae0565b6020808a01356000908152600990915260408120805460ff19166001179055610d2260608b018b614580565b610d3191600491600091614521565b610d3a91614620565b9050600080610d4c60608d018d614580565b610d5b91604491600491614521565b810190610d689190613e53565b90925090506001600160e01b031983166316b1fabd60e31b14610dc25760405162461bcd60e51b8152602060048201526012602482015271195e1958ce881a5b1b1959d85b0818d85b1b60721b6044820152606401610ae0565b81421015610e045760405162461bcd60e51b815260206004820152600f60248201526e195e1958ce881b9bdd081cdd185c9d608a1b6044820152606401610ae0565b804210610e475760405162461bcd60e51b8152602060048201526011602482015270195e1958ce88185b1c9958591e48195b99607a1b6044820152606401610ae0565b505050610eae565b6005805460208b0135916000610e64836144ef565b9190505514610eae5760405162461bcd60e51b81526020600482015260166024820152756163636f756e743a20696e76616c6964206e6f6e636560501b6044820152606401610ae0565b8515610f0b576000846001600160a01b03168760405160006040518083038185875af1925050503d8060008114610f01576040519150601f19603f3d011682016040523d82523d6000602084013e610f06565b606091505b505050505b60009450505050505b949350505050565b610f24613241565b6001600160a01b03821615801590610f4657506001600160a01b038216600114155b8015610f5b57506001600160a01b0382163014155b610f775760405162461bcd60e51b8152600401610ae09061464e565b6001600160a01b038281166000908152600260205260409020541615610faf5760405162461bcd60e51b8152600401610ae09061466d565b60026020527fe90b7bceb6e7df5418fb78d8ee546e97c83a08bbccc01a0644d599ccd2a7c2e080546001600160a01b038481166000818152604081208054939094166001600160a01b03199384161790935560018352835490911617909155600380549161101c836144ef565b90915550506040516001600160a01b03831681527f9465fa0c962cc76958e6373a993326400c1c94f8be2fe3a952adfa7f60b2ea269060200160405180910390a1806004541461106f5761106f81611d06565b5050565b61107e81604161327a565b825110156110b65760405162461bcd60e51b8152602060048201526005602482015264047533032360dc1b6044820152606401610ae0565b6000808060008060005b868110156114cf576041818102890160208101516040820151919092015160ff16955090935091508361128d5791935083916110fd87604161327a565b8210156111345760405162461bcd60e51b8152602060048201526005602482015264475330323160d81b6044820152606401610ae0565b87516111418360206132b3565b11156111775760405162461bcd60e51b815260206004820152600560248201526423a998191960d91b6044820152606401610ae0565b60208289018101518951909161119a9083906111949087906132b3565b906132b3565b11156111d05760405162461bcd60e51b8152602060048201526005602482015264475330323360d81b6044820152606401610ae0565b6040516320c13b0b60e01b8082528a8501602001916001600160a01b038916906320c13b0b90611206908f90869060040161468c565b602060405180830381865afa158015611223573d6000803e3d6000fd5b505050506040513d601f19601f8201168201806040525081019061124791906146b1565b6001600160e01b031916146112865760405162461bcd60e51b815260206004820152600560248201526411d4cc0c8d60da1b6044820152606401610ae0565b5050611435565b8360ff1660011415611310579193508391336001600160a01b03841614806112d757506001600160a01b03851660009081526008602090815260408083208d845290915290205415155b61130b5760405162461bcd60e51b8152602060048201526005602482015264475330323560d81b6044820152606401610ae0565b611435565b601e8460ff1611156113d5576040517f19457468657265756d205369676e6564204d6573736167653a0a3332000000006020820152603c81018b9052600190605c016040516020818303038152906040528051906020012060048661137591906146db565b6040805160008152602081018083529390935260ff90911690820152606081018590526080810184905260a0016020604051602081039080840390855afa1580156113c4573d6000803e3d6000fd5b505050602060405103519450611435565b6040805160008152602081018083528c905260ff861691810191909152606081018490526080810183905260019060a0016020604051602081039080840390855afa158015611428573d6000803e3d6000fd5b5050506020604051035194505b856001600160a01b0316856001600160a01b031611801561146f57506001600160a01b038581166000908152600260205260409020541615155b801561148557506001600160a01b038516600114155b6114b95760405162461bcd60e51b815260206004820152600560248201526423a998191b60d91b6044820152606401610ae0565b84955080806114c7906144ef565b9150506110c0565b50505050505050505050565b600060016001600160a01b0383161480159061151057506001600160a01b038281166000908152600160205260409020541615155b92915050565b60006001600160a01b0382166001148015906115105750506001600160a01b0390811660009081526002602052604090205416151590565b6000856001600160a01b03166370b8a01d6040518163ffffffff1660e01b8152600401602060405180830381865afa15801561158e573d6000803e3d6000fd5b505050506040513d601f19601f820116820180604052508101906115b291906144bc565b905060006001905061161888600088888560008a8a8a60008060006040516024016115e69a99989796959493929190614765565b60408051601f198184030181529190526020810180516001600160e01b031663b63e800d60e01b17905260015a6132cf565b50611683876001600160a01b031663b0d691fe6040518163ffffffff1660e01b8152600401602060405180830381865afa15801561165a573d6000803e3d6000fd5b505050506040513d601f19601f8201168201806040525081019061167e91906144bc565b611bcc565b61168c82611bcc565b5050505050505050565b60408051604180825260808201909252600091602082018180368337019050509050601b60f81b816040815181106116d0576116d061448a565b60200101906001600160f81b031916908160001a905350600160f81b816002815181106116ff576116ff61448a565b60200101906001600160f81b031916908160001a905350600160f81b8160238151811061172e5761172e61448a565b60200101906001600160f81b031916908160001a90535060408051610160810182526001600160a01b038516815260006020808301829052835180820185528281528385015283518082018552828152606084015260808301829052620f424060a084015260c0830182905260e083018290526101008301829052835190810184528181526101208301526101408201849052825160018082528185019094529192909190816020015b61183e60405180610160016040528060006001600160a01b03168152602001600081526020016060815260200160608152602001600081526020016000815260200160008152602001600081526020016000815260200160608152602001606081525090565b8152602001906001900390816117d857905050905081816000815181106118675761186761448a565b60200260200101819052506000846001600160a01b031663b0d691fe6040518163ffffffff1660e01b8152600401602060405180830381865afa1580156118b2573d6000803e3d6000fd5b505050506040513d601f19601f820116820180604052508101906118d691906144bc565b6040516307eb652360e21b81529091506001600160a01b03821690631fad948c9061190790859033906004016147d7565b600060405180830381600087803b15801561192157600080fd5b505af1925050508015611932575060015b6119d7573d808015611960576040519150601f19603f3d011682016040523d82523d6000602084013e611965565b606091505b5060008060405160240161197a929190614901565b60408051601f19818403018152919052602080820180516001600160e01b031662fa072b60e01b1781529151909120825191830191909120146119d1578060405162461bcd60e51b8152600401610ae09190613e75565b50611a2b565b60405162461bcd60e51b8152602060048201526024808201527f76616c6964617465456970343333373a2068616e646c654f7073206d7573742060448201526319985a5b60e21b6064820152608401610ae0565b505050505050565b600033600114801590611a5d5750336000908152600160205260409020546001600160a01b031615155b611a915760405162461bcd60e51b815260206004820152600560248201526411d4cc4c0d60da1b6044820152606401610ae0565b611a9e858585855a6132cf565b90508015611ad65760405133907f6895c13664aa4f67288b25d7a21d7aaa34916e355fb9b6fae0a139a9085becb890600090a2610f14565b60405133907facd2c8702804128fdb0db2bb49f6d127dd0181c13fd45dbfe16de0930e2bd37590600090a2949350505050565b60006060611b1986868686611a33565b915060405160203d0181016040523d81523d6000602083013e8091505094509492505050565b60606000611b4e836020614951565b6001600160401b03811115611b6557611b65613aed565b6040519080825280601f01601f191660200182016040528015611b8f576020820181803683370190505b50905060005b83811015611bbc578481015460208083028401015280611bb4816144ef565b915050611b95565b509392505050565b611bcc613241565b6001600160a01b03811615801590611bee57506001600160a01b038116600114155b611c225760405162461bcd60e51b8152602060048201526005602482015264475331303160d81b6044820152606401610ae0565b6001600160a01b038181166000908152600160205260409020541615611c725760405162461bcd60e51b815260206004820152600560248201526423a998981960d91b6044820152606401610ae0565b600160208181527fcc69885fda6bcc1a4ace058b4a62bf5e179ea78fd58a1ccd71c22cc9b688792f80546001600160a01b03858116600081815260408082208054949095166001600160a01b031994851617909455959095528254168417909155519182527fecdf3a3effea5783a3c4c2140e677577666428d44ed9d474a0b3a4c9943f844091015b60405180910390a150565b611d0e613241565b600354811115611d305760405162461bcd60e51b8152600401610ae090614970565b6001811015611d695760405162461bcd60e51b815260206004820152600560248201526423a999181960d91b6044820152606401610ae0565b60048190556040518181527f610f7ff2b304ae8903c3de74c60c6ab1f7d6226b3f52c5161905bb5ad4039c9390602001611cfb565b6000806000611db88e8e8e8e8e8e8e8e8e8e600554612ab9565b600580549192506000611dca836144ef565b9091555050805160208201209150611de38282866120e7565b506000611e0e7f4a204f620c8c5ccdca3fd54d003badd85ba500436a431f0cbda4f558c93c34c85490565b90506001600160a01b03811615611e9457806001600160a01b03166375f0bb528f8f8f8f8f8f8f8f8f8f8f336040518d63ffffffff1660e01b8152600401611e619c9b9a999897969594939291906149c7565b600060405180830381600087803b158015611e7b57600080fd5b505af1158015611e8f573d6000803e3d6000fd5b505050505b611ec0611ea38a6109c4614a53565b603f611eb08c6040614951565b611eba9190614a6b565b90613317565b611ecc906101f4614a53565b5a1015611f035760405162461bcd60e51b8152602060048201526005602482015264047533031360dc1b6044820152606401610ae0565b60005a9050611f748f8f8f8f8080601f016020809104026020016040519081016040528093929190818152602001838380828437600081840152601f19601f820116905080830192505050505050508e8c600014611f61578e6132cf565b6109c45a611f6f919061450a565b6132cf565b9350611f815a829061332e565b90508380611f8e57508915155b80611f9857508715155b611fcc5760405162461bcd60e51b8152602060048201526005602482015264475330313360d81b6044820152606401610ae0565b60008815611fe457611fe1828b8b8b8b613349565b90505b84156120285760408051858152602081018390527f442e715f626346e8c54381002da614f62bee8d27386535b2521ec8540898556e910160405180910390a1612062565b60408051858152602081018390527f23428b18acfb3ea64b08dc0c1d296ea9c09702c09083ca5272e64d115b687d23910160405180910390a15b50506001600160a01b038116156120d657604051631264e26d60e31b81526004810183905283151560248201526001600160a01b03821690639327136890604401600060405180830381600087803b1580156120bd57600080fd5b505af11580156120d1573d6000803e3d6000fd5b505050505b50509b9a5050505050505050505050565b6004548061211f5760405162461bcd60e51b8152602060048201526005602482015264475330303160d81b6044820152606401610ae0565b61212b84848484611073565b50505050565b606060006003546001600160401b0381111561214f5761214f613aed565b604051908082528060200260200182016040528015612178578160200160208202803683370190505b506001600090815260026020527fe90b7bceb6e7df5418fb78d8ee546e97c83a08bbccc01a0644d599ccd2a7c2e054919250906001600160a01b03165b6001600160a01b03811660011461221957808383815181106121d9576121d961448a565b6001600160a01b03928316602091820292909201810191909152918116600090815260029092526040909120541681612211816144ef565b9250506121b5565b509092915050565b600080825160208401855af480600052503d6020523d600060403e60403d016000fd5b600080803661225460148261450a565b61225f928290614521565b6122689161454b565b60601c90506001600160a01b037f00000000000000000000000000000000000000000000000000000000000000001681146122e55760405162461bcd60e51b815260206004820152601c60248201527f6163636f756e743a206e6f742066726f6d20656e747279706f696e74000000006044820152606401610ae0565b874210156123275760405162461bcd60e51b815260206004820152600f60248201526e195e1958ce881b9bdd081cdd185c9d608a1b6044820152606401610ae0565b86421061236a5760405162461bcd60e51b8152602060048201526011602482015270195e1958ce88185b1c9958591e48195b99607a1b6044820152606401610ae0565b612377868686865a6132cf565b9150816123b55760405162461bcd60e51b815260206004820152600c60248201526b195e1958ce881c995d995c9d60a21b6044820152606401610ae0565b509695505050505050565b6123fe8a8a808060200260200160405190810160405280939291908181526020018383602002808284376000920191909152508c925061344f915050565b6001600160a01b0384161561243557612435847f6c9a6c4a39284e37ed1cf53d337577d14212a4870fb976a4366c693b939918d555565b6124758787878080601f01602080910402602001604051908101604052809392919081815260200183838082843760009201919091525061363592505050565b811561248c5761248a82600060018685613349565b505b336001600160a01b03167f141df868a6331af528e38c83b7aa03edc19be66e37ae67f9285bf4f8e3c6a1a88b8b8b8b896040516124cd959493929190614a8d565b60405180910390a250505050505050505050565b6000805a905061252a878787878080601f01602080910402602001604051908101604052809392919081815260200183838082843760009201919091525089925050505a6132cf565b61253357600080fd5b60005a612540908361450a565b90508060405160200161255591815260200190565b60408051601f198184030181529082905262461bcd60e51b8252610ae091600401613e75565b60606000826001600160401b0381111561259757612597613aed565b6040519080825280602002602001820160405280156125c0578160200160208202803683370190505b506001600160a01b0380861660009081526001602052604081205492945091165b6001600160a01b0381161580159061260357506001600160a01b038116600114155b801561260e57508482105b1561266657808483815181106126265761262661448a565b6001600160a01b0392831660209182029290920181019190915291811660009081526001909252604090912054168161265e816144ef565b9250506125e1565b908352919491935090915050565b336000908152600260205260409020546001600160a01b03166126c15760405162461bcd60e51b8152602060048201526005602482015264047533033360dc1b6044820152606401610ae0565b336000818152600860209081526040808320858452909152808220600190555183917ff2a0eb156472d1440255b0d7c1e19cc07115d1051fe605b0dce69acfec884d9c91a350565b600061271e8c8c8c8c8c8c8c8c8c8c8c612ab9565b8051906020012090509b9a5050505050505050505050565b61273e613241565b6001600160a01b0381161580159061276057506001600160a01b038116600114155b6127945760405162461bcd60e51b8152602060048201526005602482015264475331303160d81b6044820152606401610ae0565b6001600160a01b038281166000908152600160205260409020548116908216146127e85760405162461bcd60e51b8152602060048201526005602482015264475331303360d81b6044820152606401610ae0565b6001600160a01b038181166000818152600160209081526040808320805488871685528285208054919097166001600160a01b03199182161790965592849052825490941690915591519081527faab4fa2b463f581b2b32cb3b7e3b704b9ce37cc209b5fb4d77e593ace405427691015b60405180910390a15050565b61286d613241565b7f4a204f620c8c5ccdca3fd54d003badd85ba500436a431f0cbda4f558c93c34c88181556040516001600160a01b03831681527f1151116914515bc0891ff9047a6cb32cf902546f83066499bcf8ba33d2353fa290602001612859565b6128d2613241565b6001600160a01b038116158015906128f457506001600160a01b038116600114155b801561290957506001600160a01b0381163014155b6129255760405162461bcd60e51b8152600401610ae09061464e565b6001600160a01b03818116600090815260026020526040902054161561295d5760405162461bcd60e51b8152600401610ae09061466d565b6001600160a01b0382161580159061297f57506001600160a01b038216600114155b61299b5760405162461bcd60e51b8152600401610ae09061464e565b6001600160a01b038381166000908152600260205260409020548116908316146129ef5760405162461bcd60e51b8152602060048201526005602482015264475332303560d81b6044820152606401610ae0565b6001600160a01b038281166000818152600260209081526040808320805487871680865283862080549289166001600160a01b0319938416179055968a1685528285208054821690971790965592849052825490941690915591519081527ff8d49fc529812e9a7c5c50e69c20f0dccc0db8fa95c98bc58cc9a4f1c1299eaf910160405180910390a16040516001600160a01b03821681527f9465fa0c962cc76958e6373a993326400c1c94f8be2fe3a952adfa7f60b2ea269060200160405180910390a1505050565b606060007fbb8310d486368db6bd6f849402fdd73ad53d316b5a4b2644ad6efe0f941286d860001b8d8d8d8d604051612af3929190614ac8565b604051908190038120612b19949392918e908e908e908e908e908e908e90602001614ad8565b60408051601f1981840301815291905280516020909101209050601960f81b600160f81b612b4561305b565b6040516001600160f81b031993841660208201529290911660218301526022820152604281018290526062016040516020818303038152906040529150509b9a5050505050505050505050565b60003090506000836001600160a01b03166370b8a01d6040518163ffffffff1660e01b8152600401602060405180830381865afa158015612bd7573d6000803e3d6000fd5b505050506040513d601f19601f82011682018060405250810190612bfb91906144bc565b604051632d9ad53d60e01b81526001600160a01b03808316600483015291925090831690632d9ad53d90602401602060405180830381865afa158015612c45573d6000803e3d6000fd5b505050506040513d601f19601f82011682018060405250810190612c6991906145c6565b612ccd5760405162461bcd60e51b815260206004820152602f60248201527f7265706c616365454950343333374d616e616765723a206f6c644d616e61676560448201526e72206973206e6f742061637469766560881b6064820152608401610ae0565b816001600160a01b031663e009cfde82866001600160a01b031663b0d691fe6040518163ffffffff1660e01b8152600401602060405180830381865afa158015612d1b573d6000803e3d6000fd5b505050506040513d601f19601f82011682018060405250810190612d3f91906144bc565b6040516001600160e01b031960e085901b1681526001600160a01b03928316600482015291166024820152604401600060405180830381600087803b158015612d8757600080fd5b505af1158015612d9b573d6000803e3d6000fd5b5050604051637004e7ef60e11b81526001600160a01b03888116600483015284811660248301528516925063e009cfde9150604401600060405180830381600087803b158015612dea57600080fd5b505af1158015612dfe573d6000803e3d6000fd5b505050506000836001600160a01b03166370b8a01d6040518163ffffffff1660e01b8152600401602060405180830381865afa158015612e42573d6000803e3d6000fd5b505050506040513d601f19601f82011682018060405250810190612e6691906144bc565b9050826001600160a01b031663610b5925856001600160a01b031663b0d691fe6040518163ffffffff1660e01b8152600401602060405180830381865afa158015612eb5573d6000803e3d6000fd5b505050506040513d601f19601f82011682018060405250810190612ed991906144bc565b6040516001600160e01b031960e084901b1681526001600160a01b039091166004820152602401600060405180830381600087803b158015612f1a57600080fd5b505af1158015612f2e573d6000803e3d6000fd5b505060405163610b592560e01b81526001600160a01b0384811660048301528616925063610b59259150602401600060405180830381600087803b158015612f7557600080fd5b505af1158015612f89573d6000803e3d6000fd5b505060405163f08a032360e01b81526001600160a01b0384811660048301528616925063f08a03239150602401600060405180830381600087803b158015612fd057600080fd5b505af1158015612fe4573d6000803e3d6000fd5b50505050611a2b8385611696565b612ffa613241565b613022817f6c9a6c4a39284e37ed1cf53d337577d14212a4870fb976a4366c693b939918d555565b6040516001600160a01b03821681527f5ac6c46c93c8d0e53714ba3b53db3e7c046da994313d7ed0d192028bc7c228b090602001611cfb565b60007f47e79534a245952e8b16893a336b85a3d9ea9fa8c573f3d803afb92a794692184660408051602081019390935282015230606082015260800160405160208183030381529060405280519060200120905090565b6130ba613241565b8060016003546130ca919061450a565b10156130e85760405162461bcd60e51b8152600401610ae090614970565b6001600160a01b0382161580159061310a57506001600160a01b038216600114155b6131265760405162461bcd60e51b8152600401610ae09061464e565b6001600160a01b0383811660009081526002602052604090205481169083161461317a5760405162461bcd60e51b8152602060048201526005602482015264475332303560d81b6044820152606401610ae0565b6001600160a01b03828116600081815260026020526040808220805488861684529183208054929095166001600160a01b031992831617909455918152825490911690915560038054916131cd83614b47565b90915550506040516001600160a01b03831681527ff8d49fc529812e9a7c5c50e69c20f0dccc0db8fa95c98bc58cc9a4f1c1299eaf9060200160405180910390a180600454146132205761322081611d06565b505050565b6000806000613234858561372f565b91509150611bbc81613775565b3330146132785760405162461bcd60e51b8152602060048201526005602482015264475330333160d81b6044820152606401610ae0565b565b60008261328957506000611510565b60006132958385614951565b9050826132a28583614a6b565b146132ac57600080fd5b9392505050565b6000806132c08385614a53565b9050838110156132ac57600080fd5b600060018360018111156132e5576132e561498f565b14156132fe576000808551602087018986f4905061330e565b600080855160208701888a87f190505b95945050505050565b60008183101561332757816132ac565b5090919050565b60008282111561333d57600080fd5b6000610f14838561450a565b6000806001600160a01b038316156133615782613363565b325b90506001600160a01b0384166133f6576133953a8610613383573a613385565b855b61338f89896132b3565b9061327a565b6040519092506001600160a01b0382169083156108fc029084906000818181858888f193505050506133f15760405162461bcd60e51b8152602060048201526005602482015264475330313160d81b6044820152606401610ae0565b613445565b6134048561338f89896132b3565b91506134118482846138c6565b6134455760405162461bcd60e51b815260206004820152600560248201526423a998189960d91b6044820152606401610ae0565b5095945050505050565b600454156134875760405162461bcd60e51b8152602060048201526005602482015264047533230360dc1b6044820152606401610ae0565b81518111156134a85760405162461bcd60e51b8152600401610ae090614970565b60018110156134e15760405162461bcd60e51b815260206004820152600560248201526423a999181960d91b6044820152606401610ae0565b600160005b83518110156136025760008482815181106135035761350361448a565b6020026020010151905060006001600160a01b0316816001600160a01b03161415801561353a57506001600160a01b038116600114155b801561354f57506001600160a01b0381163014155b801561356d5750806001600160a01b0316836001600160a01b031614155b6135895760405162461bcd60e51b8152600401610ae09061464e565b6001600160a01b0381811660009081526002602052604090205416156135c15760405162461bcd60e51b8152600401610ae09061466d565b6001600160a01b03928316600090815260026020526040902080546001600160a01b03191693821693909317909255806135fa816144ef565b9150506134e6565b506001600160a01b0316600090815260026020526040902080546001600160a01b03191660011790559051600355600455565b600160008190526020527fcc69885fda6bcc1a4ace058b4a62bf5e179ea78fd58a1ccd71c22cc9b688792f546001600160a01b03161561369f5760405162461bcd60e51b8152602060048201526005602482015264047533130360dc1b6044820152606401610ae0565b6001600081905260208190527fcc69885fda6bcc1a4ace058b4a62bf5e179ea78fd58a1ccd71c22cc9b688792f80546001600160a01b03191690911790556001600160a01b0382161561106f576136fb8260008360015a6132cf565b61106f5760405162461bcd60e51b8152602060048201526005602482015264047533030360dc1b6044820152606401610ae0565b6000808251604114156137665760208301516040840151606085015160001a61375a87828585613955565b9450945050505061376e565b506000905060025b9250929050565b60008160048111156137895761378961498f565b14156137925750565b60018160048111156137a6576137a661498f565b14156137f45760405162461bcd60e51b815260206004820152601860248201527f45434453413a20696e76616c6964207369676e617475726500000000000000006044820152606401610ae0565b60028160048111156138085761380861498f565b14156138565760405162461bcd60e51b815260206004820152601f60248201527f45434453413a20696e76616c6964207369676e6174757265206c656e677468006044820152606401610ae0565b600381600481111561386a5761386a61498f565b14156138c35760405162461bcd60e51b815260206004820152602260248201527f45434453413a20696e76616c6964207369676e6174757265202773272076616c604482015261756560f01b6064820152608401610ae0565b50565b604080516001600160a01b03841660248201526044808201849052825180830390910181526064909101909152602080820180516001600160e01b031663a9059cbb60e01b1781528251600093929184919082896127105a03f13d80156139385760208114613940576000935061394b565b81935061394b565b600051158215171593505b5050509392505050565b6000807f7fffffffffffffffffffffffffffffff5d576e7357a4501ddfe92f46681b20a083111561398c5750600090506003613a10565b6040805160008082526020820180845289905260ff881692820192909252606081018690526080810185905260019060a0016020604051602081039080840390855afa1580156139e0573d6000803e3d6000fd5b5050604051601f1901519150506001600160a01b038116613a0957600060019250925050613a10565b9150600090505b94509492505050565b6001600160a01b03811681146138c357600080fd5b600060208284031215613a4057600080fd5b81356132ac81613a19565b8035613a5681613a19565b919050565b60008060008060808587031215613a7157600080fd5b84356001600160401b03811115613a8757600080fd5b85016101608188031215613a9a57600080fd5b9350602085013592506040850135613ab181613a19565b9396929550929360600135925050565b60008060408385031215613ad457600080fd5b8235613adf81613a19565b946020939093013593505050565b634e487b7160e01b600052604160045260246000fd5b604051601f8201601f191681016001600160401b0381118282101715613b2b57613b2b613aed565b604052919050565b600082601f830112613b4457600080fd5b81356001600160401b03811115613b5d57613b5d613aed565b613b70601f8201601f1916602001613b03565b818152846020838601011115613b8557600080fd5b816020850160208301376000918101602001919091529392505050565b60008060008060808587031215613bb857600080fd5b8435935060208501356001600160401b0380821115613bd657600080fd5b613be288838901613b33565b94506040870135915080821115613bf857600080fd5b50613c0587828801613b33565b949793965093946060013593505050565b60008083601f840112613c2857600080fd5b5081356001600160401b03811115613c3f57600080fd5b6020830191508360208260051b850101111561376e57600080fd5b60008083601f840112613c6c57600080fd5b5081356001600160401b03811115613c8357600080fd5b60208301915083602082850101111561376e57600080fd5b60008060008060008060808789031215613cb457600080fd5b8635613cbf81613a19565b95506020870135613ccf81613a19565b945060408701356001600160401b0380821115613ceb57600080fd5b613cf78a838b01613c16565b90965094506060890135915080821115613d1057600080fd5b50613d1d89828a01613c5a565b979a9699509497509295939492505050565b60008060408385031215613d4257600080fd5b8235613d4d81613a19565b91506020830135613d5d81613a19565b809150509250929050565b803560028110613a5657600080fd5b60008060008060808587031215613d8d57600080fd5b8435613d9881613a19565b93506020850135925060408501356001600160401b03811115613dba57600080fd5b613dc687828801613b33565b925050613dd560608601613d68565b905092959194509250565b60005b83811015613dfb578181015183820152602001613de3565b8381111561212b5750506000910152565b60008151808452613e24816020860160208601613de0565b601f01601f19169290920160200192915050565b8215158152604060208201526000610f146040830184613e0c565b60008060408385031215613e6657600080fd5b50508035926020909101359150565b6020815260006132ac6020830184613e0c565b600060208284031215613e9a57600080fd5b5035919050565b60008060008060008060008060008060006101408c8e031215613ec357600080fd5b613ecc8c613a4b565b9a5060208c013599506001600160401b038060408e01351115613eee57600080fd5b613efe8e60408f01358f01613c5a565b909a509850613f0f60608e01613d68565b975060808d0135965060a08d0135955060c08d01359450613f3260e08e01613a4b565b9350613f416101008e01613a4b565b9250806101208e01351115613f5557600080fd5b50613f678d6101208e01358e01613b33565b90509295989b509295989b9093969950565b600080600060608486031215613f8e57600080fd5b8335925060208401356001600160401b0380821115613fac57600080fd5b613fb887838801613b33565b93506040860135915080821115613fce57600080fd5b50613fdb86828701613b33565b9150509250925092565b600081518084526020808501945080840160005b8381101561401e5781516001600160a01b031687529582019590820190600101613ff9565b509495945050505050565b6020815260006132ac6020830184613fe5565b6000806040838503121561404f57600080fd5b823561405a81613a19565b915060208301356001600160401b0381111561407557600080fd5b61408185828601613b33565b9150509250929050565b60008060008060008060c087890312156140a457600080fd5b863595506020870135945060408701356140bd81613a19565b93506060870135925060808701356001600160401b038111156140df57600080fd5b6140eb89828a01613b33565b9250506140fa60a08801613d68565b90509295509295509295565b6000806000806000806000806000806101008b8d03121561412657600080fd5b8a356001600160401b038082111561413d57600080fd5b6141498e838f01613c16565b909c509a5060208d0135995060408d0135915061416582613a19565b90975060608c0135908082111561417b57600080fd5b506141888d828e01613c5a565b90975095505060808b013561419c81613a19565b935060a08b01356141ac81613a19565b925060c08b0135915060e08b01356141c381613a19565b809150509295989b9194979a5092959850565b6000806000806000608086880312156141ee57600080fd5b85356141f981613a19565b94506020860135935060408601356001600160401b0381111561421b57600080fd5b61422788828901613c5a565b909450925061423a905060608701613d68565b90509295509295909350565b6040815260006142596040830185613fe5565b905060018060a01b03831660208301529392505050565b60008060008060008060008060008060006101408c8e03121561429257600080fd5b8b3561429d81613a19565b9a5060208c0135995060408c01356001600160401b038111156142bf57600080fd5b6142cb8e828f01613c5a565b909a5098506142de905060608d01613d68565b965060808c0135955060a08c0135945060c08c0135935060e08c013561430381613a19565b92506101008c013561431481613a19565b809250506101208c013590509295989b509295989b9093969950565b60008060006060848603121561434557600080fd5b833561435081613a19565b9250602084013561436081613a19565b9150604084013561437081613a19565b809150509250925092565b60008060006060848603121561439057600080fd5b833561439b81613a19565b925060208401356143ab81613a19565b929592945050506040919091013590565b8051613a5681613a19565b600080604083850312156143da57600080fd5b82516001600160401b03808211156143f157600080fd5b818501915085601f83011261440557600080fd5b815160208282111561441957614419613aed565b8160051b925061442a818401613b03565b828152928401810192818101908985111561444457600080fd5b948201945b8486101561446e578551935061445e84613a19565b8382529482019490820190614449565b965061447d90508782016143bc565b9450505050509250929050565b634e487b7160e01b600052603260045260246000fd5b600082516144b2818460208701613de0565b9190910192915050565b6000602082840312156144ce57600080fd5b81516132ac81613a19565b634e487b7160e01b600052601160045260246000fd5b6000600019821415614503576145036144d9565b5060010190565b60008282101561451c5761451c6144d9565b500390565b6000808585111561453157600080fd5b8386111561453e57600080fd5b5050820193919092039150565b6bffffffffffffffffffffffff1981358181169160148510156145785780818660140360031b1b83161692505b505092915050565b6000808335601e1984360301811261459757600080fd5b8301803591506001600160401b038211156145b157600080fd5b60200191503681900382131561376e57600080fd5b6000602082840312156145d857600080fd5b815180151581146132ac57600080fd5b6020815260006115106020830160188152776163636f756e743a2077726f6e67207369676e617475726560401b602082015260400190565b6001600160e01b031981358181169160048510156145785760049490940360031b84901b1690921692915050565b602080825260059082015264475332303360d81b604082015260600190565b60208082526005908201526411d4cc8c0d60da1b604082015260600190565b60408152600061469f6040830185613e0c565b828103602084015261330e8185613e0c565b6000602082840312156146c357600080fd5b81516001600160e01b0319811681146132ac57600080fd5b600060ff821660ff8416808210156146f5576146f56144d9565b90039392505050565b8183526000602080850194508260005b8581101561401e57813561472181613a19565b6001600160a01b03168752958201959082019060010161470e565b81835281816020850137506000828201602090810191909152601f909101601f19169091010190565b600061010080835261477a8184018d8f6146fe565b602084018c90526001600160a01b038b8116604086015284820360608601529091506147a7828a8c61473c565b978116608085015295861660a0840152505060ff9290921660c083015290911660e0909101529695505050505050565b60006040808301818452808651808352606092508286019150828160051b8701016020808a0160005b848110156148db57898403605f19018652815180516001600160a01b03168552610160848201518587015289820151818b88015261484082880182613e0c565b915050888201518682038a8801526148588282613e0c565b6080848101519089015260a0808501519089015260c0808501519089015260e08085015190890152610100808501519089015261012080850151898303828b015291935091506148a88382613e0c565b9250505061014080830151925086820381880152506148c78183613e0c565b978501979550505090820190600101614800565b50508196506148f48189018a6001600160a01b03169052565b5050505050509392505050565b60ff831681526001600160a01b0382166020820152606060408201819052601890820152776163636f756e743a2077726f6e67207369676e617475726560401b6080820152600060a08201610f14565b600081600019048311821515161561496b5761496b6144d9565b500290565b602080825260059082015264475332303160d81b604082015260600190565b634e487b7160e01b600052602160045260246000fd5b600281106149c357634e487b7160e01b600052602160045260246000fd5b9052565b600060018060a01b03808f1683528d602084015261016060408401526149f261016084018d8f61473c565b6149ff606085018d6149a5565b8a60808501528960a08501528860c085015281881660e0850152818716610100850152838103610120850152614a358187613e0c565b925050808416610140840152509d9c50505050505050505050505050565b60008219821115614a6657614a666144d9565b500190565b600082614a8857634e487b7160e01b600052601260045260246000fd5b500490565b608081526000614aa16080830187896146fe565b6020830195909552506001600160a01b039283166040820152911660609091015292915050565b8183823760009101908152919050565b8b81526001600160a01b038b81166020830152604082018b9052606082018a9052610160820190614b0c608084018b6149a5565b60a083019890985260c082019690965260e0810194909452918516610100840152909316610120820152610140019190915295945050505050565b600081614b5657614b566144d9565b50600019019056fea2646970667358221220c7d15f341b27bf42b70b14e5be231597818b17413f067a2ba672ba982e39f9d864736f6c634300080c003360a060405234801561001057600080fd5b50604051610ae0380380610ae083398101604081905261002f91610040565b6001600160a01b0316608052610070565b60006020828403121561005257600080fd5b81516001600160a01b038116811461006957600080fd5b9392505050565b608051610a4761009960003960008181610142015281816102b4015261036f0152610a476000f3fe608060405234801561001057600080fd5b506004361061009d5760003560e01c8063a3f4df7e11610066578063a3f4df7e1461017c578063b58fd5e8146101c5578063bc197c81146101d8578063f23a6e61146101fa578063ffa1ad741461021a57600080fd5b806223de29146100a257806301ffc9a7146100bc5780630825d1fc146100e4578063150b7a02146101055780632bcadc241461013d575b600080fd5b6100ba6100b036600461046a565b5050505050505050565b005b6100cf6100ca366004610515565b61023e565b60405190151581526020015b60405180910390f35b6100f76100f2366004610546565b610290565b6040519081526020016100db565b6101246101133660046105ab565b630a85bd0160e11b95945050505050565b6040516001600160e01b031990911681526020016100db565b6101647f000000000000000000000000000000000000000000000000000000000000000081565b6040516001600160a01b0390911681526020016100db565b6101b86040518060400160405280601881526020017f44656661756c742043616c6c6261636b2048616e646c6572000000000000000081525081565b6040516100db919061064a565b6100cf6101d33660046106fb565b61034b565b6101246101e63660046107fd565b63bc197c8160e01b98975050505050505050565b610124610208366004610897565b63f23a6e6160e01b9695505050505050565b6101b8604051806040016040528060058152602001640312e302e360dc1b81525081565b60006001600160e01b03198216630271189760e51b148061026f57506001600160e01b03198216630a85bd0160e11b145b8061028a57506001600160e01b031982166301ffc9a760e01b145b92915050565b604051635229073f60e01b81526000903390829081908390635229073f906102e5907f00000000000000000000000000000000000000000000000000000000000000009085908190369060019060040161090f565b6000604051808303816000875af1158015610304573d6000803e3d6000fd5b505050506040513d6000823e601f3d908101601f1916820160405261032c919081019061097f565b915091508161033d57805160208201fd5b506000979650505050505050565b604051635229073f60e01b81526000903390829081908390635229073f906103a0907f00000000000000000000000000000000000000000000000000000000000000009085908190369060019060040161090f565b6000604051808303816000875af11580156103bf573d6000803e3d6000fd5b505050506040513d6000823e601f3d908101601f191682016040526103e7919081019061097f565b91509150816103f857805160208201fd5b5098975050505050505050565b80356001600160a01b038116811461041c57600080fd5b919050565b60008083601f84011261043357600080fd5b50813567ffffffffffffffff81111561044b57600080fd5b60208301915083602082850101111561046357600080fd5b9250929050565b60008060008060008060008060c0898b03121561048657600080fd5b61048f89610405565b975061049d60208a01610405565b96506104ab60408a01610405565b955060608901359450608089013567ffffffffffffffff808211156104cf57600080fd5b6104db8c838d01610421565b909650945060a08b01359150808211156104f457600080fd5b506105018b828c01610421565b999c989b5096995094979396929594505050565b60006020828403121561052757600080fd5b81356001600160e01b03198116811461053f57600080fd5b9392505050565b6000806000806080858703121561055c57600080fd5b843567ffffffffffffffff81111561057357600080fd5b8501610160818803121561058657600080fd5b93506020850135925061059b60408601610405565b9396929550929360600135925050565b6000806000806000608086880312156105c357600080fd5b6105cc86610405565b94506105da60208701610405565b935060408601359250606086013567ffffffffffffffff8111156105fd57600080fd5b61060988828901610421565b969995985093965092949392505050565b60005b8381101561063557818101518382015260200161061d565b83811115610644576000848401525b50505050565b602081526000825180602084015261066981604085016020870161061a565b601f01601f19169190910160400192915050565b634e487b7160e01b600052604160045260246000fd5b604051601f8201601f1916810167ffffffffffffffff811182821017156106bc576106bc61067d565b604052919050565b600067ffffffffffffffff8211156106de576106de61067d565b50601f01601f191660200190565b80356002811061041c57600080fd5b60008060008060008060c0878903121561071457600080fd5b863595506020870135945061072b60408801610405565b935060608701359250608087013567ffffffffffffffff81111561074e57600080fd5b8701601f8101891361075f57600080fd5b803561077261076d826106c4565b610693565b8181528a602083850101111561078757600080fd5b816020840160208301376000602083830101528094505050506107ac60a088016106ec565b90509295509295509295565b60008083601f8401126107ca57600080fd5b50813567ffffffffffffffff8111156107e257600080fd5b6020830191508360208260051b850101111561046357600080fd5b60008060008060008060008060a0898b03121561081957600080fd5b61082289610405565b975061083060208a01610405565b9650604089013567ffffffffffffffff8082111561084d57600080fd5b6108598c838d016107b8565b909850965060608b013591508082111561087257600080fd5b61087e8c838d016107b8565b909650945060808b01359150808211156104f457600080fd5b60008060008060008060a087890312156108b057600080fd5b6108b987610405565b95506108c760208801610405565b94506040870135935060608701359250608087013567ffffffffffffffff8111156108f157600080fd5b6108fd89828a01610421565b979a9699509497509295939492505050565b6001600160a01b0386168152602081018590526080604082018190528101839052828460a0830137600060a08483010152600060a0601f19601f86011683010190506002831061096f57634e487b7160e01b600052602160045260246000fd5b8260608301529695505050505050565b6000806040838503121561099257600080fd5b825180151581146109a257600080fd5b602084015190925067ffffffffffffffff8111156109bf57600080fd5b8301601f810185136109d057600080fd5b80516109de61076d826106c4565b8181528660208385010111156109f357600080fd5b610a0482602083016020860161061a565b809350505050925092905056fea264697066735822122082ae14aafdb5491d946d7cb3b942d12a7e63e5f9d9894aec5a60c4664cbbe5ed64736f6c634300080c0033",
  "linkReferences": {},
  "deployedLinkReferences": {}
}