{
  "_format": "hh-sol-artifact-1",
  "contractName": "EIP4337Manager",
  "sourceName": "contracts/gnosis/EIP4337Manager.sol",
  "abi": [
    {
      "inputs": [
        {
          "internalType": "address",
          "name": "anEntryPoint",
          "type": "address"
        },
        {
          "internalType": "address",
          "name": "anRecoveryModule",
          "type": "address"
        }
      ],
      "stateMutability": "nonpayable",
      "type": "constructor"
    },
    {
      "inputs": [],
      "name": "eip4337Fallback",
      "outputs": [
        {
          "internalType": "address",
          "name": "",
          "type": "address"
        }
      ],
      "stateMutability": "view",
      "type": "function"
    },
    {
      "inputs": [],
      "name": "entryPoint",
      "outputs": [
        {
          "internalType": "address",
          "name": "",
          "type": "address"
        }
      ],
      "stateMutability": "view",
      "type": "function"
    },
    {
      "inputs": [
        {
          "internalType": "uint256",
          "name": "startTimestamp",
          "type": "uint256"
        },
        {
          "internalType": "uint256",
          "name": "endTimestamp",
          "type": "uint256"
        },
        {
          "internalType": "address",
          "name": "to",
          "type": "address"
        },
        {
          "internalType": "uint256",
          "name": "value",
          "type": "uint256"
        },
        {
          "internalType": "bytes",
          "name": "data",
          "type": "bytes"
        },
        {
          "internalType": "enum Enum.Operation",
          "name": "operation",
          "type": "uint8"
        }
      ],
      "name": "execSchemaTransaction",
      "outputs": [
        {
          "internalType": "bool",
          "name": "success",
          "type": "bool"
        }
      ],
      "stateMutability": "nonpayable",
      "type": "function"
    },
    {
      "inputs": [
        {
          "internalType": "address",
          "name": "to",
          "type": "address"
        },
        {
          "internalType": "uint256",
          "name": "value",
          "type": "uint256"
        },
        {
          "internalType": "bytes",
          "name": "data",
          "type": "bytes"
        },
        {
          "internalType": "enum Enum.Operation",
          "name": "operation",
          "type": "uint8"
        }
      ],
      "name": "executeAndRevert",
      "outputs": [],
      "stateMutability": "nonpayable",
      "type": "function"
    },
    {
      "inputs": [],
      "name": "flipScheduleModule",
      "outputs": [],
      "stateMutability": "nonpayable",
      "type": "function"
    },
    {
      "inputs": [
        {
          "internalType": "contract GnosisSafe",
          "name": "safe",
          "type": "address"
        }
      ],
      "name": "getCurrentEIP4337Manager",
      "outputs": [
        {
          "internalType": "address",
          "name": "prev",
          "type": "address"
        },
        {
          "internalType": "address",
          "name": "manager",
          "type": "address"
        }
      ],
      "stateMutability": "view",
      "type": "function"
    },
    {
      "inputs": [],
      "name": "isDisableSchedule",
      "outputs": [
        {
          "internalType": "bool",
          "name": "",
          "type": "bool"
        }
      ],
      "stateMutability": "view",
      "type": "function"
    },
    {
      "inputs": [],
      "name": "recoveryModule",
      "outputs": [
        {
          "internalType": "address",
          "name": "",
          "type": "address"
        }
      ],
      "stateMutability": "view",
      "type": "function"
    },
    {
      "inputs": [
        {
          "internalType": "address",
          "name": "prevModule",
          "type": "address"
        },
        {
          "internalType": "contract EIP4337Manager",
          "name": "oldManager",
          "type": "address"
        },
        {
          "internalType": "contract EIP4337Manager",
          "name": "newManager",
          "type": "address"
        }
      ],
      "name": "replaceEIP4337Manager",
      "outputs": [],
      "stateMutability": "nonpayable",
      "type": "function"
    },
    {
      "inputs": [
        {
          "internalType": "contract EIP4337Manager",
          "name": "manager",
          "type": "address"
        }
      ],
      "name": "setup4337Modules",
      "outputs": [],
      "stateMutability": "nonpayable",
      "type": "function"
    },
    {
      "inputs": [
        {
          "internalType": "uint256",
          "name": "",
          "type": "uint256"
        }
      ],
      "name": "usedNonce",
      "outputs": [
        {
          "internalType": "bool",
          "name": "",
          "type": "bool"
        }
      ],
      "stateMutability": "view",
      "type": "function"
    },
    {
      "inputs": [
        {
          "internalType": "contract GnosisSafe",
          "name": "safe",
          "type": "address"
        },
        {
          "internalType": "contract EIP4337Manager",
          "name": "manager",
          "type": "address"
        }
      ],
      "name": "validateEip4337",
      "outputs": [],
      "stateMutability": "nonpayable",
      "type": "function"
    },
    {
      "inputs": [
        {
          "components": [
            {
              "internalType": "address",
              "name": "sender",
              "type": "address"
            },
            {
              "internalType": "uint256",
              "name": "nonce",
              "type": "uint256"
            },
            {
              "internalType": "bytes",
              "name": "initCode",
              "type": "bytes"
            },
            {
              "internalType": "bytes",
              "name": "callData",
              "type": "bytes"
            },
            {
              "internalType": "uint256",
              "name": "callGasLimit",
              "type": "uint256"
            },
            {
              "internalType": "uint256",
              "name": "verificationGasLimit",
              "type": "uint256"
            },
            {
              "internalType": "uint256",
              "name": "preVerificationGas",
              "type": "uint256"
            },
            {
              "internalType": "uint256",
              "name": "maxFeePerGas",
              "type": "uint256"
            },
            {
              "internalType": "uint256",
              "name": "maxPriorityFeePerGas",
              "type": "uint256"
            },
            {
              "internalType": "bytes",
              "name": "paymasterAndData",
              "type": "bytes"
            },
            {
              "internalType": "bytes",
              "name": "signature",
              "type": "bytes"
            }
          ],
          "internalType": "struct UserOperation",
          "name": "userOp",
          "type": "tuple"
        },
        {
          "internalType": "bytes32",
          "name": "userOpHash",
          "type": "bytes32"
        },
        {
          "internalType": "uint256",
          "name": "missingAccountFunds",
          "type": "uint256"
        }
      ],
      "name": "validateUserOp",
      "outputs": [
        {
          "internalType": "uint256",
          "name": "validationData",
          "type": "uint256"
        }
      ],
      "stateMutability": "nonpayable",
      "type": "function"
    }
  ],
  "bytecode": "0x60e06040523480156200001157600080fd5b50604051620034d6380380620034d68339810160408190526200003491620000c3565b6001600160a01b03821660a0526040513090620000519062000098565b6001600160a01b039091168152602001604051809103906000f0801580156200007e573d6000803e3d6000fd5b506001600160a01b039081166080521660c05250620000fb565b6110c8806200240e83390190565b80516001600160a01b0381168114620000be57600080fd5b919050565b60008060408385031215620000d757600080fd5b620000e283620000a6565b9150620000f260208401620000a6565b90509250929050565b60805160a05160c0516122c06200014e6000396000610111015260008181610208015281816103c90152818161045801528181610c520152610db701526000818161018e0152610c9b01526122c06000f3fe608060405234801561001057600080fd5b50600436106100cf5760003560e01c8063940d3c601161008c578063b0d691fe11610066578063b0d691fe14610203578063b58fd5e81461022a578063d041593b1461023d578063efae6e061461025057600080fd5b8063940d3c60146101b05780639723fb6d146101c3578063a0d9c42b146101f657600080fd5b8063039b1728146100d45780630ee9bf141461010c57806335ff0d7a1461014b5780633a871cdd1461015557806345b1e0ca1461017657806370b8a01d14610189575b600080fd5b6100e76100e2366004611b0c565b610263565b604080516001600160a01b039384168152929091166020830152015b60405180910390f35b6101337f000000000000000000000000000000000000000000000000000000000000000081565b6040516001600160a01b039091168152602001610103565b610153610397565b005b610168610163366004611b30565b610425565b604051908152602001610103565b610153610184366004611b84565b610857565b6101337f000000000000000000000000000000000000000000000000000000000000000081565b6101536101be366004611c96565b610c20565b6101e66101d1366004611d00565b600a6020526000908152604090205460ff1681565b6040519015158152602001610103565b6009546101e69060ff1681565b6101337f000000000000000000000000000000000000000000000000000000000000000081565b6101e6610238366004611d19565b610d84565b61015361024b366004611b0c565b610ed0565b61015361025e366004611d95565b6113aa565b604051636617c22960e11b8152600160048201819052606460248301529060009081906001600160a01b0385169063cc2f845290604401600060405180830381865afa1580156102b7573d6000803e3d6000fd5b505050506040513d6000823e601f3d908101601f191682016040526102df9190810190611deb565b50905060005b815181101561038a57600082828151811061030257610302611eaf565b60200260200101519050806001600160a01b0316632bcadc246040518163ffffffff1660e01b8152600401602060405180830381865afa925050508015610366575060408051601f3d908101601f1916820190925261036391810190611ec5565b60015b1561037657949694955050505050565b93508061038281611ef8565b9150506102e5565b5060009485945092505050565b600080366103a6601482611f11565b6103b1928290611f28565b6103ba91611f52565b60601c90506001600160a01b037f00000000000000000000000000000000000000000000000000000000000000001681146104105760405162461bcd60e51b815260040161040790611f87565b60405180910390fd5b506009805460ff19811660ff90911615179055565b6000808036610435601482611f11565b610440928290611f28565b61044991611f52565b60601c90506001600160a01b037f00000000000000000000000000000000000000000000000000000000000000001681146104965760405162461bcd60e51b815260040161040790611f87565b3060006104f0866040517f19457468657265756d205369676e6564204d6573736167653a0a3332000000006020820152603c8101829052600090605c01604051602081830303815290604052805190602001209050919050565b905060006105426105056101408a018a611fbe565b8080601f016020809104026020016040519081016040528093929190818152602001838380828437600092019190915250869392505061180a9050565b90506004546001146105965760405162461bcd60e51b815260206004820152601960248201527f6163636f756e743a206f6e6c79207468726573686f6c642031000000000000006044820152606401610407565b6040516317aa5fb760e11b81526001600160a01b038281166004830152841690632f54bf6e90602401602060405180830381865afa1580156105dc573d6000803e3d6000fd5b505050506040513d601f19601f820116820180604052508101906106009190612005565b61060957600194505b6106166040890189611fbe565b90506000036107ef57673fffffffffffffff8860200135111561078f5760095460ff16156106905760405162461bcd60e51b815260206004820152602160248201527f6163636f756e743a207363686564756c65206d6f64756c652064697361626c656044820152601960fa1b6064820152608401610407565b6020808901356000908152600a909152604090205460ff16156106ee5760405162461bcd60e51b81526020600482015260166024820152756163636f756e743a20696e76616c6964206e6f6e636560501b6044820152606401610407565b6020808901356000908152600a90915260408120805460ff1916600117905561071a60608a018a611fbe565b61072991600491600091611f28565b61073291612027565b90506001600160e01b031981166316b1fabd60e31b146107895760405162461bcd60e51b8152602060048201526012602482015271195e1958ce881a5b1b1959d85b0818d85b1b60721b6044820152606401610407565b506107ef565b6005546020890135146107dd5760405162461bcd60e51b81526020600482015260166024820152756163636f756e743a20696e76616c6964206e6f6e636560501b6044820152606401610407565b6005546107eb906001612055565b6005555b851561084c576000846001600160a01b03168760405160006040518083038185875af1925050503d8060008114610842576040519150601f19603f3d011682016040523d82523d6000602084013e610847565b606091505b505050505b505050509392505050565b60408051604180825260808201909252600091602082018180368337019050509050601b60f81b8160408151811061089157610891611eaf565b60200101906001600160f81b031916908160001a905350600160f81b816002815181106108c0576108c0611eaf565b60200101906001600160f81b031916908160001a905350600160f81b816023815181106108ef576108ef611eaf565b60200101906001600160f81b031916908160001a90535060408051610160810182526001600160a01b03851681526005546020808301919091528251808201845260008082528385019190915283518083018552818152606084015260808301819052620f424060a084015260c0830181905260e08301819052610100830181905283518083018552818152610120840152610140830185905283516001808252818601909552929390929182015b610a0460405180610160016040528060006001600160a01b03168152602001600081526020016060815260200160608152602001600081526020016000815260200160008152602001600081526020016000815260200160608152602001606081525090565b81526020019060019003908161099e5790505090508181600081518110610a2d57610a2d611eaf565b60200260200101819052506000846001600160a01b031663b0d691fe6040518163ffffffff1660e01b8152600401602060405180830381865afa158015610a78573d6000803e3d6000fd5b505050506040513d601f19601f82011682018060405250810190610a9c9190611ec5565b6040516307eb652360e21b81529091506001600160a01b03821690631fad948c90610acd90859033906004016120c9565b600060405180830381600087803b158015610ae757600080fd5b505af1925050508015610af8575060015b610bc4573d808015610b26576040519150601f19603f3d011682016040523d82523d6000602084013e610b2b565b606091505b5060408051600060248201526044810191909152601460648201527320a0991a1039b4b3b730ba3ab9329032b93937b960611b608482015260a40160408051601f19818403018152919052602080820180516001600160e01b0316631101335b60e11b178152915190912082519183019190912014610bbe578060405162461bcd60e51b815260040161040791906121f3565b50610c18565b60405162461bcd60e51b8152602060048201526024808201527f76616c6964617465456970343333373a2068616e646c654f7073206d7573742060448201526319985a5b60e21b6064820152608401610407565b505050505050565b60008036610c2f601482611f11565b610c3a928290611f28565b610c4391611f52565b60601c90506001600160a01b037f0000000000000000000000000000000000000000000000000000000000000000168114610c905760405162461bcd60e51b815260040161040790611f87565b336001600160a01b037f00000000000000000000000000000000000000000000000000000000000000001614610d125760405162461bcd60e51b815260206004820152602160248201527f6163636f756e743a206e6f742066726f6d204549503433333746616c6c6261636044820152606b60f81b6064820152608401610407565b6000610d238686868660001961182e565b90506000610d32600019611875565b905081610d7b57604481511015610d4857600080fd5b60048101905080806020019051810190610d629190612206565b60405162461bcd60e51b815260040161040791906121f3565b50505050505050565b6000808036610d94601482611f11565b610d9f928290611f28565b610da891611f52565b60601c90506001600160a01b037f0000000000000000000000000000000000000000000000000000000000000000168114610df55760405162461bcd60e51b815260040161040790611f87565b87421015610e375760405162461bcd60e51b815260206004820152600f60248201526e195e1958ce881b9bdd081cdd185c9d608a1b6044820152606401610407565b864210610e7a5760405162461bcd60e51b8152602060048201526011602482015270195e1958ce88185b1c9958591e48195b99607a1b6044820152606401610407565b610e87868686865a61182e565b915081610ec55760405162461bcd60e51b815260206004820152600c60248201526b195e1958ce881c995d995c9d60a21b6044820152606401610407565b509695505050505050565b6000309050806001600160a01b0316632d9ad53d836001600160a01b031663b0d691fe6040518163ffffffff1660e01b8152600401602060405180830381865afa158015610f22573d6000803e3d6000fd5b505050506040513d601f19601f82011682018060405250810190610f469190611ec5565b6040516001600160e01b031960e084901b1681526001600160a01b039091166004820152602401602060405180830381865afa158015610f8a573d6000803e3d6000fd5b505050506040513d601f19601f82011682018060405250810190610fae9190612005565b156110105760405162461bcd60e51b815260206004820152602c60248201527f7365747570343333374d6f64756c65733a20656e747279706f696e7420616c7260448201526b1958591e48195b98589b195960a21b6064820152608401610407565b806001600160a01b0316632d9ad53d836001600160a01b03166370b8a01d6040518163ffffffff1660e01b8152600401602060405180830381865afa15801561105d573d6000803e3d6000fd5b505050506040513d601f19601f820116820180604052508101906110819190611ec5565b6040516001600160e01b031960e084901b1681526001600160a01b039091166004820152602401602060405180830381865afa1580156110c5573d6000803e3d6000fd5b505050506040513d601f19601f820116820180604052508101906110e99190612005565b156111505760405162461bcd60e51b815260206004820152603160248201527f7365747570343333374d6f64756c65733a206569703433333746616c6c6261636044820152701ac8185b1c9958591e48195b98589b1959607a1b6064820152608401610407565b806001600160a01b031663610b5925836001600160a01b031663b0d691fe6040518163ffffffff1660e01b8152600401602060405180830381865afa15801561119d573d6000803e3d6000fd5b505050506040513d601f19601f820116820180604052508101906111c19190611ec5565b6040516001600160e01b031960e084901b1681526001600160a01b039091166004820152602401600060405180830381600087803b15801561120257600080fd5b505af1158015611216573d6000803e3d6000fd5b50505050806001600160a01b031663610b5925836001600160a01b03166370b8a01d6040518163ffffffff1660e01b8152600401602060405180830381865afa158015611267573d6000803e3d6000fd5b505050506040513d601f19601f8201168201806040525081019061128b9190611ec5565b6040516001600160e01b031960e084901b1681526001600160a01b039091166004820152602401600060405180830381600087803b1580156112cc57600080fd5b505af11580156112e0573d6000803e3d6000fd5b50505050806001600160a01b031663610b5925836001600160a01b0316630ee9bf146040518163ffffffff1660e01b8152600401602060405180830381865afa158015611331573d6000803e3d6000fd5b505050506040513d601f19601f820116820180604052508101906113559190611ec5565b6040516001600160e01b031960e084901b1681526001600160a01b039091166004820152602401600060405180830381600087803b15801561139657600080fd5b505af1158015610c18573d6000803e3d6000fd5b60003090506000836001600160a01b03166370b8a01d6040518163ffffffff1660e01b8152600401602060405180830381865afa1580156113ef573d6000803e3d6000fd5b505050506040513d601f19601f820116820180604052508101906114139190611ec5565b604051632d9ad53d60e01b81526001600160a01b03808316600483015291925090831690632d9ad53d90602401602060405180830381865afa15801561145d573d6000803e3d6000fd5b505050506040513d601f19601f820116820180604052508101906114819190612005565b6114e55760405162461bcd60e51b815260206004820152602f60248201527f7265706c616365454950343333374d616e616765723a206f6c644d616e61676560448201526e72206973206e6f742061637469766560881b6064820152608401610407565b816001600160a01b031663e009cfde82866001600160a01b031663b0d691fe6040518163ffffffff1660e01b8152600401602060405180830381865afa158015611533573d6000803e3d6000fd5b505050506040513d601f19601f820116820180604052508101906115579190611ec5565b6040516001600160e01b031960e085901b1681526001600160a01b03928316600482015291166024820152604401600060405180830381600087803b15801561159f57600080fd5b505af11580156115b3573d6000803e3d6000fd5b5050604051637004e7ef60e11b81526001600160a01b03888116600483015284811660248301528516925063e009cfde9150604401600060405180830381600087803b15801561160257600080fd5b505af1158015611616573d6000803e3d6000fd5b505050506000836001600160a01b03166370b8a01d6040518163ffffffff1660e01b8152600401602060405180830381865afa15801561165a573d6000803e3d6000fd5b505050506040513d601f19601f8201168201806040525081019061167e9190611ec5565b9050826001600160a01b031663610b5925856001600160a01b031663b0d691fe6040518163ffffffff1660e01b8152600401602060405180830381865afa1580156116cd573d6000803e3d6000fd5b505050506040513d601f19601f820116820180604052508101906116f19190611ec5565b6040516001600160e01b031960e084901b1681526001600160a01b039091166004820152602401600060405180830381600087803b15801561173257600080fd5b505af1158015611746573d6000803e3d6000fd5b505060405163610b592560e01b81526001600160a01b0384811660048301528616925063610b59259150602401600060405180830381600087803b15801561178d57600080fd5b505af11580156117a1573d6000803e3d6000fd5b505060405163f08a032360e01b81526001600160a01b0384811660048301528616925063f08a03239150602401600060405180830381600087803b1580156117e857600080fd5b505af11580156117fc573d6000803e3d6000fd5b50505050610c188385610857565b600080600061181985856118a1565b91509150611826816118e6565b509392505050565b6000600183600181111561184457611844612274565b0361185c576000808551602087018986f4905061186c565b600080855160208701888a87f190505b95945050505050565b60603d828111156118835750815b604051602082018101604052818152816000602083013e9392505050565b60008082516041036118d75760208301516040840151606085015160001a6118cb87828585611a33565b945094505050506118df565b506000905060025b9250929050565b60008160048111156118fa576118fa612274565b036119025750565b600181600481111561191657611916612274565b036119635760405162461bcd60e51b815260206004820152601860248201527f45434453413a20696e76616c6964207369676e617475726500000000000000006044820152606401610407565b600281600481111561197757611977612274565b036119c45760405162461bcd60e51b815260206004820152601f60248201527f45434453413a20696e76616c6964207369676e6174757265206c656e677468006044820152606401610407565b60038160048111156119d8576119d8612274565b03611a305760405162461bcd60e51b815260206004820152602260248201527f45434453413a20696e76616c6964207369676e6174757265202773272076616c604482015261756560f01b6064820152608401610407565b50565b6000807f7fffffffffffffffffffffffffffffff5d576e7357a4501ddfe92f46681b20a0831115611a6a5750600090506003611aee565b6040805160008082526020820180845289905260ff881692820192909252606081018690526080810185905260019060a0016020604051602081039080840390855afa158015611abe573d6000803e3d6000fd5b5050604051601f1901519150506001600160a01b038116611ae757600060019250925050611aee565b9150600090505b94509492505050565b6001600160a01b0381168114611a3057600080fd5b600060208284031215611b1e57600080fd5b8135611b2981611af7565b9392505050565b600080600060608486031215611b4557600080fd5b833567ffffffffffffffff811115611b5c57600080fd5b84016101608187031215611b6f57600080fd5b95602085013595506040909401359392505050565b60008060408385031215611b9757600080fd5b8235611ba281611af7565b91506020830135611bb281611af7565b809150509250929050565b634e487b7160e01b600052604160045260246000fd5b604051601f8201601f1916810167ffffffffffffffff81118282101715611bfc57611bfc611bbd565b604052919050565b600067ffffffffffffffff821115611c1e57611c1e611bbd565b50601f01601f191660200190565b600082601f830112611c3d57600080fd5b8135611c50611c4b82611c04565b611bd3565b818152846020838601011115611c6557600080fd5b816020850160208301376000918101602001919091529392505050565b803560028110611c9157600080fd5b919050565b60008060008060808587031215611cac57600080fd5b8435611cb781611af7565b935060208501359250604085013567ffffffffffffffff811115611cda57600080fd5b611ce687828801611c2c565b925050611cf560608601611c82565b905092959194509250565b600060208284031215611d1257600080fd5b5035919050565b60008060008060008060c08789031215611d3257600080fd5b86359550602087013594506040870135611d4b81611af7565b935060608701359250608087013567ffffffffffffffff811115611d6e57600080fd5b611d7a89828a01611c2c565b925050611d8960a08801611c82565b90509295509295509295565b600080600060608486031215611daa57600080fd5b8335611db581611af7565b92506020840135611dc581611af7565b91506040840135611dd581611af7565b809150509250925092565b8051611c9181611af7565b60008060408385031215611dfe57600080fd5b825167ffffffffffffffff80821115611e1657600080fd5b818501915085601f830112611e2a57600080fd5b8151602082821115611e3e57611e3e611bbd565b8160051b9250611e4f818401611bd3565b8281529284018101928181019089851115611e6957600080fd5b948201945b84861015611e935785519350611e8384611af7565b8382529482019490820190611e6e565b9650611ea29050878201611de0565b9450505050509250929050565b634e487b7160e01b600052603260045260246000fd5b600060208284031215611ed757600080fd5b8151611b2981611af7565b634e487b7160e01b600052601160045260246000fd5b600060018201611f0a57611f0a611ee2565b5060010190565b600082821015611f2357611f23611ee2565b500390565b60008085851115611f3857600080fd5b83861115611f4557600080fd5b5050820193919092039150565b6bffffffffffffffffffffffff198135818116916014851015611f7f5780818660140360031b1b83161692505b505092915050565b6020808252601c908201527f6163636f756e743a206e6f742066726f6d20656e747279706f696e7400000000604082015260600190565b6000808335601e19843603018112611fd557600080fd5b83018035915067ffffffffffffffff821115611ff057600080fd5b6020019150368190038213156118df57600080fd5b60006020828403121561201757600080fd5b81518015158114611b2957600080fd5b6001600160e01b03198135818116916004851015611f7f5760049490940360031b84901b1690921692915050565b6000821982111561206857612068611ee2565b500190565b60005b83811015612088578181015183820152602001612070565b83811115612097576000848401525b50505050565b600081518084526120b581602086016020860161206d565b601f01601f19169290920160200192915050565b60006040808301818452808651808352606092508286019150828160051b8701016020808a0160005b848110156121cd57898403605f19018652815180516001600160a01b03168552610160848201518587015289820151818b8801526121328288018261209d565b915050888201518682038a88015261214a828261209d565b6080848101519089015260a0808501519089015260c0808501519089015260e08085015190890152610100808501519089015261012080850151898303828b0152919350915061219a838261209d565b9250505061014080830151925086820381880152506121b9818361209d565b9785019795505050908201906001016120f2565b50508196506121e68189018a6001600160a01b03169052565b5050505050509392505050565b602081526000611b29602083018461209d565b60006020828403121561221857600080fd5b815167ffffffffffffffff81111561222f57600080fd5b8201601f8101841361224057600080fd5b805161224e611c4b82611c04565b81815285602083850101111561226357600080fd5b61186c82602083016020860161206d565b634e487b7160e01b600052602160045260246000fdfea26469706673582212201dbc841e4aff52c79df268de154985473eed86773c1ddedb7001c6267d28e24a64736f6c634300080f003360a060405234801561001057600080fd5b506040516110c83803806110c883398101604081905261002f91610040565b6001600160a01b0316608052610070565b60006020828403121561005257600080fd5b81516001600160a01b038116811461006957600080fd5b9392505050565b6080516110286100a0600039600081816101650152818161041001528181610539015261061801526110286000f3fe608060405234801561001057600080fd5b50600436106100ce5760003560e01c80633a871cdd1161008c578063b58fd5e811610066578063b58fd5e814610224578063bc197c8114610237578063f23a6e6114610259578063ffa1ad741461027957600080fd5b80633a871cdd146101a7578063940d3c60146101c8578063a3f4df7e146101db57600080fd5b806223de29146100d357806301ffc9a7146100ed578063150b7a02146101155780631626ba7e1461014d5780632bcadc241461016057806335ff0d7a1461019f575b600080fd5b6100eb6100e136600461095b565b5050505050505050565b005b6101006100fb366004610a05565b61029d565b60405190151581526020015b60405180910390f35b610134610123366004610a2f565b630a85bd0160e11b95945050505050565b6040516001600160e01b0319909116815260200161010c565b61013461015b366004610b60565b6102ef565b6101877f000000000000000000000000000000000000000000000000000000000000000081565b6040516001600160a01b03909116815260200161010c565b6100eb6103f0565b6101ba6101b5366004610ba6565b6104dc565b60405190815260200161010c565b6100eb6101d6366004610c08565b610506565b6102176040518060400160405280601881526020017f44656661756c742043616c6c6261636b2048616e646c6572000000000000000081525081565b60405161010c9190610c9f565b610100610232366004610cd2565b610515565b610134610245366004610d8f565b63bc197c8160e01b98975050505050505050565b610134610267366004610e28565b63f23a6e6160e01b9695505050505050565b610217604051806040016040528060058152602001640312e302e360dc1b81525081565b60006001600160e01b03198216630271189760e51b14806102ce57506001600160e01b03198216630a85bd0160e11b145b806102e957506001600160e01b031982166301ffc9a760e01b145b92915050565b600080610349846040517f19457468657265756d205369676e6564204d6573736167653a0a3332000000006020820152603c8101829052600090605c01604051602081830303815290604052805190602001209050919050565b9050600061035782856105cf565b6040516317aa5fb760e11b81526001600160a01b038216600482015290915033908190632f54bf6e90602401602060405180830381865afa1580156103a0573d6000803e3d6000fd5b505050506040513d601f19601f820116820180604052508101906103c49190610eaf565b156103dc5750630b135d3f60e11b92506102e9915050565b506001600160e01b031992506102e9915050565b60405163468721a760e01b81523390600090829063468721a790610441907f000000000000000000000000000000000000000000000000000000000000000090859081903690600190600401610ee0565b6020604051808303816000875af1158015610460573d6000803e3d6000fd5b505050506040513d601f19601f820116820180604052508101906104849190610eaf565b9050806104d85760405162461bcd60e51b815260206004820152601e60248201527f6578656320666c69705363686564756c654d6f64756c65206661696c6564000060448201526064015b60405180910390fd5b5050565b6000806104e76105f3565b9050808060200190518101906104fd9190610f50565b95945050505050565b61050e6105f3565b5050505050565b604051635229073f60e01b81526000903390829081908390635229073f9061056a907f000000000000000000000000000000000000000000000000000000000000000090859081903690600190600401610ee0565b6000604051808303816000875af1158015610589573d6000803e3d6000fd5b505050506040513d6000823e601f3d908101601f191682016040526105b19190810190610f69565b91509150816105c257805160208201fd5b5098975050505050505050565b60008060006105de85856106a8565b915091506105eb816106ed565b509392505050565b604051635229073f60e01b8152606090339060009081908390635229073f90610649907f000000000000000000000000000000000000000000000000000000000000000090859081903690600190600401610ee0565b6000604051808303816000875af1158015610668573d6000803e3d6000fd5b505050506040513d6000823e601f3d908101601f191682016040526106909190810190610f69565b91509150816106a157805160208201fd5b9392505050565b60008082516041036106de5760208301516040840151606085015160001a6106d28782858561083a565b945094505050506106e6565b506000905060025b9250929050565b600081600481111561070157610701610eca565b036107095750565b600181600481111561071d5761071d610eca565b0361076a5760405162461bcd60e51b815260206004820152601860248201527f45434453413a20696e76616c6964207369676e6174757265000000000000000060448201526064016104cf565b600281600481111561077e5761077e610eca565b036107cb5760405162461bcd60e51b815260206004820152601f60248201527f45434453413a20696e76616c6964207369676e6174757265206c656e6774680060448201526064016104cf565b60038160048111156107df576107df610eca565b036108375760405162461bcd60e51b815260206004820152602260248201527f45434453413a20696e76616c6964207369676e6174757265202773272076616c604482015261756560f01b60648201526084016104cf565b50565b6000807f7fffffffffffffffffffffffffffffff5d576e7357a4501ddfe92f46681b20a083111561087157506000905060036108f5565b6040805160008082526020820180845289905260ff881692820192909252606081018690526080810185905260019060a0016020604051602081039080840390855afa1580156108c5573d6000803e3d6000fd5b5050604051601f1901519150506001600160a01b0381166108ee576000600192509250506108f5565b9150600090505b94509492505050565b80356001600160a01b038116811461091557600080fd5b919050565b60008083601f84011261092c57600080fd5b5081356001600160401b0381111561094357600080fd5b6020830191508360208285010111156106e657600080fd5b60008060008060008060008060c0898b03121561097757600080fd5b610980896108fe565b975061098e60208a016108fe565b965061099c60408a016108fe565b95506060890135945060808901356001600160401b03808211156109bf57600080fd5b6109cb8c838d0161091a565b909650945060a08b01359150808211156109e457600080fd5b506109f18b828c0161091a565b999c989b5096995094979396929594505050565b600060208284031215610a1757600080fd5b81356001600160e01b0319811681146106a157600080fd5b600080600080600060808688031215610a4757600080fd5b610a50866108fe565b9450610a5e602087016108fe565b93506040860135925060608601356001600160401b03811115610a8057600080fd5b610a8c8882890161091a565b969995985093965092949392505050565b634e487b7160e01b600052604160045260246000fd5b604051601f8201601f191681016001600160401b0381118282101715610adb57610adb610a9d565b604052919050565b60006001600160401b03821115610afc57610afc610a9d565b50601f01601f191660200190565b600082601f830112610b1b57600080fd5b8135610b2e610b2982610ae3565b610ab3565b818152846020838601011115610b4357600080fd5b816020850160208301376000918101602001919091529392505050565b60008060408385031215610b7357600080fd5b8235915060208301356001600160401b03811115610b9057600080fd5b610b9c85828601610b0a565b9150509250929050565b600080600060608486031215610bbb57600080fd5b83356001600160401b03811115610bd157600080fd5b84016101608187031215610be457600080fd5b95602085013595506040909401359392505050565b80356002811061091557600080fd5b60008060008060808587031215610c1e57600080fd5b610c27856108fe565b93506020850135925060408501356001600160401b03811115610c4957600080fd5b610c5587828801610b0a565b925050610c6460608601610bf9565b905092959194509250565b60005b83811015610c8a578181015183820152602001610c72565b83811115610c99576000848401525b50505050565b6020815260008251806020840152610cbe816040850160208701610c6f565b601f01601f19169190910160400192915050565b60008060008060008060c08789031215610ceb57600080fd5b8635955060208701359450610d02604088016108fe565b93506060870135925060808701356001600160401b03811115610d2457600080fd5b610d3089828a01610b0a565b925050610d3f60a08801610bf9565b90509295509295509295565b60008083601f840112610d5d57600080fd5b5081356001600160401b03811115610d7457600080fd5b6020830191508360208260051b85010111156106e657600080fd5b60008060008060008060008060a0898b031215610dab57600080fd5b610db4896108fe565b9750610dc260208a016108fe565b965060408901356001600160401b0380821115610dde57600080fd5b610dea8c838d01610d4b565b909850965060608b0135915080821115610e0357600080fd5b610e0f8c838d01610d4b565b909650945060808b01359150808211156109e457600080fd5b60008060008060008060a08789031215610e4157600080fd5b610e4a876108fe565b9550610e58602088016108fe565b9450604087013593506060870135925060808701356001600160401b03811115610e8157600080fd5b610e8d89828a0161091a565b979a9699509497509295939492505050565b8051801515811461091557600080fd5b600060208284031215610ec157600080fd5b6106a182610e9f565b634e487b7160e01b600052602160045260246000fd5b6001600160a01b0386168152602081018590526080604082018190528101839052828460a0830137600060a08483010152600060a0601f19601f860116830101905060028310610f4057634e487b7160e01b600052602160045260246000fd5b8260608301529695505050505050565b600060208284031215610f6257600080fd5b5051919050565b60008060408385031215610f7c57600080fd5b610f8583610e9f565b915060208301516001600160401b03811115610fa057600080fd5b8301601f81018513610fb157600080fd5b8051610fbf610b2982610ae3565b818152866020838501011115610fd457600080fd5b610fe5826020830160208601610c6f565b809350505050925092905056fea26469706673582212208be9dde4db338db1786b2cbb51232758564fd3977b7979533d8e3e8e2a5c50d964736f6c634300080f0033",
  "linkReferences": {},
  "deployedLinkReferences": {}
}