{
  "_format": "hh-sol-artifact-1",
  "contractName": "EntryPoint",
  "sourceName": "contracts/core/EntryPoint.sol",
  "abi": [
    {
      "inputs": [
        {
          "internalType": "uint256",
          "name": "opIndex",
          "type": "uint256"
        },
        {
          "internalType": "address",
          "name": "paymaster",
          "type": "address"
        },
        {
          "internalType": "string",
          "name": "reason",
          "type": "string"
        }
      ],
      "name": "FailedOp",
      "type": "error"
    },
    {
      "inputs": [
        {
          "internalType": "address",
          "name": "sender",
          "type": "address"
        }
      ],
      "name": "SenderAddressResult",
      "type": "error"
    },
    {
      "inputs": [
        {
          "internalType": "address",
          "name": "aggregator",
          "type": "address"
        }
      ],
      "name": "SignatureValidationFailed",
      "type": "error"
    },
    {
      "inputs": [
        {
          "internalType": "uint256",
          "name": "preOpGas",
          "type": "uint256"
        },
        {
          "internalType": "uint256",
          "name": "prefund",
          "type": "uint256"
        },
        {
          "internalType": "uint256",
          "name": "deadline",
          "type": "uint256"
        },
        {
          "components": [
            {
              "internalType": "uint256",
              "name": "stake",
              "type": "uint256"
            },
            {
              "internalType": "uint256",
              "name": "unstakeDelaySec",
              "type": "uint256"
            }
          ],
          "internalType": "struct IStakeManager.StakeInfo",
          "name": "senderInfo",
          "type": "tuple"
        },
        {
          "components": [
            {
              "internalType": "uint256",
              "name": "stake",
              "type": "uint256"
            },
            {
              "internalType": "uint256",
              "name": "unstakeDelaySec",
              "type": "uint256"
            }
          ],
          "internalType": "struct IStakeManager.StakeInfo",
          "name": "factoryInfo",
          "type": "tuple"
        },
        {
          "components": [
            {
              "internalType": "uint256",
              "name": "stake",
              "type": "uint256"
            },
            {
              "internalType": "uint256",
              "name": "unstakeDelaySec",
              "type": "uint256"
            }
          ],
          "internalType": "struct IStakeManager.StakeInfo",
          "name": "paymasterInfo",
          "type": "tuple"
        }
      ],
      "name": "SimulationResult",
      "type": "error"
    },
    {
      "inputs": [
        {
          "internalType": "uint256",
          "name": "preOpGas",
          "type": "uint256"
        },
        {
          "internalType": "uint256",
          "name": "prefund",
          "type": "uint256"
        },
        {
          "internalType": "uint256",
          "name": "deadline",
          "type": "uint256"
        },
        {
          "components": [
            {
              "internalType": "uint256",
              "name": "stake",
              "type": "uint256"
            },
            {
              "internalType": "uint256",
              "name": "unstakeDelaySec",
              "type": "uint256"
            }
          ],
          "internalType": "struct IStakeManager.StakeInfo",
          "name": "senderInfo",
          "type": "tuple"
        },
        {
          "components": [
            {
              "internalType": "uint256",
              "name": "stake",
              "type": "uint256"
            },
            {
              "internalType": "uint256",
              "name": "unstakeDelaySec",
              "type": "uint256"
            }
          ],
          "internalType": "struct IStakeManager.StakeInfo",
          "name": "factoryInfo",
          "type": "tuple"
        },
        {
          "components": [
            {
              "internalType": "uint256",
              "name": "stake",
              "type": "uint256"
            },
            {
              "internalType": "uint256",
              "name": "unstakeDelaySec",
              "type": "uint256"
            }
          ],
          "internalType": "struct IStakeManager.StakeInfo",
          "name": "paymasterInfo",
          "type": "tuple"
        },
        {
          "components": [
            {
              "internalType": "address",
              "name": "actualAggregator",
              "type": "address"
            },
            {
              "components": [
                {
                  "internalType": "uint256",
                  "name": "stake",
                  "type": "uint256"
                },
                {
                  "internalType": "uint256",
                  "name": "unstakeDelaySec",
                  "type": "uint256"
                }
              ],
              "internalType": "struct IStakeManager.StakeInfo",
              "name": "stakeInfo",
              "type": "tuple"
            }
          ],
          "internalType": "struct IEntryPoint.AggregatorStakeInfo",
          "name": "aggregatorInfo",
          "type": "tuple"
        }
      ],
      "name": "SimulationResultWithAggregation",
      "type": "error"
    },
    {
      "anonymous": false,
      "inputs": [
        {
          "indexed": true,
          "internalType": "bytes32",
          "name": "userOpHash",
          "type": "bytes32"
        },
        {
          "indexed": true,
          "internalType": "address",
          "name": "sender",
          "type": "address"
        },
        {
          "indexed": false,
          "internalType": "address",
          "name": "factory",
          "type": "address"
        },
        {
          "indexed": false,
          "internalType": "address",
          "name": "paymaster",
          "type": "address"
        }
      ],
      "name": "AccountDeployed",
      "type": "event"
    },
    {
      "anonymous": false,
      "inputs": [
        {
          "indexed": true,
          "internalType": "address",
          "name": "account",
          "type": "address"
        },
        {
          "indexed": false,
          "internalType": "uint256",
          "name": "totalDeposit",
          "type": "uint256"
        }
      ],
      "name": "Deposited",
      "type": "event"
    },
    {
      "anonymous": false,
      "inputs": [
        {
          "indexed": false,
          "internalType": "address",
          "name": "aggregator",
          "type": "address"
        }
      ],
      "name": "SignatureAggregatorChanged",
      "type": "event"
    },
    {
      "anonymous": false,
      "inputs": [
        {
          "indexed": true,
          "internalType": "address",
          "name": "account",
          "type": "address"
        },
        {
          "indexed": false,
          "internalType": "uint256",
          "name": "totalStaked",
          "type": "uint256"
        },
        {
          "indexed": false,
          "internalType": "uint256",
          "name": "withdrawTime",
          "type": "uint256"
        }
      ],
      "name": "StakeLocked",
      "type": "event"
    },
    {
      "anonymous": false,
      "inputs": [
        {
          "indexed": true,
          "internalType": "address",
          "name": "account",
          "type": "address"
        },
        {
          "indexed": false,
          "internalType": "uint256",
          "name": "withdrawTime",
          "type": "uint256"
        }
      ],
      "name": "StakeUnlocked",
      "type": "event"
    },
    {
      "anonymous": false,
      "inputs": [
        {
          "indexed": true,
          "internalType": "address",
          "name": "account",
          "type": "address"
        },
        {
          "indexed": false,
          "internalType": "address",
          "name": "withdrawAddress",
          "type": "address"
        },
        {
          "indexed": false,
          "internalType": "uint256",
          "name": "amount",
          "type": "uint256"
        }
      ],
      "name": "StakeWithdrawn",
      "type": "event"
    },
    {
      "anonymous": false,
      "inputs": [
        {
          "indexed": true,
          "internalType": "bytes32",
          "name": "userOpHash",
          "type": "bytes32"
        },
        {
          "indexed": true,
          "internalType": "address",
          "name": "sender",
          "type": "address"
        },
        {
          "indexed": true,
          "internalType": "address",
          "name": "paymaster",
          "type": "address"
        },
        {
          "indexed": false,
          "internalType": "uint256",
          "name": "nonce",
          "type": "uint256"
        },
        {
          "indexed": false,
          "internalType": "bool",
          "name": "success",
          "type": "bool"
        },
        {
          "indexed": false,
          "internalType": "uint256",
          "name": "actualGasCost",
          "type": "uint256"
        },
        {
          "indexed": false,
          "internalType": "uint256",
          "name": "actualGasUsed",
          "type": "uint256"
        }
      ],
      "name": "UserOperationEvent",
      "type": "event"
    },
    {
      "anonymous": false,
      "inputs": [
        {
          "indexed": true,
          "internalType": "bytes32",
          "name": "userOpHash",
          "type": "bytes32"
        },
        {
          "indexed": true,
          "internalType": "address",
          "name": "sender",
          "type": "address"
        },
        {
          "indexed": false,
          "internalType": "uint256",
          "name": "nonce",
          "type": "uint256"
        },
        {
          "indexed": false,
          "internalType": "bytes",
          "name": "revertReason",
          "type": "bytes"
        }
      ],
      "name": "UserOperationRevertReason",
      "type": "event"
    },
    {
      "anonymous": false,
      "inputs": [
        {
          "indexed": true,
          "internalType": "address",
          "name": "account",
          "type": "address"
        },
        {
          "indexed": false,
          "internalType": "address",
          "name": "withdrawAddress",
          "type": "address"
        },
        {
          "indexed": false,
          "internalType": "uint256",
          "name": "amount",
          "type": "uint256"
        }
      ],
      "name": "Withdrawn",
      "type": "event"
    },
    {
      "inputs": [
        {
          "internalType": "uint32",
          "name": "_unstakeDelaySec",
          "type": "uint32"
        }
      ],
      "name": "addStake",
      "outputs": [],
      "stateMutability": "payable",
      "type": "function"
    },
    {
      "inputs": [
        {
          "internalType": "address",
          "name": "account",
          "type": "address"
        }
      ],
      "name": "balanceOf",
      "outputs": [
        {
          "internalType": "uint256",
          "name": "",
          "type": "uint256"
        }
      ],
      "stateMutability": "view",
      "type": "function"
    },
    {
      "inputs": [
        {
          "internalType": "address",
          "name": "account",
          "type": "address"
        }
      ],
      "name": "depositTo",
      "outputs": [],
      "stateMutability": "payable",
      "type": "function"
    },
    {
      "inputs": [
        {
          "internalType": "address",
          "name": "",
          "type": "address"
        }
      ],
      "name": "deposits",
      "outputs": [
        {
          "internalType": "uint112",
          "name": "deposit",
          "type": "uint112"
        },
        {
          "internalType": "bool",
          "name": "staked",
          "type": "bool"
        },
        {
          "internalType": "uint112",
          "name": "stake",
          "type": "uint112"
        },
        {
          "internalType": "uint32",
          "name": "unstakeDelaySec",
          "type": "uint32"
        },
        {
          "internalType": "uint64",
          "name": "withdrawTime",
          "type": "uint64"
        }
      ],
      "stateMutability": "view",
      "type": "function"
    },
    {
      "inputs": [
        {
          "internalType": "address",
          "name": "account",
          "type": "address"
        }
      ],
      "name": "getDepositInfo",
      "outputs": [
        {
          "components": [
            {
              "internalType": "uint112",
              "name": "deposit",
              "type": "uint112"
            },
            {
              "internalType": "bool",
              "name": "staked",
              "type": "bool"
            },
            {
              "internalType": "uint112",
              "name": "stake",
              "type": "uint112"
            },
            {
              "internalType": "uint32",
              "name": "unstakeDelaySec",
              "type": "uint32"
            },
            {
              "internalType": "uint64",
              "name": "withdrawTime",
              "type": "uint64"
            }
          ],
          "internalType": "struct IStakeManager.DepositInfo",
          "name": "info",
          "type": "tuple"
        }
      ],
      "stateMutability": "view",
      "type": "function"
    },
    {
      "inputs": [
        {
          "internalType": "bytes",
          "name": "initCode",
          "type": "bytes"
        },
        {
          "internalType": "uint256",
          "name": "salt",
          "type": "uint256"
        }
      ],
      "name": "getSenderAddress",
      "outputs": [
        {
          "internalType": "address",
          "name": "",
          "type": "address"
        }
      ],
      "stateMutability": "view",
      "type": "function"
    },
    {
      "inputs": [
        {
          "components": [
            {
              "internalType": "address",
              "name": "sender",
              "type": "address"
            },
            {
              "internalType": "uint256",
              "name": "nonce",
              "type": "uint256"
            },
            {
              "internalType": "bytes",
              "name": "initCode",
              "type": "bytes"
            },
            {
              "internalType": "bytes",
              "name": "callData",
              "type": "bytes"
            },
            {
              "internalType": "uint256",
              "name": "callGasLimit",
              "type": "uint256"
            },
            {
              "internalType": "uint256",
              "name": "verificationGasLimit",
              "type": "uint256"
            },
            {
              "internalType": "uint256",
              "name": "preVerificationGas",
              "type": "uint256"
            },
            {
              "internalType": "uint256",
              "name": "maxFeePerGas",
              "type": "uint256"
            },
            {
              "internalType": "uint256",
              "name": "maxPriorityFeePerGas",
              "type": "uint256"
            },
            {
              "internalType": "bytes",
              "name": "paymasterAndData",
              "type": "bytes"
            },
            {
              "internalType": "bytes",
              "name": "signature",
              "type": "bytes"
            }
          ],
          "internalType": "struct UserOperation",
          "name": "userOp",
          "type": "tuple"
        }
      ],
      "name": "getUserOpHash",
      "outputs": [
        {
          "internalType": "bytes32",
          "name": "",
          "type": "bytes32"
        }
      ],
      "stateMutability": "view",
      "type": "function"
    },
    {
      "inputs": [
        {
          "components": [
            {
              "components": [
                {
                  "internalType": "address",
                  "name": "sender",
                  "type": "address"
                },
                {
                  "internalType": "uint256",
                  "name": "nonce",
                  "type": "uint256"
                },
                {
                  "internalType": "bytes",
                  "name": "initCode",
                  "type": "bytes"
                },
                {
                  "internalType": "bytes",
                  "name": "callData",
                  "type": "bytes"
                },
                {
                  "internalType": "uint256",
                  "name": "callGasLimit",
                  "type": "uint256"
                },
                {
                  "internalType": "uint256",
                  "name": "verificationGasLimit",
                  "type": "uint256"
                },
                {
                  "internalType": "uint256",
                  "name": "preVerificationGas",
                  "type": "uint256"
                },
                {
                  "internalType": "uint256",
                  "name": "maxFeePerGas",
                  "type": "uint256"
                },
                {
                  "internalType": "uint256",
                  "name": "maxPriorityFeePerGas",
                  "type": "uint256"
                },
                {
                  "internalType": "bytes",
                  "name": "paymasterAndData",
                  "type": "bytes"
                },
                {
                  "internalType": "bytes",
                  "name": "signature",
                  "type": "bytes"
                }
              ],
              "internalType": "struct UserOperation[]",
              "name": "userOps",
              "type": "tuple[]"
            },
            {
              "internalType": "contract IAggregator",
              "name": "aggregator",
              "type": "address"
            },
            {
              "internalType": "bytes",
              "name": "signature",
              "type": "bytes"
            }
          ],
          "internalType": "struct IEntryPoint.UserOpsPerAggregator[]",
          "name": "opsPerAggregator",
          "type": "tuple[]"
        },
        {
          "internalType": "address payable",
          "name": "beneficiary",
          "type": "address"
        }
      ],
      "name": "handleAggregatedOps",
      "outputs": [],
      "stateMutability": "nonpayable",
      "type": "function"
    },
    {
      "inputs": [
        {
          "components": [
            {
              "internalType": "address",
              "name": "sender",
              "type": "address"
            },
            {
              "internalType": "uint256",
              "name": "nonce",
              "type": "uint256"
            },
            {
              "internalType": "bytes",
              "name": "initCode",
              "type": "bytes"
            },
            {
              "internalType": "bytes",
              "name": "callData",
              "type": "bytes"
            },
            {
              "internalType": "uint256",
              "name": "callGasLimit",
              "type": "uint256"
            },
            {
              "internalType": "uint256",
              "name": "verificationGasLimit",
              "type": "uint256"
            },
            {
              "internalType": "uint256",
              "name": "preVerificationGas",
              "type": "uint256"
            },
            {
              "internalType": "uint256",
              "name": "maxFeePerGas",
              "type": "uint256"
            },
            {
              "internalType": "uint256",
              "name": "maxPriorityFeePerGas",
              "type": "uint256"
            },
            {
              "internalType": "bytes",
              "name": "paymasterAndData",
              "type": "bytes"
            },
            {
              "internalType": "bytes",
              "name": "signature",
              "type": "bytes"
            }
          ],
          "internalType": "struct UserOperation[]",
          "name": "ops",
          "type": "tuple[]"
        },
        {
          "internalType": "address payable",
          "name": "beneficiary",
          "type": "address"
        }
      ],
      "name": "handleOps",
      "outputs": [],
      "stateMutability": "nonpayable",
      "type": "function"
    },
    {
      "inputs": [
        {
          "internalType": "bytes",
          "name": "callData",
          "type": "bytes"
        },
        {
          "components": [
            {
              "components": [
                {
                  "internalType": "address",
                  "name": "sender",
                  "type": "address"
                },
                {
                  "internalType": "uint256",
                  "name": "nonce",
                  "type": "uint256"
                },
                {
                  "internalType": "uint256",
                  "name": "callGasLimit",
                  "type": "uint256"
                },
                {
                  "internalType": "uint256",
                  "name": "verificationGasLimit",
                  "type": "uint256"
                },
                {
                  "internalType": "uint256",
                  "name": "preVerificationGas",
                  "type": "uint256"
                },
                {
                  "internalType": "address",
                  "name": "paymaster",
                  "type": "address"
                },
                {
                  "internalType": "uint256",
                  "name": "maxFeePerGas",
                  "type": "uint256"
                },
                {
                  "internalType": "uint256",
                  "name": "maxPriorityFeePerGas",
                  "type": "uint256"
                }
              ],
              "internalType": "struct EntryPoint.MemoryUserOp",
              "name": "mUserOp",
              "type": "tuple"
            },
            {
              "internalType": "bytes32",
              "name": "userOpHash",
              "type": "bytes32"
            },
            {
              "internalType": "uint256",
              "name": "prefund",
              "type": "uint256"
            },
            {
              "internalType": "uint256",
              "name": "contextOffset",
              "type": "uint256"
            },
            {
              "internalType": "uint256",
              "name": "preOpGas",
              "type": "uint256"
            }
          ],
          "internalType": "struct EntryPoint.UserOpInfo",
          "name": "opInfo",
          "type": "tuple"
        },
        {
          "internalType": "bytes",
          "name": "context",
          "type": "bytes"
        }
      ],
      "name": "innerHandleOp",
      "outputs": [
        {
          "internalType": "uint256",
          "name": "actualGasCost",
          "type": "uint256"
        }
      ],
      "stateMutability": "nonpayable",
      "type": "function"
    },
    {
      "inputs": [
        {
          "components": [
            {
              "internalType": "address",
              "name": "sender",
              "type": "address"
            },
            {
              "internalType": "uint256",
              "name": "nonce",
              "type": "uint256"
            },
            {
              "internalType": "bytes",
              "name": "initCode",
              "type": "bytes"
            },
            {
              "internalType": "bytes",
              "name": "callData",
              "type": "bytes"
            },
            {
              "internalType": "uint256",
              "name": "callGasLimit",
              "type": "uint256"
            },
            {
              "internalType": "uint256",
              "name": "verificationGasLimit",
              "type": "uint256"
            },
            {
              "internalType": "uint256",
              "name": "preVerificationGas",
              "type": "uint256"
            },
            {
              "internalType": "uint256",
              "name": "maxFeePerGas",
              "type": "uint256"
            },
            {
              "internalType": "uint256",
              "name": "maxPriorityFeePerGas",
              "type": "uint256"
            },
            {
              "internalType": "bytes",
              "name": "paymasterAndData",
              "type": "bytes"
            },
            {
              "internalType": "bytes",
              "name": "signature",
              "type": "bytes"
            }
          ],
          "internalType": "struct UserOperation",
          "name": "userOp",
          "type": "tuple"
        }
      ],
      "name": "simulateValidation",
      "outputs": [],
      "stateMutability": "nonpayable",
      "type": "function"
    },
    {
      "inputs": [],
      "name": "unlockStake",
      "outputs": [],
      "stateMutability": "nonpayable",
      "type": "function"
    },
    {
      "inputs": [
        {
          "internalType": "address payable",
          "name": "withdrawAddress",
          "type": "address"
        }
      ],
      "name": "withdrawStake",
      "outputs": [],
      "stateMutability": "nonpayable",
      "type": "function"
    },
    {
      "inputs": [
        {
          "internalType": "address payable",
          "name": "withdrawAddress",
          "type": "address"
        },
        {
          "internalType": "uint256",
          "name": "withdrawAmount",
          "type": "uint256"
        }
      ],
      "name": "withdrawTo",
      "outputs": [],
      "stateMutability": "nonpayable",
      "type": "function"
    },
    {
      "stateMutability": "payable",
      "type": "receive"
    }
  ],
  "bytecode": "0x60a0604052604051620000129062000050565b604051809103906000f0801580156200002f573d6000803e3d6000fd5b506001600160a01b03166080523480156200004957600080fd5b506200005e565b6103b5806200332883390190565b6080516132a762000081600039600081816112f301526124b501526132a76000f3fe6080604052600436106100e15760003560e01c8063a61935311161007f578063c23a5cea11610059578063c23a5cea14610342578063c31e435414610362578063ee2194231461039a578063fc7e286d146103ba57600080fd5b8063a6193531146102fa578063b760faf91461031a578063bb9fe6bf1461032d57600080fd5b8063205c2878116100bb578063205c28781461015c5780634b1d7cf51461017c5780635287ce121461019c57806370a08231146102bb57600080fd5b80630396cb60146100f65780631d732756146101095780631fad948c1461013c57600080fd5b366100f1576100ef33610471565b005b600080fd5b6100ef6101043660046126f6565b6104d8565b34801561011557600080fd5b50610129610124366004612813565b610764565b6040519081526020015b60405180910390f35b34801561014857600080fd5b506100ef61015736600461299a565b6108f6565b34801561016857600080fd5b506100ef6101773660046129f0565b610a1e565b34801561018857600080fd5b506100ef61019736600461299a565b610b9a565b3480156101a857600080fd5b506102626101b7366004612a1c565b6040805160a081018252600080825260208201819052918101829052606081018290526080810191909152506001600160a01b031660009081526020818152604091829020825160a08101845281546001600160701b038082168352600160701b820460ff16151594830194909452600160781b90049092169282019290925260019091015463ffffffff8116606083015264010000000090046001600160401b0316608082015290565b6040805182516001600160701b03908116825260208085015115159083015283830151169181019190915260608083015163ffffffff16908201526080918201516001600160401b03169181019190915260a001610133565b3480156102c757600080fd5b506101296102d6366004612a1c565b6001600160a01b03166000908152602081905260409020546001600160701b031690565b34801561030657600080fd5b50610129610315366004612a39565b610f3a565b6100ef610328366004612a1c565b610471565b34801561033957600080fd5b506100ef610f7c565b34801561034e57600080fd5b506100ef61035d366004612a1c565b6110a2565b34801561036e57600080fd5b5061038261037d366004612a74565b6112d9565b6040516001600160a01b039091168152602001610133565b3480156103a657600080fd5b506100ef6103b5366004612a39565b611375565b3480156103c657600080fd5b5061042a6103d5366004612a1c565b600060208190529081526040902080546001909101546001600160701b0380831692600160701b810460ff1692600160781b9091049091169063ffffffff81169064010000000090046001600160401b031685565b604080516001600160701b0396871681529415156020860152929094169183019190915263ffffffff1660608201526001600160401b03909116608082015260a001610133565b61047b8134611514565b6001600160a01b03811660008181526020818152604091829020805492516001600160701b03909316835292917f2da466a7b24304f47e87fa2e1e5a81b9831ce54fec19055ce277ca2f39ba42c491015b60405180910390a25050565b33600090815260208190526040902063ffffffff821661053f5760405162461bcd60e51b815260206004820152601a60248201527f6d757374207370656369667920756e7374616b652064656c617900000000000060448201526064015b60405180910390fd5b600181015463ffffffff908116908316101561059d5760405162461bcd60e51b815260206004820152601c60248201527f63616e6e6f7420646563726561736520756e7374616b652074696d65000000006044820152606401610536565b80546000906105bd903490600160781b90046001600160701b0316612ad5565b9050600081116106045760405162461bcd60e51b81526020600482015260126024820152711b9bc81cdd185ad9481cdc1958da599a595960721b6044820152606401610536565b6001600160701b03811061064b5760405162461bcd60e51b815260206004820152600e60248201526d7374616b65206f766572666c6f7760901b6044820152606401610536565b6040805160a08101825283546001600160701b0390811682526001602080840182815286841685870190815263ffffffff808b16606088019081526000608089018181523380835296829052908a902098518954955194518916600160781b02600160781b600160e81b0319951515600160701b026effffffffffffffffffffffffffffff19909716919099161794909417929092169590951786555194909201805492516001600160401b0316640100000000026001600160601b0319909316949093169390931717905590517fa5ae833d0bb1dcd632d98a8b70973e8516812898e19bf27b70071ebc8dc52c0190610757908490879091825263ffffffff16602082015260400190565b60405180910390a2505050565b6000805a90503330146107b95760405162461bcd60e51b815260206004820152601760248201527f4141393220696e7465726e616c2063616c6c206f6e6c790000000000000000006044820152606401610536565b8451600087156108965760008083600001516001600160a01b031684604001518c8c6040516107e9929190612aed565b60006040518083038160008787f1925050503d8060008114610827576040519150601f19603f3d011682016040523d82523d6000602084013e61082c565b606091505b5091509150816108935780511561088e5783600001516001600160a01b031689602001517f1c4fada7374c0a9ee8841fc38afe82932dc0f8e69012e927f061a8bae611a201866020015184604051610885929190612b55565b60405180910390a35b600192505b50505b600087608001515a85030190506108e86000838a8a8a8080601f0160208091040260200160405190810160405280939291908181526020018383808284376000920191909152508892506115b0915050565b9a9950505050505050505050565b816000816001600160401b0381111561091157610911612764565b60405190808252806020026020018201604052801561094a57816020015b61093761266c565b81526020019060019003908161092f5790505b50905060005b828110156109ab576109a18187878481811061096e5761096e612b6e565b90506020028101906109809190612b84565b84848151811061099257610992612b6e565b602002602001015160006118a4565b5050600101610950565b506000805b83811015610a0b576109ff818888848181106109ce576109ce612b6e565b90506020028101906109e09190612b84565b8584815181106109f2576109f2612b6e565b6020026020010151611a6d565b909101906001016109b0565b50610a168482611b35565b505050505050565b33600090815260208190526040902080546001600160701b0316821115610a875760405162461bcd60e51b815260206004820152601960248201527f576974686472617720616d6f756e7420746f6f206c61726765000000000000006044820152606401610536565b8054610a9d9083906001600160701b0316612ba5565b81546001600160701b0319166001600160701b0391909116178155604080516001600160a01b03851681526020810184905233917fd1c19fbcd4551a5edfb66d43d2e337c04837afda3482b42bdf569a8fccdae5fb910160405180910390a26000836001600160a01b03168360405160006040518083038185875af1925050503d8060008114610b49576040519150601f19603f3d011682016040523d82523d6000602084013e610b4e565b606091505b5050905080610b945760405162461bcd60e51b81526020600482015260126024820152716661696c656420746f20776974686472617760701b6044820152606401610536565b50505050565b816000805b82811015610bf457858582818110610bb957610bb9612b6e565b9050602002810190610bcb9190612bbc565b610bd59080612bd2565b610be0915083612ad5565b915080610bec81612c1b565b915050610b9f565b506000816001600160401b03811115610c0f57610c0f612764565b604051908082528060200260200182016040528015610c4857816020015b610c3561266c565b815260200190600190039081610c2d5790505b5090506000805b84811015610dd15736888883818110610c6a57610c6a612b6e565b9050602002810190610c7c9190612bbc565b9050366000610c8b8380612bd2565b90925090506000610ca26040850160208601612a1c565b90508160005b81811015610d1b57610cf888868684818110610cc657610cc6612b6e565b9050602002810190610cd89190612b84565b8b8b81518110610cea57610cea612b6e565b6020026020010151866118a4565b50508780610d0590612c1b565b9850508080610d1390612c1b565b915050610ca8565b506001600160a01b03821615610db9576001600160a01b03821663e3563a4f8585610d4960408a018a612c36565b6040518563ffffffff1660e01b8152600401610d689493929190612de1565b60006040518083038186803b158015610d8057600080fd5b505afa925050508015610d91575060015b610db95760405163086a9f7560e41b81526001600160a01b0383166004820152602401610536565b50505050508080610dc990612c1b565b915050610c4f565b50600080915060005b85811015610ef15736898983818110610df557610df5612b6e565b9050602002810190610e079190612bbc565b90507f575ff3acadd5ab348fe1855e217e0f3678f8d767d7494c9f9fefbee2e17cca4d610e3a6040830160208401612a1c565b6040516001600160a01b03909116815260200160405180910390a1366000610e628380612bd2565b90925090508060005b81811015610ed957610ead88858584818110610e8957610e89612b6e565b9050602002810190610e9b9190612b84565b8b8b815181106109f2576109f2612b6e565b610eb79088612ad5565b965087610ec381612c1b565b9850508080610ed190612c1b565b915050610e6b565b50505050508080610ee990612c1b565b915050610dda565b50604051600081527f575ff3acadd5ab348fe1855e217e0f3678f8d767d7494c9f9fefbee2e17cca4d9060200160405180910390a1610f308682611b35565b5050505050505050565b6000610f4582611c33565b6040805160208101929092523090820152466060820152608001604051602081830303815290604052805190602001209050919050565b336000908152602081905260409020600181015463ffffffff16610fcf5760405162461bcd60e51b815260206004820152600a6024820152691b9bdd081cdd185ad95960b21b6044820152606401610536565b8054600160701b900460ff1661101b5760405162461bcd60e51b8152602060048201526011602482015270616c726561647920756e7374616b696e6760781b6044820152606401610536565b60018101546000906110339063ffffffff1642612e5e565b6001830180546bffffffffffffffff0000000019166401000000006001600160401b03841690810291909117909155835460ff60701b1916845560405190815290915033907ffa9b3c14cc825c412c9ed81b3ba365a5b459439403f18829e572ed53a4180f0a906020016104cc565b3360009081526020819052604090208054600160781b90046001600160701b0316806111075760405162461bcd60e51b81526020600482015260146024820152734e6f207374616b6520746f20776974686472617760601b6044820152606401610536565b600182015464010000000090046001600160401b03166111695760405162461bcd60e51b815260206004820152601d60248201527f6d7573742063616c6c20756e6c6f636b5374616b6528292066697273740000006044820152606401610536565b6001820154426401000000009091046001600160401b031611156111cf5760405162461bcd60e51b815260206004820152601b60248201527f5374616b65207769746864726177616c206973206e6f742064756500000000006044820152606401610536565b6001820180546001600160601b03191690558154600160781b600160e81b0319168255604080516001600160a01b03851681526020810183905233917fb7c918e0e249f999e965cafeb6c664271b3f4317d296461500e71da39f0cbda3910160405180910390a26000836001600160a01b03168260405160006040518083038185875af1925050503d8060008114611283576040519150601f19603f3d011682016040523d82523d6000602084013e611288565b606091505b5050905080610b945760405162461bcd60e51b815260206004820152601860248201527f6661696c656420746f207769746864726177207374616b6500000000000000006044820152606401610536565b6040516330c790d560e21b81526000906001600160a01b037f0000000000000000000000000000000000000000000000000000000000000000169063c31e43549061132c90879087908790600401612e89565b602060405180830381865afa158015611349573d6000803e3d6000fd5b505050506040513d601f19601f8201168201806040525081019061136d9190612ead565b949350505050565b60005a905061138261266c565b6000806113936000868560016118a4565b60408501519193509150600060c08701355a6113af9088612ba5565b6113b99190612ad5565b905060006113ce866000015160a00151611c4c565b8651519091506000906113e090611c4c565b90503660006113f260408c018c612c36565b909250905060006014821015611409576000611424565b611417601460008486612eca565b61142091612ef4565b60601c5b9050600061143182611c4c565b90506001600160a01b038a16156114ef57600060405180604001604052808c6001600160a01b031681526020016114678d611c4c565b905260405163c003fc8360e01b8152600481018a9052602481018b9052604481018c9052875160648201526020808901516084830152845160a48301528085015160c4830152895160e4830152808a015161010483015282516001600160a01b0316610124830152808301518051610144840152015161016482015290915061018401610536565b86888a87848a604051632fc7c1d160e11b815260040161053696959493929190612f24565b6001600160a01b038216600090815260208190526040812080549091906115459084906001600160701b0316612ad5565b90506001600160701b038111156115915760405162461bcd60e51b815260206004820152601060248201526f6465706f736974206f766572666c6f7760801b6044820152606401610536565b81546001600160701b0319166001600160701b03919091161790555050565b6000805a8551909150600090816115c682611c9b565b60a08301519091506001600160a01b0381166115e5578251935061177c565b80935060008851111561177c57868202955060028a600281111561160b5761160b612f72565b1461167d57606083015160405163a9a2340960e01b81526001600160a01b0383169163a9a2340991611645908e908d908c90600401612f88565b600060405180830381600088803b15801561165f57600080fd5b5087f1158015611673573d6000803e3d6000fd5b505050505061177c565b606083015160405163a9a2340960e01b81526001600160a01b0383169163a9a23409916116b2908e908d908c90600401612f88565b600060405180830381600088803b1580156116cc57600080fd5b5087f1935050505080156116de575060015b61177c576116ea612fcf565b806308c379a0141561172857506116ff612feb565b8061170a575061172a565b8b828260405162fa072b60e01b815260040161053693929190613074565b505b60405162fa072b60e01b8152600481018c90526001600160a01b0382166024820152606060448201526011606482015270104d4c081c1bdcdd13dc081c995d995c9d607a1b608482015260a401610536565b5a850387019650818702955085896040015110156117f25760405162fa072b60e01b8152600481018c90526001600160a01b038216602482015260606044820152601f60648201527f4135312070726566756e642062656c6f772061637475616c476173436f737400608482015260a401610536565b60408901518690036118048582611514565b6000808c600281111561181957611819612f72565b1490508460a001516001600160a01b031685600001516001600160a01b03168c602001517f49628fd1471006c1482da88028e9ce4dbb080b815c9b0344d39e5a8e6ec1419f8860200151858d8f60405161188c949392919093845291151560208401526040830152606082015260800190565b60405180910390a45050505050505095945050505050565b60008060005a85519091506118b98782611cc4565b6118c287610f3a565b6020870152604081015160608201516080830151171760e088013517610100880135176effffffffffffffffffffffffffffff8111156119445760405162461bcd60e51b815260206004820152601860248201527f41413934206761732076616c756573206f766572666c6f7700000000000000006044820152606401610536565b60008061195084611dbd565b905061195f8b8b8b8b85611e0b565b9098509650915061196f43600052565b60a08401516060906001600160a01b0316156119b65760006119948d8d8d8688612191565b909250905080158015906119a757508781105b156119b0578097505b506119c7565b506040805160208101909152600081525b60005a87039050808c60a001351015611a3e5760a086015160405162fa072b60e01b8152600481018f90526001600160a01b03909116602482015260606044820152601d60648201527f413430206f76657220766572696669636174696f6e4761734c696d6974000000608482015260a401610536565b60408b018390528160608c015260c08c01355a8803018b60800181815250505050505050505094509492505050565b6000805a90506000611a80846060015190565b905030631d732756611a956060880188612c36565b87856040518563ffffffff1660e01b8152600401611ab694939291906130a7565b6020604051808303816000875af1925050508015611af1575060408051601f3d908101601f19168201909252611aee9181019061315a565b60015b611b2957600084608001515a611b079085612ba5565b611b119190612ad5565b9050611b218760028785856115b0565b935050611b2c565b92505b50509392505050565b6001600160a01b038216611b8b5760405162461bcd60e51b815260206004820152601860248201527f4141393020696e76616c69642062656e656669636961727900000000000000006044820152606401610536565b6000826001600160a01b03168260405160006040518083038185875af1925050503d8060008114611bd8576040519150601f19603f3d011682016040523d82523d6000602084013e611bdd565b606091505b5050905080611c2e5760405162461bcd60e51b815260206004820152601f60248201527f41413931206661696c65642073656e6420746f2062656e6566696369617279006044820152606401610536565b505050565b6000611c3e826123d5565b805190602001209050919050565b604080518082018252600080825260208083018281526001600160a01b03959095168252819052919091208054600160781b90046001600160701b031682526001015463ffffffff1690915290565b60c081015160e08201516000919080821415611cb8575092915050565b61136d82488301612414565b611cd16020830183612a1c565b6001600160a01b0316815260208083013590820152608080830135604083015260a0830135606083015260c0808401359183019190915260e0808401359183019190915261010083013590820152366000611d30610120850185612c36565b90925090508015611db0576014811015611d8c5760405162461bcd60e51b815260206004820152601d60248201527f4141393320696e76616c6964207061796d6173746572416e64446174610000006044820152606401610536565b611d9a601460008385612eca565b611da391612ef4565b60601c60a0840152610b94565b600060a084015250505050565b60a081015160009081906001600160a01b0316611ddb576001611dde565b60035b60ff1690506000836080015182856060015102856040015101019050611e0384611c9b565b029392505050565b6000806000805a8751805191925090611e368b8a611e2c60408e018e612c36565b8e6020013561242c565b6001600160a01b03881660011415611f2657611e5143600052565b6001600160a01b0381163b611eb65760405162fa072b60e01b8152600060048201819052602482015260606044820152601960648201527f41413230206163636f756e74206e6f74206465706c6f79656400000000000000608482015260a401610536565b806001600160a01b0316633ad59dbc6040518163ffffffff1660e01b8152600401602060405180830381865afa925050508015611f10575060408051601f3d908101601f19168201909252611f0d91810190612ead565b60015b611f205760009450849750611f26565b97508794505b60a08201516000906001600160a01b038116611f74576001600160a01b0383166000908152602081905260409020546001600160701b0316898111611f6d57808a03611f70565b60005b9250505b826001600160a01b0316630825d1fc85606001518e8e602001518e876040518663ffffffff1660e01b8152600401611faf9493929190613173565b60206040518083038160008887f193505050508015611feb575060408051601f3d908101601f19168201909252611fe89181019061315a565b60015b61206857611ff7612fcf565b806308c379a01415612036575061200c612feb565b806120175750612038565b8d60008260405162fa072b60e01b815260040161053693929190613074565b505b60405162fa072b60e01b8152600481018e9052600060248201819052606060448301526064820152608401610536565b801580159061207657504281105b156120c05760405162fa072b60e01b8152600481018f90526000602482015260606044820152600c60648201526b10504c8c88195e1c1a5c995960a21b608482015260a401610536565b95506001600160a01b03811661217c576001600160a01b038316600090815260208190526040902080546001600160701b0316808b111561215f578e600060405162fa072b60e01b81526004016105369291909182526001600160a01b031660208201526060604082018190526017908201527f41413231206469646e2774207061792070726566756e64000000000000000000608082015260a00190565b81546001600160701b031916908b90036001600160701b03161790555b5a850397505050505050955095509592505050565b825160a08101516001600160a01b03811660009081526020819052604081208054606094929391906001600160701b0316878110156122285760405162fa072b60e01b8152600481018c90526001600160a01b038416602482015260606044820152601e60648201527f41413331207061796d6173746572206465706f73697420746f6f206c6f770000608482015260a401610536565b8781038260000160006101000a8154816001600160701b0302191690836001600160701b031602179055506000878560600151039050836001600160a01b031663f465c77e828d8d602001518d6040518563ffffffff1660e01b8152600401612293939291906131ab565b60006040518083038160008887f1935050505080156122d457506040513d6000823e601f3d908101601f191682016040526122d191908101906131d0565b60015b612358576122e0612fcf565b806308c379a0141561231e57506122f5612feb565b806123005750612320565b8c858260405162fa072b60e01b815260040161053693929190613074565b505b60405162fa072b60e01b8152600481018d90526001600160a01b03851660248201526060604482015260006064820152608401610536565b801580159061236657504281105b156123c25760405162fa072b60e01b8152600481018f90526001600160a01b038716602482015260606044820152601660648201527510504ccc881c185e5b585cdd195c88195e1c1a5c995960521b608482015260a401610536565b909d909c509a5050505050505050505050565b60603660006123e8610140850185612c36565b915091508360208184030360405194506020810185016040528085528082602087013750505050919050565b60008183106124235781612425565b825b9392505050565b8115612665578351516001600160a01b0381163b1561249b5760405162fa072b60e01b8152600481018790526000602482015260606044820152601f60648201527f414131302073656e64657220616c726561647920636f6e737472756374656400608482015260a401610536565b6040516309c4ae2d60e41b81526000906001600160a01b037f00000000000000000000000000000000000000000000000000000000000000001690639c4ae2d0906124ee90889088908890600401612e89565b6020604051808303816000875af115801561250d573d6000803e3d6000fd5b505050506040513d601f19601f820116820180604052508101906125319190612ead565b90506001600160a01b03811661258e5760405162fa072b60e01b8152600481018890526000602482015260606044820152601460648201527310504c4c481a5b9a5d10dbd9194819985a5b195960621b608482015260a401610536565b816001600160a01b0316816001600160a01b0316146125fd5760405162fa072b60e01b8152600481018890526000602482015260606044820152602060648201527f4141313220696e6974436f6465206d7573742072657475726e2073656e646572608482015260a401610536565b6001600160a01b0381163b6126625760405162fa072b60e01b8152600481018890526000602482015260606044820152602060648201527f4141313320696e6974436f6465206d757374206372656174652073656e646572608482015260a401610536565b50505b5050505050565b6040518060a001604052806126d160405180610100016040528060006001600160a01b031681526020016000815260200160008152602001600081526020016000815260200160006001600160a01b0316815260200160008152602001600081525090565b8152602001600080191681526020016000815260200160008152602001600081525090565b60006020828403121561270857600080fd5b813563ffffffff8116811461242557600080fd5b60008083601f84011261272e57600080fd5b5081356001600160401b0381111561274557600080fd5b60208301915083602082850101111561275d57600080fd5b9250929050565b634e487b7160e01b600052604160045260246000fd5b60a081018181106001600160401b038211171561279957612799612764565b60405250565b61010081018181106001600160401b038211171561279957612799612764565b601f8201601f191681016001600160401b03811182821017156127e4576127e4612764565b6040525050565b6001600160a01b038116811461280057600080fd5b50565b803561280e816127eb565b919050565b60008060008060008587036101c081121561282d57600080fd5b86356001600160401b038082111561284457600080fd5b6128508a838b0161271c565b9098509650601f19929092019161018091508183121561286f57600080fd5b60405161287b8161277a565b6101008085121561288b57600080fd5b60405194506128998561279f565b6128a560208c01612803565b855260408b0135602086015260608b0135604086015260808b0135606086015260a08b013560808601526128db60c08c01612803565b60a086015260e08b81013560c0870152908b0135908501529283526101208901356020840152610140890135604084015261016089013560608401528189013560808401529194506101a0880135918083111561293757600080fd5b50506129458882890161271c565b969995985093965092949392505050565b60008083601f84011261296857600080fd5b5081356001600160401b0381111561297f57600080fd5b6020830191508360208260051b850101111561275d57600080fd5b6000806000604084860312156129af57600080fd5b83356001600160401b038111156129c557600080fd5b6129d186828701612956565b90945092505060208401356129e5816127eb565b809150509250925092565b60008060408385031215612a0357600080fd5b8235612a0e816127eb565b946020939093013593505050565b600060208284031215612a2e57600080fd5b8135612425816127eb565b600060208284031215612a4b57600080fd5b81356001600160401b03811115612a6157600080fd5b8201610160818503121561242557600080fd5b600080600060408486031215612a8957600080fd5b83356001600160401b03811115612a9f57600080fd5b612aab8682870161271c565b909790965060209590950135949350505050565b634e487b7160e01b600052601160045260246000fd5b60008219821115612ae857612ae8612abf565b500190565b8183823760009101908152919050565b60005b83811015612b18578181015183820152602001612b00565b83811115610b945750506000910152565b60008151808452612b41816020860160208601612afd565b601f01601f19169290920160200192915050565b82815260406020820152600061136d6040830184612b29565b634e487b7160e01b600052603260045260246000fd5b6000823561015e19833603018112612b9b57600080fd5b9190910192915050565b600082821015612bb757612bb7612abf565b500390565b60008235605e19833603018112612b9b57600080fd5b6000808335601e19843603018112612be957600080fd5b8301803591506001600160401b03821115612c0357600080fd5b6020019150600581901b360382131561275d57600080fd5b6000600019821415612c2f57612c2f612abf565b5060010190565b6000808335601e19843603018112612c4d57600080fd5b8301803591506001600160401b03821115612c6757600080fd5b60200191503681900382131561275d57600080fd5b6000808335601e19843603018112612c9357600080fd5b83016020810192503590506001600160401b03811115612cb257600080fd5b80360383131561275d57600080fd5b81835281816020850137506000828201602090810191909152601f909101601f19169091010190565b6000610160612d0984612cfc85612803565b6001600160a01b03169052565b60208301356020850152612d206040840184612c7c565b826040870152612d338387018284612cc1565b92505050612d446060840184612c7c565b8583036060870152612d57838284612cc1565b925050506080830135608085015260a083013560a085015260c083013560c085015260e083013560e0850152610100808401358186015250610120612d9e81850185612c7c565b86840383880152612db0848284612cc1565b9350505050610140612dc481850185612c7c565b86840383880152612dd6848284612cc1565b979650505050505050565b6040808252810184905260006060600586901b830181019083018783805b89811015612e4757868503605f190184528235368c900361015e19018112612e25578283fd5b612e31868d8301612cea565b9550506020938401939290920191600101612dff565b505050508281036020840152612dd6818587612cc1565b60006001600160401b03808316818516808303821115612e8057612e80612abf565b01949350505050565b604081526000612e9d604083018587612cc1565b9050826020830152949350505050565b600060208284031215612ebf57600080fd5b8151612425816127eb565b60008085851115612eda57600080fd5b83861115612ee757600080fd5b5050820193919092039150565b6001600160601b03198135818116916014851015612f1c5780818660140360031b1b83161692505b505092915050565b8681526020808201879052604082018690528451606083015284015160808201526101208101835160a0830152602084015160c0830152825160e08301526020830151610100830152612dd6565b634e487b7160e01b600052602160045260246000fd5b600060038510612fa857634e487b7160e01b600052602160045260246000fd5b84825260606020830152612fbf6060830185612b29565b9050826040830152949350505050565b600060033d1115612fe85760046000803e5060005160e01c5b90565b600060443d1015612ff95790565b6040516003193d81016004833e81513d6001600160401b03816024840111818411171561302857505050505090565b82850191508151818111156130405750505050505090565b843d870101602082850101111561305a5750505050505090565b613069602082860101876127bf565b509095945050505050565b8381526001600160a01b038316602082015260606040820181905260009061309e90830184612b29565b95945050505050565b60006101c08083526130bc8184018789612cc1565b9050845160018060a01b03808251166020860152602082015160408601526040820151606086015260608201516080860152608082015160a08601528060a08301511660c08601525060c081015160e085015260e08101516101008501525060208501516101208401526040850151610140840152606085015161016084015260808501516101808401528281036101a0840152612dd68185612b29565b60006020828403121561316c57600080fd5b5051919050565b6080815260006131866080830187612cea565b6020830195909552506001600160a01b03929092166040830152606090910152919050565b6060815260006131be6060830186612cea565b60208301949094525060400152919050565b600080604083850312156131e357600080fd5b82516001600160401b03808211156131fa57600080fd5b818501915085601f83011261320e57600080fd5b81518181111561322057613220612764565b6040519150613239601f8201601f1916602001836127bf565b80825286602082850101111561324e57600080fd5b61325f816020840160208601612afd565b5060209490940151939593945050505056fea26469706673582212202910bd58cd63e5b67a65c8767fe91b93611eca203d19d8059ee2424eb1acb5a464736f6c634300080c0033608060405234801561001057600080fd5b50610395806100206000396000f3fe608060405234801561001057600080fd5b50600436106100365760003560e01c80639c4ae2d01461003b578063c31e43541461006a575b600080fd5b61004e61004936600461021c565b61007d565b6040516001600160a01b03909116815260200160405180910390f35b61004e6100783660046102aa565b6100ce565b60006100c460008360001b86868080601f0160208091040260200160405190810160405280939291908181526020018383808284376000920191909152506100e492505050565b90505b9392505050565b60006100c78260001b84805190602001206101ea565b60008347101561013b5760405162461bcd60e51b815260206004820152601d60248201527f437265617465323a20696e73756666696369656e742062616c616e636500000060448201526064015b60405180910390fd5b81516101895760405162461bcd60e51b815260206004820181905260248201527f437265617465323a2062797465636f6465206c656e677468206973207a65726f6044820152606401610132565b8282516020840186f590506001600160a01b0381166100c75760405162461bcd60e51b815260206004820152601960248201527f437265617465323a204661696c6564206f6e206465706c6f79000000000000006044820152606401610132565b60006100c78383306000604051836040820152846020820152828152600b8101905060ff815360559020949350505050565b60008060006040848603121561023157600080fd5b833567ffffffffffffffff8082111561024957600080fd5b818601915086601f83011261025d57600080fd5b81358181111561026c57600080fd5b87602082850101111561027e57600080fd5b6020928301989097509590910135949350505050565b634e487b7160e01b600052604160045260246000fd5b600080604083850312156102bd57600080fd5b823567ffffffffffffffff808211156102d557600080fd5b818501915085601f8301126102e957600080fd5b8135818111156102fb576102fb610294565b604051601f8201601f19908116603f0116810190838211818310171561032357610323610294565b8160405282815288602084870101111561033c57600080fd5b82602086016020830137600060209382018401529896909101359650505050505056fea2646970667358221220ea2ccfbad57675f3056e5cbefbcc6fe695d165b3533a14a430de78cab20cc49a64736f6c634300080c0033",
  "linkReferences": {},
  "deployedLinkReferences": {}
}