{
  "_format": "hh-sol-artifact-1",
  "contractName": "SocialRecoveryModule",
  "sourceName": "contracts/gnosis/recovery/SocialRecoveryModule.sol",
  "abi": [
    {
      "inputs": [
        {
          "internalType": "address",
          "name": "_gasReceiver",
          "type": "address"
        }
      ],
      "stateMutability": "nonpayable",
      "type": "constructor"
    },
    {
      "inputs": [
        {
          "internalType": "uint256",
          "name": "gasUsed",
          "type": "uint256"
        }
      ],
      "name": "SimulateDoRecovery",
      "type": "error"
    },
    {
      "anonymous": false,
      "inputs": [
        {
          "indexed": false,
          "internalType": "address",
          "name": "wallet",
          "type": "address"
        },
        {
          "indexed": false,
          "internalType": "address",
          "name": "guardian",
          "type": "address"
        },
        {
          "indexed": false,
          "internalType": "uint256",
          "name": "threshold",
          "type": "uint256"
        }
      ],
      "name": "AddGuardian",
      "type": "event"
    },
    {
      "anonymous": false,
      "inputs": [
        {
          "indexed": false,
          "internalType": "address",
          "name": "wallet",
          "type": "address"
        },
        {
          "indexed": false,
          "internalType": "address[]",
          "name": "guardians",
          "type": "address[]"
        },
        {
          "indexed": false,
          "internalType": "uint256",
          "name": "threshold",
          "type": "uint256"
        }
      ],
      "name": "AddGuardians",
      "type": "event"
    },
    {
      "anonymous": false,
      "inputs": [
        {
          "indexed": false,
          "internalType": "address",
          "name": "wallet",
          "type": "address"
        },
        {
          "indexed": false,
          "internalType": "uint256",
          "name": "threshold",
          "type": "uint256"
        }
      ],
      "name": "ChangeThreshold",
      "type": "event"
    },
    {
      "anonymous": false,
      "inputs": [
        {
          "indexed": false,
          "internalType": "address",
          "name": "wallet",
          "type": "address"
        },
        {
          "indexed": false,
          "internalType": "address",
          "name": "newOwner",
          "type": "address"
        },
        {
          "indexed": false,
          "internalType": "address",
          "name": "payGasToken",
          "type": "address"
        },
        {
          "indexed": false,
          "internalType": "uint256",
          "name": "payGasAmount",
          "type": "uint256"
        }
      ],
      "name": "DoRecovery",
      "type": "event"
    },
    {
      "anonymous": false,
      "inputs": [
        {
          "indexed": true,
          "internalType": "address",
          "name": "previousOwner",
          "type": "address"
        },
        {
          "indexed": true,
          "internalType": "address",
          "name": "newOwner",
          "type": "address"
        }
      ],
      "name": "OwnershipTransferred",
      "type": "event"
    },
    {
      "anonymous": false,
      "inputs": [
        {
          "indexed": false,
          "internalType": "address",
          "name": "wallet",
          "type": "address"
        },
        {
          "indexed": false,
          "internalType": "uint256",
          "name": "threshold",
          "type": "uint256"
        },
        {
          "indexed": false,
          "internalType": "address[]",
          "name": "guardians",
          "type": "address[]"
        }
      ],
      "name": "ResetRecovery",
      "type": "event"
    },
    {
      "anonymous": false,
      "inputs": [
        {
          "indexed": false,
          "internalType": "address",
          "name": "wallet",
          "type": "address"
        },
        {
          "indexed": false,
          "internalType": "address",
          "name": "guardian",
          "type": "address"
        },
        {
          "indexed": false,
          "internalType": "uint256",
          "name": "threshold",
          "type": "uint256"
        }
      ],
      "name": "RevokeGuardian",
      "type": "event"
    },
    {
      "inputs": [
        {
          "internalType": "address",
          "name": "_wallet",
          "type": "address"
        },
        {
          "internalType": "address",
          "name": "_guardian",
          "type": "address"
        },
        {
          "internalType": "uint256",
          "name": "_threshold",
          "type": "uint256"
        }
      ],
      "name": "addGuardian",
      "outputs": [],
      "stateMutability": "nonpayable",
      "type": "function"
    },
    {
      "inputs": [
        {
          "internalType": "address",
          "name": "_wallet",
          "type": "address"
        },
        {
          "internalType": "address[]",
          "name": "_guardians",
          "type": "address[]"
        },
        {
          "internalType": "uint256",
          "name": "_threshold",
          "type": "uint256"
        }
      ],
      "name": "addGuardians",
      "outputs": [],
      "stateMutability": "nonpayable",
      "type": "function"
    },
    {
      "inputs": [
        {
          "internalType": "address",
          "name": "_newGasReceiver",
          "type": "address"
        }
      ],
      "name": "changeGasReceiver",
      "outputs": [],
      "stateMutability": "nonpayable",
      "type": "function"
    },
    {
      "inputs": [
        {
          "internalType": "address",
          "name": "_wallet",
          "type": "address"
        },
        {
          "internalType": "uint256",
          "name": "_threshold",
          "type": "uint256"
        }
      ],
      "name": "changeThreshold",
      "outputs": [],
      "stateMutability": "nonpayable",
      "type": "function"
    },
    {
      "inputs": [
        {
          "internalType": "address",
          "name": "_wallet",
          "type": "address"
        },
        {
          "internalType": "address",
          "name": "_newOwner",
          "type": "address"
        },
        {
          "components": [
            {
              "internalType": "address",
              "name": "signer",
              "type": "address"
            },
            {
              "internalType": "bytes",
              "name": "signature",
              "type": "bytes"
            }
          ],
          "internalType": "struct SocialRecoveryModule.SignatureData[]",
          "name": "_signatureData",
          "type": "tuple[]"
        },
        {
          "components": [
            {
              "internalType": "address",
              "name": "payGasToken",
              "type": "address"
            },
            {
              "internalType": "uint256",
              "name": "payGasAmount",
              "type": "uint256"
            }
          ],
          "internalType": "struct SocialRecoveryModule.PayGasData",
          "name": "_payGasData",
          "type": "tuple"
        }
      ],
      "name": "doRecovery",
      "outputs": [],
      "stateMutability": "nonpayable",
      "type": "function"
    },
    {
      "inputs": [
        {
          "internalType": "address",
          "name": "_wallet",
          "type": "address"
        },
        {
          "internalType": "address",
          "name": "_newOwner",
          "type": "address"
        },
        {
          "internalType": "uint256",
          "name": "_nonce",
          "type": "uint256"
        },
        {
          "components": [
            {
              "internalType": "address",
              "name": "payGasToken",
              "type": "address"
            },
            {
              "internalType": "uint256",
              "name": "payGasAmount",
              "type": "uint256"
            }
          ],
          "internalType": "struct SocialRecoveryModule.PayGasData",
          "name": "_payGasData",
          "type": "tuple"
        }
      ],
      "name": "encodeRecoveryData",
      "outputs": [
        {
          "internalType": "bytes32",
          "name": "",
          "type": "bytes32"
        }
      ],
      "stateMutability": "view",
      "type": "function"
    },
    {
      "inputs": [],
      "name": "gasReceiver",
      "outputs": [
        {
          "internalType": "address",
          "name": "",
          "type": "address"
        }
      ],
      "stateMutability": "view",
      "type": "function"
    },
    {
      "inputs": [],
      "name": "getChainId",
      "outputs": [
        {
          "internalType": "uint256",
          "name": "",
          "type": "uint256"
        }
      ],
      "stateMutability": "view",
      "type": "function"
    },
    {
      "inputs": [
        {
          "internalType": "address",
          "name": "_wallet",
          "type": "address"
        }
      ],
      "name": "getGuardians",
      "outputs": [
        {
          "internalType": "address[]",
          "name": "",
          "type": "address[]"
        }
      ],
      "stateMutability": "view",
      "type": "function"
    },
    {
      "inputs": [
        {
          "internalType": "address",
          "name": "_wallet",
          "type": "address"
        }
      ],
      "name": "guardiansCount",
      "outputs": [
        {
          "internalType": "uint256",
          "name": "",
          "type": "uint256"
        }
      ],
      "stateMutability": "view",
      "type": "function"
    },
    {
      "inputs": [
        {
          "internalType": "address",
          "name": "_wallet",
          "type": "address"
        },
        {
          "internalType": "address",
          "name": "_guardian",
          "type": "address"
        }
      ],
      "name": "isGuardian",
      "outputs": [
        {
          "internalType": "bool",
          "name": "",
          "type": "bool"
        }
      ],
      "stateMutability": "view",
      "type": "function"
    },
    {
      "inputs": [],
      "name": "owner",
      "outputs": [
        {
          "internalType": "address",
          "name": "",
          "type": "address"
        }
      ],
      "stateMutability": "view",
      "type": "function"
    },
    {
      "inputs": [],
      "name": "renounceOwnership",
      "outputs": [],
      "stateMutability": "nonpayable",
      "type": "function"
    },
    {
      "inputs": [
        {
          "internalType": "address",
          "name": "_wallet",
          "type": "address"
        },
        {
          "internalType": "uint256",
          "name": "_threshold",
          "type": "uint256"
        },
        {
          "internalType": "address[]",
          "name": "_orderedGuardianWallet",
          "type": "address[]"
        }
      ],
      "name": "resetGuardians",
      "outputs": [],
      "stateMutability": "nonpayable",
      "type": "function"
    },
    {
      "inputs": [
        {
          "internalType": "address",
          "name": "_wallet",
          "type": "address"
        },
        {
          "internalType": "address",
          "name": "_prevGuardian",
          "type": "address"
        },
        {
          "internalType": "address",
          "name": "_guardian",
          "type": "address"
        },
        {
          "internalType": "uint256",
          "name": "_threshold",
          "type": "uint256"
        }
      ],
      "name": "revokeGuardian",
      "outputs": [],
      "stateMutability": "nonpayable",
      "type": "function"
    },
    {
      "inputs": [
        {
          "internalType": "address",
          "name": "_wallet",
          "type": "address"
        },
        {
          "internalType": "address",
          "name": "_newOwner",
          "type": "address"
        },
        {
          "components": [
            {
              "internalType": "address",
              "name": "signer",
              "type": "address"
            },
            {
              "internalType": "bytes",
              "name": "signature",
              "type": "bytes"
            }
          ],
          "internalType": "struct SocialRecoveryModule.SignatureData[]",
          "name": "_signatureData",
          "type": "tuple[]"
        },
        {
          "components": [
            {
              "internalType": "address",
              "name": "payGasToken",
              "type": "address"
            },
            {
              "internalType": "uint256",
              "name": "payGasAmount",
              "type": "uint256"
            }
          ],
          "internalType": "struct SocialRecoveryModule.PayGasData",
          "name": "_payGasData",
          "type": "tuple"
        }
      ],
      "name": "simulateDoRecovery",
      "outputs": [],
      "stateMutability": "nonpayable",
      "type": "function"
    },
    {
      "inputs": [
        {
          "internalType": "address",
          "name": "_wallet",
          "type": "address"
        }
      ],
      "name": "threshold",
      "outputs": [
        {
          "internalType": "uint256",
          "name": "",
          "type": "uint256"
        }
      ],
      "stateMutability": "view",
      "type": "function"
    },
    {
      "inputs": [
        {
          "internalType": "address",
          "name": "newOwner",
          "type": "address"
        }
      ],
      "name": "transferOwnership",
      "outputs": [],
      "stateMutability": "nonpayable",
      "type": "function"
    },
    {
      "inputs": [
        {
          "internalType": "address",
          "name": "",
          "type": "address"
        }
      ],
      "name": "walletsNonces",
      "outputs": [
        {
          "internalType": "uint256",
          "name": "",
          "type": "uint256"
        }
      ],
      "stateMutability": "view",
      "type": "function"
    }
  ],
  "bytecode": "0x60806040523480156200001157600080fd5b5060405162002a4e38038062002a4e8339810160408190526200003491620000b7565b6200003f3362000065565b600280546001600160a01b0319166001600160a01b0392909216919091179055620000e9565b600180546001600160a01b038381166001600160a01b0319831681179093556040519116919082907f8be0079c531659141344cd1fd0a4f28419497f9722a3daafe3b4186f6b6457e090600090a35050565b600060208284031215620000ca57600080fd5b81516001600160a01b0381168114620000e257600080fd5b9392505050565b61295580620000f96000396000f3fe608060405234801561001057600080fd5b50600436106101215760003560e01c80637ffc0f90116100ad578063c86ec2bf11610071578063c86ec2bf14610269578063d4ee973414610295578063dabf0fd3146102b8578063f18858ab146102cb578063f2fde38b146102eb57600080fd5b80637ffc0f90146101db57806380d14b4a146101ee5780638da5cb5b14610219578063aef112691461022a578063c026e7ee1461023d57600080fd5b80634882af77116100f45780634882af771461018757806357cfebbc1461019a57806360e67b43146101ad57806361c276e1146101c0578063715018a6146101d357600080fd5b8063256674a01461012657806326b3716c1461013b578063328c0bc21461016e5780633408e47014610181575b600080fd5b610139610134366004612174565b6102fe565b005b61015b610149366004612174565b60036020526000908152604090205481565b6040519081526020015b60405180910390f35b61013961017c366004612191565b610328565b4661015b565b610139610195366004612217565b610446565b6101396101a8366004612273565b610592565b6101396101bb36600461229f565b610693565b6101396101ce3660046122f0565b610872565b610139610ad0565b6101396101e9366004612364565b610ae4565b600254610201906001600160a01b031681565b6040516001600160a01b039091168152602001610165565b6001546001600160a01b0316610201565b61015b6102383660046123df565b610bb0565b61015b61024b366004612174565b6001600160a01b031660009081526020819052604090206001015490565b61015b610277366004612174565b6001600160a01b031660009081526020819052604090206002015490565b6102a86102a3366004612431565b610c25565b6040519015158152602001610165565b6101396102c6366004612364565b610c6c565b6102de6102d9366004612174565b610d09565b604051610165919061246a565b6101396102f9366004612174565b610e19565b610306610e92565b600280546001600160a01b0319166001600160a01b0392909216919091179055565b82336001600160a01b0382161461035a5760405162461bcd60e51b8152600401610351906124b7565b60405180910390fd5b604051632d9ad53d60e01b815230600482015284906001600160a01b03821690632d9ad53d90602401602060405180830381865afa1580156103a0573d6000803e3d6000fd5b505050506040513d601f19601f820116820180604052508101906103c491906124e1565b6103e05760405162461bcd60e51b815260040161035190612503565b6103ea8585610eec565b6103f48584611146565b604080516001600160a01b038088168252861660208201529081018490527f9faaa1eaa48910ff30e6076ae41bf8094c777a3470d6d64cc8adf5853f5d33539060600160405180910390a15050505050565b83336001600160a01b0382161461046f5760405162461bcd60e51b8152600401610351906124b7565b604051632d9ad53d60e01b815230600482015285906001600160a01b03821690632d9ad53d90602401602060405180830381865afa1580156104b5573d6000803e3d6000fd5b505050506040513d601f19601f820116820180604052508101906104d991906124e1565b6104f55760405162461bcd60e51b815260040161035190612503565b60005b8481101561054257610530878787848181106105165761051661253a565b905060200201602081019061052b9190612174565b610eec565b8061053a81612566565b9150506104f8565b5061054d8684611146565b7f68192495d4c752b20f6080180ddb32eefd8fd60e627db91844b9ff37752740f88686868660405161058294939291906125ca565b60405180910390a1505050505050565b81336001600160a01b038216146105bb5760405162461bcd60e51b8152600401610351906124b7565b604051632d9ad53d60e01b815230600482015283906001600160a01b03821690632d9ad53d90602401602060405180830381865afa158015610601573d6000803e3d6000fd5b505050506040513d601f19601f8201168201806040525081019061062591906124e1565b6106415760405162461bcd60e51b815260040161035190612503565b61064b8484611146565b604080516001600160a01b0386168152602081018590527f253319f6e631a0a64ed9302337190b1bb0667f27eb5e12ce8d58d01defd37478910160405180910390a150505050565b83336001600160a01b038216146106bc5760405162461bcd60e51b8152600401610351906124b7565b604051632d9ad53d60e01b815230600482015285906001600160a01b03821690632d9ad53d90602401602060405180830381865afa158015610702573d6000803e3d6000fd5b505050506040513d601f19601f8201168201806040525081019061072691906124e1565b6107425760405162461bcd60e51b815260040161035190612503565b61074c8685610c25565b6107985760405162461bcd60e51b815260206004820152601d60248201527f534d3a206d757374206265206578697374696e6720677561726469616e0000006044820152606401610351565b6001600160a01b0386166000908152602081905260408120600101549050836107c2600183612600565b10156108085760405162461bcd60e51b815260206004820152601560248201527414d34e881a5b9d985b1a59081d1a1c995cda1bdb19605a1b6044820152606401610351565b61081387878761128b565b61081d8785611146565b604080516001600160a01b03808a168252871660208201529081018590527f0dd58c3290864df113a6bd86d87161d7edd1de9975b76ca19c091671f3dead6b906060015b60405180910390a150505050505050565b83336001600160a01b0382161461089b5760405162461bcd60e51b8152600401610351906124b7565b604051632d9ad53d60e01b815230600482015285906001600160a01b03821690632d9ad53d90602401602060405180830381865afa1580156108e1573d6000803e3d6000fd5b505050506040513d601f19601f8201168201806040525081019061090591906124e1565b6109215760405162461bcd60e51b815260040161035190612503565b600085116109655760405162461bcd60e51b815260206004820152601160248201527014d34e88189859081d1a1c995cda1bdb19607a1b6044820152606401610351565b848310156109b55760405162461bcd60e51b815260206004820152601760248201527f534d3a2062616420677561726469616e2077616c6c65740000000000000000006044820152606401610351565b6000805b84811015610a5357816001600160a01b03168686838181106109dd576109dd61253a565b90506020020160208101906109f29190612174565b6001600160a01b031611610a185760405162461bcd60e51b815260040161035190612617565b858582818110610a2a57610a2a61253a565b9050602002016020810190610a3f9190612174565b915080610a4b81612566565b9150506109b9565b50610a5d876113ce565b60005b84811015610a9057610a7e888787848181106105165761051661253a565b80610a8881612566565b915050610a60565b50610a9b8787611146565b7f0f8b03766c19ce2fd7b6e7136e107bf9954bf7700d0589c4702c8c67c626af8c87878787604051610861949392919061265d565b610ad8610e92565b610ae26000611418565b565b60005a604051632d9ad53d60e01b81523060048201529091506001600160a01b03871690632d9ad53d90602401602060405180830381865afa158015610b2e573d6000803e3d6000fd5b505050506040513d601f19601f82011682018060405250810190610b5291906124e1565b610b6e5760405162461bcd60e51b815260040161035190612503565b610b7d8686868686600161146a565b5a610b889082612600565b610b949061520861268f565b604051632f5dfdf360e01b815260040161035191815260200190565b6000848484610bc26020860186612174565b602086013546604080516001600160a01b0397881660208201529587169086015260608501939093529316608083015260a082019290925260c081019190915260e001604051602081830303815290604052805190602001209050949350505050565b60006001600160a01b038216600114801590610c6557506001600160a01b0383811660009081526020818152604080832086851684529091529020541615155b9392505050565b604051632d9ad53d60e01b815230600482015285906001600160a01b03821690632d9ad53d90602401602060405180830381865afa158015610cb2573d6000803e3d6000fd5b505050506040513d601f19601f82011682018060405250810190610cd691906124e1565b610cf25760405162461bcd60e51b815260040161035190612503565b610d018686868686600061146a565b505050505050565b6001600160a01b0381166000908152602081905260409020600181015460609190610d44575050604080516000815260208101909152919050565b6000816001015467ffffffffffffffff811115610d6357610d636126a7565b604051908082528060200260200182016040528015610d8c578160200160208202803683370190505b506001600090815260208490526040812054919250906001600160a01b03165b6001600160a01b038116600114610e0f5780838381518110610dd057610dd061253a565b6001600160a01b039283166020918202929092018101919091529181166000908152918590526040909120541681610e0781612566565b925050610dac565b5090949350505050565b610e21610e92565b6001600160a01b038116610e865760405162461bcd60e51b815260206004820152602660248201527f4f776e61626c653a206e6577206f776e657220697320746865207a65726f206160448201526564647265737360d01b6064820152608401610351565b610e8f81611418565b50565b6001546001600160a01b03163314610ae25760405162461bcd60e51b815260206004820181905260248201527f4f776e61626c653a2063616c6c6572206973206e6f7420746865206f776e65726044820152606401610351565b6001600160a01b03811615801590610f0e57506001600160a01b038116600114155b8015610f2c5750816001600160a01b0316816001600160a01b031614155b610f6f5760405162461bcd60e51b815260206004820152601460248201527323a99d1034b73b30b634b21033bab0b93234b0b760611b6044820152606401610351565b6040516317aa5fb760e11b81526001600160a01b038281166004830152831690632f54bf6e90602401602060405180830381865afa158015610fb5573d6000803e3d6000fd5b505050506040513d601f19601f82011682018060405250810190610fd991906124e1565b156110265760405162461bcd60e51b815260206004820152601f60248201527f47533a20677561726469616e2063616e6e6f7420626520616e206f776e6572006044820152606401610351565b6001600160a01b0380831660009081526020818152604080832085851684529182905290912054909116156110965760405162461bcd60e51b815260206004820152601660248201527523a99d10323ab83634b1b0ba329033bab0b93234b0b760511b6044820152606401610351565b60018101546110e157600160008181526020839052604080822080546001600160a01b0387166001600160a01b0319918216811790925590835291208054909116909117905561112a565b600160008181526020839052604080822080546001600160a01b038781168086529385208054919092166001600160a01b03199182161790915593909252815490921690911790555b60018101805490600061113c83612566565b9190505550505050565b6001600160a01b038216600090815260208190526040902060018101548211156111d85760405162461bcd60e51b815260206004820152603760248201527f47533a207468726573686f6c64206d757374206265206c6f776572206f72206560448201527f7175616c20746f20677561726469616e7320636f756e740000000000000000006064820152608401610351565b600181015461123457811561122f5760405162461bcd60e51b815260206004820152601760248201527f47533a207468726573686f6c64206d75737420626520300000000000000000006044820152606401610351565b611284565b600082116112845760405162461bcd60e51b815260206004820152601960248201527f47533a207468726573686f6c642063616e6e6f742062652030000000000000006044820152606401610351565b6002015550565b6001600160a01b038084166000908152602081905260409020908216158015906112bf57506001600160a01b038216600114155b6113025760405162461bcd60e51b815260206004820152601460248201527323a99d1034b73b30b634b21033bab0b93234b0b760611b6044820152606401610351565b6001600160a01b0383811660009081526020839052604090205481169083161461136e5760405162461bcd60e51b815260206004820152601d60248201527f47533a20696e76616c69642070726576696f757320677561726469616e0000006044820152606401610351565b6001600160a01b03828116600081815260208490526040808220805488861684529183208054929095166001600160a01b0319928316179094559181528254909116909155600182018054916113c3836126bd565b919050555050505050565b6001600160a01b0381166000908152602081905260409020600181015415611414576001600160a01b038216600090815260208190526040812060018101829055600201555b5050565b600180546001600160a01b038381166001600160a01b0319831681179093556040519116919082907f8be0079c531659141344cd1fd0a4f28419497f9722a3daafe3b4186f6b6457e090600090a35050565b611474868361181a565b61147e8686610c25565b156114cb5760405162461bcd60e51b815260206004820181905260248201527f534d3a206e6577206f776e65722063616e6e6f7420626520677561726469616e6044820152606401610351565b6001600160a01b0386166000908152600360205260408120546114f2908890889086610bb0565b9050600061154d826040517f19457468657265756d205369676e6564204d6573736167653a0a3332000000006020820152603c8101829052600090605c01604051602081830303815290604052805190602001209050919050565b90506000611573896001600160a01b031660009081526020819052604090206002015490565b9050600081116115bb5760405162461bcd60e51b8152602060048201526013602482015272534d3a20656d70747920677561726469616e7360681b6044820152606401610351565b808610156116165760405162461bcd60e51b815260206004820152602260248201527f534d3a207369676e617475726573206c657373207468616e207468726573686f6044820152611b1960f21b6064820152608401610351565b6000805b8781101561176657368989838181106116355761163561253a565b905060200281019061164791906126d4565b90506001600160a01b0383166116606020830183612174565b6001600160a01b0316116116865760405162461bcd60e51b815260040161035190612617565b86156116ea576116e58c8661169e6020850185612174565b6116ab60208601866126f4565b8080601f01602080910402602001604051908101604052809392919081815260200183838082843760009201919091525061196192505050565b611743565b6117438c866116fc6020850185612174565b61170960208601866126f4565b8080601f01602080910402602001604051908101604052809392919081815260200183838082843760009201919091525061197e92505050565b6117506020820182612174565b925050808061175e90612566565b91505061161a565b506117718a8a611a31565b61177b8a87611d95565b6001600160a01b038a16600090815260036020526040812080549161179f83612566565b909155507f15f249889c1856027d48299e9f582b24bff9529eb475290690f00f11cc30a67190508a8a6117d560208a018a612174565b604080516001600160a01b039485168152928416602084810191909152939091169082015290880135606082015260800160405180910390a150505050505050505050565b60006118296020830183612174565b6001600160a01b03161415611896578060200135826001600160a01b03163110156114145760405162461bcd60e51b815260206004820152601a60248201527f534d3a20696e73756666696369656e742067617320746f6b656e0000000000006044820152606401610351565b602081018035906118a79083612174565b6040516370a0823160e01b81526001600160a01b03858116600483015291909116906370a0823190602401602060405180830381865afa1580156118ef573d6000803e3d6000fd5b505050506040513d601f19601f82011682018060405250810190611913919061273b565b10156114145760405162461bcd60e51b815260206004820152601a60248201527f534d3a20696e73756666696369656e742067617320746f6b656e0000000000006044820152606401610351565b61196b8483610c25565b50611977828483611f13565b5050505050565b6119888483610c25565b6119d45760405162461bcd60e51b815260206004820152601960248201527f534d3a207369676e6572206e6f74206120677561726469616e000000000000006044820152606401610351565b6119df828483611f13565b611a2b5760405162461bcd60e51b815260206004820152601e60248201527f534d3a20696e76616c696420677561726469616e207369676e617475726500006044820152606401610351565b50505050565b60008290506000816001600160a01b031663a0e67e2b6040518163ffffffff1660e01b8152600401600060405180830381865afa158015611a76573d6000803e3d6000fd5b505050506040513d6000823e601f3d908101601f19168201604052611a9e9190810190612764565b905060008060018351611ab19190612600565b90505b8015611c21576001600160a01b03841663468721a787600086611ad8600187612600565b81518110611ae857611ae861253a565b6020026020010151878681518110611b0257611b0261253a565b60209081029190910101516040516001600160a01b039283166024820152911660448201526001606482015260840160408051601f198184030181529181526020820180516001600160e01b031663f8dc5dd960e01b179052516001600160e01b031960e086901b168152611b7f939291906000906004016128ad565b6020604051808303816000875af1158015611b9e573d6000803e3d6000fd5b505050506040513d601f19601f82011682018060405250810190611bc291906124e1565b915081611c115760405162461bcd60e51b815260206004820152601860248201527f534d3a206f776e65722072656d6f76616c206661696c656400000000000000006044820152606401610351565b611c1a816126bd565b9050611ab4565b5081600081518110611c3557611c3561253a565b60200260200101516001600160a01b0316846001600160a01b03161415611c5d575050505050565b826001600160a01b031663468721a7866000600186600081518110611c8457611c8461253a565b60209081029190910101516040516001600160a01b0392831660248201529082166044820152908916606482015260840160408051601f198184030181529181526020820180516001600160e01b031663e318b52b60e01b179052516001600160e01b031960e086901b168152611d03939291906000906004016128ad565b6020604051808303816000875af1158015611d22573d6000803e3d6000fd5b505050506040513d601f19601f82011682018060405250810190611d4691906124e1565b9050806119775760405162461bcd60e51b815260206004820152601c60248201527f534d3a206f776e6572207265706c6163656d656e74206661696c6564000000006044820152606401610351565b60408051602080820190925260008082528492909182918290611dba90870187612174565b6001600160a01b03161415611de3576002546001600160a01b0316925060208501359150611e43565b611df06020860186612174565b6002546040516001600160a01b0390911660248201526020870135604482015290935060640160408051601f198184030181529190526020810180516001600160e01b0316636dbbda0d60e01b17905290505b60405163468721a760e01b81526000906001600160a01b0386169063468721a790611e789087908790879087906004016128ad565b6020604051808303816000875af1158015611e97573d6000803e3d6000fd5b505050506040513d601f19601f82011682018060405250810190611ebb91906124e1565b905080611f0a5760405162461bcd60e51b815260206004820152601d60248201527f534d3a207472616e736665722067617320746f6b656e206661696c65640000006044820152606401610351565b50505050505050565b6000806000611f228585612055565b90925090506000816004811115611f3b57611f3b612875565b148015611f595750856001600160a01b0316826001600160a01b0316145b15611f6957600192505050610c65565b600080876001600160a01b0316631626ba7e60e01b8888604051602401611f919291906128ec565b60408051601f198184030181529181526020820180516001600160e01b03166001600160e01b0319909416939093179092529051611fcf919061290d565b600060405180830381855afa9150503d806000811461200a576040519150601f19603f3d011682016040523d82523d6000602084013e61200f565b606091505b5091509150818015612022575080516020145b801561204957508051630b135d3f60e11b90612047908301602090810190840161273b565b145b98975050505050505050565b60008082516041141561208c5760208301516040840151606085015160001a6120808782858561209b565b94509450505050612094565b506000905060025b9250929050565b6000807f7fffffffffffffffffffffffffffffff5d576e7357a4501ddfe92f46681b20a08311156120d25750600090506003612156565b6040805160008082526020820180845289905260ff881692820192909252606081018690526080810185905260019060a0016020604051602081039080840390855afa158015612126573d6000803e3d6000fd5b5050604051601f1901519150506001600160a01b03811661214f57600060019250925050612156565b9150600090505b94509492505050565b6001600160a01b0381168114610e8f57600080fd5b60006020828403121561218657600080fd5b8135610c658161215f565b6000806000606084860312156121a657600080fd5b83356121b18161215f565b925060208401356121c18161215f565b929592945050506040919091013590565b60008083601f8401126121e457600080fd5b50813567ffffffffffffffff8111156121fc57600080fd5b6020830191508360208260051b850101111561209457600080fd5b6000806000806060858703121561222d57600080fd5b84356122388161215f565b9350602085013567ffffffffffffffff81111561225457600080fd5b612260878288016121d2565b9598909750949560400135949350505050565b6000806040838503121561228657600080fd5b82356122918161215f565b946020939093013593505050565b600080600080608085870312156122b557600080fd5b84356122c08161215f565b935060208501356122d08161215f565b925060408501356122e08161215f565b9396929550929360600135925050565b6000806000806060858703121561230657600080fd5b84356123118161215f565b935060208501359250604085013567ffffffffffffffff81111561233457600080fd5b612340878288016121d2565b95989497509550505050565b60006040828403121561235e57600080fd5b50919050565b600080600080600060a0868803121561237c57600080fd5b85356123878161215f565b945060208601356123978161215f565b9350604086013567ffffffffffffffff8111156123b357600080fd5b6123bf888289016121d2565b90945092506123d39050876060880161234c565b90509295509295909350565b60008060008060a085870312156123f557600080fd5b84356124008161215f565b935060208501356124108161215f565b925060408501359150612426866060870161234c565b905092959194509250565b6000806040838503121561244457600080fd5b823561244f8161215f565b9150602083013561245f8161215f565b809150509250929050565b6020808252825182820181905260009190848201906040850190845b818110156124ab5783516001600160a01b031683529284019291840191600101612486565b50909695505050505050565b60208082526010908201526f14d34e881d5b985d5d1a1bdc9a5e995960821b604082015260600190565b6000602082840312156124f357600080fd5b81518015158114610c6557600080fd5b6020808252601e908201527f534d3a2074686973206d6f64756c65206973206e6f7420656e61626c65640000604082015260600190565b634e487b7160e01b600052603260045260246000fd5b634e487b7160e01b600052601160045260246000fd5b600060001982141561257a5761257a612550565b5060010190565b8183526000602080850194508260005b858110156125bf5781356125a48161215f565b6001600160a01b031687529582019590820190600101612591565b509495945050505050565b6001600160a01b03851681526060602082018190526000906125ef9083018587612581565b905082604083015295945050505050565b60008282101561261257612612612550565b500390565b60208082526026908201527f534d3a206475706c6963617465207369676e6572732f696e76616c6964206f72604082015265646572696e6760d01b606082015260800190565b60018060a01b0385168152836020820152606060408201526000612685606083018486612581565b9695505050505050565b600082198211156126a2576126a2612550565b500190565b634e487b7160e01b600052604160045260246000fd5b6000816126cc576126cc612550565b506000190190565b60008235603e198336030181126126ea57600080fd5b9190910192915050565b6000808335601e1984360301811261270b57600080fd5b83018035915067ffffffffffffffff82111561272657600080fd5b60200191503681900382131561209457600080fd5b60006020828403121561274d57600080fd5b5051919050565b805161275f8161215f565b919050565b6000602080838503121561277757600080fd5b825167ffffffffffffffff8082111561278f57600080fd5b818501915085601f8301126127a357600080fd5b8151818111156127b5576127b56126a7565b8060051b604051601f19603f830116810181811085821117156127da576127da6126a7565b6040529182528482019250838101850191888311156127f857600080fd5b938501935b828510156120495761280e85612754565b845293850193928501926127fd565b60005b83811015612838578181015183820152602001612820565b83811115611a2b5750506000910152565b6000815180845261286181602086016020860161281d565b601f01601f19169290920160200192915050565b634e487b7160e01b600052602160045260246000fd5b600281106128a957634e487b7160e01b600052602160045260246000fd5b9052565b60018060a01b03851681528360208201526080604082015260006128d46080830185612849565b90506128e3606083018461288b565b95945050505050565b8281526040602082015260006129056040830184612849565b949350505050565b600082516126ea81846020870161281d56fea26469706673582212204a763c932f59b35d550d8d93c553ba02b887488e4fd2e31fc2c8bb04442ea0f864736f6c634300080c0033",
  "linkReferences": {},
  "deployedLinkReferences": {}
}