{
  "_format": "hh-sol-artifact-1",
  "contractName": "SocialRecoveryModule",
  "sourceName": "contracts/gnosis/recovery/SocialRecoveryModule.sol",
  "abi": [
    {
      "inputs": [
        {
          "internalType": "address",
          "name": "_gasReceiver",
          "type": "address"
        }
      ],
      "stateMutability": "nonpayable",
      "type": "constructor"
    },
    {
      "anonymous": false,
      "inputs": [
        {
          "indexed": false,
          "internalType": "address",
          "name": "wallet",
          "type": "address"
        },
        {
          "indexed": false,
          "internalType": "address",
          "name": "guardian",
          "type": "address"
        },
        {
          "indexed": false,
          "internalType": "uint256",
          "name": "threshold",
          "type": "uint256"
        }
      ],
      "name": "AddGuardian",
      "type": "event"
    },
    {
      "anonymous": false,
      "inputs": [
        {
          "indexed": false,
          "internalType": "address",
          "name": "wallet",
          "type": "address"
        },
        {
          "indexed": false,
          "internalType": "uint256",
          "name": "threshold",
          "type": "uint256"
        }
      ],
      "name": "ChangeThreshold",
      "type": "event"
    },
    {
      "anonymous": false,
      "inputs": [
        {
          "indexed": false,
          "internalType": "address",
          "name": "wallet",
          "type": "address"
        },
        {
          "indexed": false,
          "internalType": "address",
          "name": "newOwner",
          "type": "address"
        },
        {
          "indexed": false,
          "internalType": "address",
          "name": "payGasToken",
          "type": "address"
        },
        {
          "indexed": false,
          "internalType": "uint256",
          "name": "payGasAmount",
          "type": "uint256"
        }
      ],
      "name": "DoRecovery",
      "type": "event"
    },
    {
      "anonymous": false,
      "inputs": [
        {
          "indexed": false,
          "internalType": "address",
          "name": "wallet",
          "type": "address"
        },
        {
          "indexed": false,
          "internalType": "uint256",
          "name": "threshold",
          "type": "uint256"
        },
        {
          "indexed": false,
          "internalType": "address[]",
          "name": "guardians",
          "type": "address[]"
        }
      ],
      "name": "InitRecovery",
      "type": "event"
    },
    {
      "anonymous": false,
      "inputs": [
        {
          "indexed": true,
          "internalType": "address",
          "name": "previousOwner",
          "type": "address"
        },
        {
          "indexed": true,
          "internalType": "address",
          "name": "newOwner",
          "type": "address"
        }
      ],
      "name": "OwnershipTransferred",
      "type": "event"
    },
    {
      "anonymous": false,
      "inputs": [
        {
          "indexed": false,
          "internalType": "address",
          "name": "wallet",
          "type": "address"
        },
        {
          "indexed": false,
          "internalType": "address",
          "name": "guardian",
          "type": "address"
        },
        {
          "indexed": false,
          "internalType": "uint256",
          "name": "threshold",
          "type": "uint256"
        }
      ],
      "name": "RevokeGuardian",
      "type": "event"
    },
    {
      "inputs": [
        {
          "internalType": "address",
          "name": "_wallet",
          "type": "address"
        },
        {
          "internalType": "address",
          "name": "_guardian",
          "type": "address"
        },
        {
          "internalType": "uint256",
          "name": "_threshold",
          "type": "uint256"
        }
      ],
      "name": "addGuardian",
      "outputs": [],
      "stateMutability": "nonpayable",
      "type": "function"
    },
    {
      "inputs": [
        {
          "internalType": "address",
          "name": "_newGasReceiver",
          "type": "address"
        }
      ],
      "name": "changeGasReceiver",
      "outputs": [],
      "stateMutability": "nonpayable",
      "type": "function"
    },
    {
      "inputs": [
        {
          "internalType": "address",
          "name": "_wallet",
          "type": "address"
        },
        {
          "internalType": "uint256",
          "name": "_threshold",
          "type": "uint256"
        }
      ],
      "name": "changeThreshold",
      "outputs": [],
      "stateMutability": "nonpayable",
      "type": "function"
    },
    {
      "inputs": [
        {
          "internalType": "address",
          "name": "_wallet",
          "type": "address"
        },
        {
          "internalType": "address",
          "name": "_newOwner",
          "type": "address"
        },
        {
          "components": [
            {
              "internalType": "address",
              "name": "signer",
              "type": "address"
            },
            {
              "internalType": "bytes",
              "name": "signature",
              "type": "bytes"
            }
          ],
          "internalType": "struct SocialRecoveryModule.SignatureData[]",
          "name": "_signatureData",
          "type": "tuple[]"
        },
        {
          "components": [
            {
              "internalType": "address",
              "name": "payGasToken",
              "type": "address"
            },
            {
              "internalType": "uint256",
              "name": "payGasAmount",
              "type": "uint256"
            }
          ],
          "internalType": "struct SocialRecoveryModule.PayGasData",
          "name": "_payGasData",
          "type": "tuple"
        }
      ],
      "name": "doRecovery",
      "outputs": [],
      "stateMutability": "nonpayable",
      "type": "function"
    },
    {
      "inputs": [
        {
          "internalType": "address",
          "name": "_wallet",
          "type": "address"
        },
        {
          "internalType": "address",
          "name": "_newOwner",
          "type": "address"
        },
        {
          "internalType": "uint256",
          "name": "_nonce",
          "type": "uint256"
        },
        {
          "components": [
            {
              "internalType": "address",
              "name": "payGasToken",
              "type": "address"
            },
            {
              "internalType": "uint256",
              "name": "payGasAmount",
              "type": "uint256"
            }
          ],
          "internalType": "struct SocialRecoveryModule.PayGasData",
          "name": "_payGasData",
          "type": "tuple"
        }
      ],
      "name": "encodeRecoveryData",
      "outputs": [
        {
          "internalType": "bytes32",
          "name": "",
          "type": "bytes32"
        }
      ],
      "stateMutability": "view",
      "type": "function"
    },
    {
      "inputs": [],
      "name": "gasReceiver",
      "outputs": [
        {
          "internalType": "address",
          "name": "",
          "type": "address"
        }
      ],
      "stateMutability": "view",
      "type": "function"
    },
    {
      "inputs": [],
      "name": "getChainId",
      "outputs": [
        {
          "internalType": "uint256",
          "name": "",
          "type": "uint256"
        }
      ],
      "stateMutability": "view",
      "type": "function"
    },
    {
      "inputs": [
        {
          "internalType": "address",
          "name": "_wallet",
          "type": "address"
        }
      ],
      "name": "getGuardians",
      "outputs": [
        {
          "internalType": "address[]",
          "name": "",
          "type": "address[]"
        }
      ],
      "stateMutability": "view",
      "type": "function"
    },
    {
      "inputs": [
        {
          "internalType": "address",
          "name": "_wallet",
          "type": "address"
        }
      ],
      "name": "guardiansCount",
      "outputs": [
        {
          "internalType": "uint256",
          "name": "",
          "type": "uint256"
        }
      ],
      "stateMutability": "view",
      "type": "function"
    },
    {
      "inputs": [
        {
          "internalType": "address",
          "name": "_wallet",
          "type": "address"
        },
        {
          "internalType": "uint256",
          "name": "_threshold",
          "type": "uint256"
        },
        {
          "internalType": "address[]",
          "name": "_orderedGuardianWallet",
          "type": "address[]"
        }
      ],
      "name": "initRecovery",
      "outputs": [],
      "stateMutability": "nonpayable",
      "type": "function"
    },
    {
      "inputs": [
        {
          "internalType": "address",
          "name": "_wallet",
          "type": "address"
        },
        {
          "internalType": "address",
          "name": "_guardian",
          "type": "address"
        }
      ],
      "name": "isGuardian",
      "outputs": [
        {
          "internalType": "bool",
          "name": "",
          "type": "bool"
        }
      ],
      "stateMutability": "view",
      "type": "function"
    },
    {
      "inputs": [],
      "name": "owner",
      "outputs": [
        {
          "internalType": "address",
          "name": "",
          "type": "address"
        }
      ],
      "stateMutability": "view",
      "type": "function"
    },
    {
      "inputs": [],
      "name": "renounceOwnership",
      "outputs": [],
      "stateMutability": "nonpayable",
      "type": "function"
    },
    {
      "inputs": [
        {
          "internalType": "address",
          "name": "_wallet",
          "type": "address"
        },
        {
          "internalType": "address",
          "name": "_prevGuardian",
          "type": "address"
        },
        {
          "internalType": "address",
          "name": "_guardian",
          "type": "address"
        },
        {
          "internalType": "uint256",
          "name": "_threshold",
          "type": "uint256"
        }
      ],
      "name": "revokeGuardian",
      "outputs": [],
      "stateMutability": "nonpayable",
      "type": "function"
    },
    {
      "inputs": [
        {
          "internalType": "address",
          "name": "_wallet",
          "type": "address"
        }
      ],
      "name": "threshold",
      "outputs": [
        {
          "internalType": "uint256",
          "name": "",
          "type": "uint256"
        }
      ],
      "stateMutability": "view",
      "type": "function"
    },
    {
      "inputs": [
        {
          "internalType": "address",
          "name": "newOwner",
          "type": "address"
        }
      ],
      "name": "transferOwnership",
      "outputs": [],
      "stateMutability": "nonpayable",
      "type": "function"
    },
    {
      "inputs": [
        {
          "internalType": "address",
          "name": "_wallet",
          "type": "address"
        },
        {
          "internalType": "bytes32",
          "name": "_signHash",
          "type": "bytes32"
        },
        {
          "internalType": "address",
          "name": "_signer",
          "type": "address"
        },
        {
          "internalType": "bytes",
          "name": "_signature",
          "type": "bytes"
        }
      ],
      "name": "validateGuardianSignature",
      "outputs": [],
      "stateMutability": "view",
      "type": "function"
    },
    {
      "inputs": [
        {
          "internalType": "address",
          "name": "",
          "type": "address"
        }
      ],
      "name": "walletsInit",
      "outputs": [
        {
          "internalType": "bool",
          "name": "",
          "type": "bool"
        }
      ],
      "stateMutability": "view",
      "type": "function"
    },
    {
      "inputs": [
        {
          "internalType": "address",
          "name": "",
          "type": "address"
        }
      ],
      "name": "walletsNonces",
      "outputs": [
        {
          "internalType": "uint256",
          "name": "",
          "type": "uint256"
        }
      ],
      "stateMutability": "view",
      "type": "function"
    }
  ],
  "bytecode": "0x60806040523480156200001157600080fd5b506040516200281d3803806200281d8339810160408190526200003491620000b7565b6200003f3362000065565b600280546001600160a01b0319166001600160a01b0392909216919091179055620000e9565b600180546001600160a01b038381166001600160a01b0319831681179093556040519116919082907f8be0079c531659141344cd1fd0a4f28419497f9722a3daafe3b4186f6b6457e090600090a35050565b600060208284031215620000ca57600080fd5b81516001600160a01b0381168114620000e257600080fd5b9392505050565b61272480620000f96000396000f3fe608060405234801561001057600080fd5b50600436106101215760003560e01c80638da5cb5b116100ad578063c86ec2bf11610071578063c86ec2bf14610289578063d4ee9734146102b5578063dabf0fd3146102c8578063f18858ab146102db578063f2fde38b146102fb57600080fd5b80638da5cb5b14610213578063aef1126914610224578063b00c57c514610237578063be44912a1461024a578063c026e7ee1461025d57600080fd5b80634168741a116100f45780634168741a1461018757806357cfebbc146101ba57806360e67b43146101cd578063715018a6146101e057806380d14b4a146101e857600080fd5b8063256674a01461012657806326b3716c1461013b578063328c0bc21461016e5780633408e47014610181575b600080fd5b610139610134366004611f33565b61030e565b005b61015b610149366004611f33565b60036020526000908152604090205481565b6040519081526020015b60405180910390f35b61013961017c366004611f50565b610338565b4661015b565b6101aa610195366004611f33565b60046020526000908152604090205460ff1681565b6040519015158152602001610165565b6101396101c8366004611f91565b610456565b6101396101db366004611fbd565b610557565b610139610736565b6002546101fb906001600160a01b031681565b6040516001600160a01b039091168152602001610165565b6001546001600160a01b03166101fb565b61015b610232366004612026565b61074a565b6101396102453660046120bf565b6107bf565b6101396102583660046121c8565b610872565b61015b61026b366004611f33565b6001600160a01b031660009081526020819052604090206001015490565b61015b610297366004611f33565b6001600160a01b031660009081526020819052604090206002015490565b6101aa6102c3366004612224565b610b6e565b6101396102d636600461225d565b610bb5565b6102ee6102e9366004611f33565b610f87565b60405161016591906122d8565b610139610309366004611f33565b611097565b610316611110565b600280546001600160a01b0319166001600160a01b0392909216919091179055565b82336001600160a01b0382161461036a5760405162461bcd60e51b815260040161036190612325565b60405180910390fd5b604051632d9ad53d60e01b815230600482015284906001600160a01b03821690632d9ad53d90602401602060405180830381865afa1580156103b0573d6000803e3d6000fd5b505050506040513d601f19601f820116820180604052508101906103d4919061234f565b6103f05760405162461bcd60e51b815260040161036190612371565b6103fa858561116a565b61040485846113c4565b604080516001600160a01b038088168252861660208201529081018490527f9faaa1eaa48910ff30e6076ae41bf8094c777a3470d6d64cc8adf5853f5d33539060600160405180910390a15050505050565b81336001600160a01b0382161461047f5760405162461bcd60e51b815260040161036190612325565b604051632d9ad53d60e01b815230600482015283906001600160a01b03821690632d9ad53d90602401602060405180830381865afa1580156104c5573d6000803e3d6000fd5b505050506040513d601f19601f820116820180604052508101906104e9919061234f565b6105055760405162461bcd60e51b815260040161036190612371565b61050f84846113c4565b604080516001600160a01b0386168152602081018590527f253319f6e631a0a64ed9302337190b1bb0667f27eb5e12ce8d58d01defd37478910160405180910390a150505050565b83336001600160a01b038216146105805760405162461bcd60e51b815260040161036190612325565b604051632d9ad53d60e01b815230600482015285906001600160a01b03821690632d9ad53d90602401602060405180830381865afa1580156105c6573d6000803e3d6000fd5b505050506040513d601f19601f820116820180604052508101906105ea919061234f565b6106065760405162461bcd60e51b815260040161036190612371565b6106108685610b6e565b61065c5760405162461bcd60e51b815260206004820152601d60248201527f534d3a206d757374206265206578697374696e6720677561726469616e0000006044820152606401610361565b6001600160a01b0386166000908152602081905260408120600101549050836106866001836123be565b10156106cc5760405162461bcd60e51b815260206004820152601560248201527414d34e881a5b9d985b1a59081d1a1c995cda1bdb19605a1b6044820152606401610361565b6106d7878787611509565b6106e187856113c4565b604080516001600160a01b03808a168252871660208201529081018590527f0dd58c3290864df113a6bd86d87161d7edd1de9975b76ca19c091671f3dead6b906060015b60405180910390a150505050505050565b61073e611110565b610748600061164c565b565b600084848461075c6020860186611f33565b602086013546604080516001600160a01b0397881660208201529587169086015260608501939093529316608083015260a082019290925260c081019190915260e001604051602081830303815290604052805190602001209050949350505050565b6107c98483610b6e565b6108155760405162461bcd60e51b815260206004820152601960248201527f534d3a207369676e6572206e6f74206120677561726469616e000000000000006044820152606401610361565b61082082848361169e565b61086c5760405162461bcd60e51b815260206004820152601e60248201527f534d3a20696e76616c696420677561726469616e207369676e617475726500006044820152606401610361565b50505050565b83336001600160a01b0382161461089b5760405162461bcd60e51b815260040161036190612325565b604051632d9ad53d60e01b815230600482015285906001600160a01b03821690632d9ad53d90602401602060405180830381865afa1580156108e1573d6000803e3d6000fd5b505050506040513d601f19601f82011682018060405250810190610905919061234f565b6109215760405162461bcd60e51b815260040161036190612371565b600085116109655760405162461bcd60e51b815260206004820152601160248201527014d34e88189859081d1a1c995cda1bdb19607a1b6044820152606401610361565b848310156109b55760405162461bcd60e51b815260206004820152601760248201527f534d3a2062616420677561726469616e2077616c6c65740000000000000000006044820152606401610361565b6001600160a01b03861660009081526004602052604090205460ff1615610a1e5760405162461bcd60e51b815260206004820152601960248201527f534d3a207265636f7665727920616c726561647920696e6974000000000000006044820152606401610361565b6000805b84811015610abc57816001600160a01b0316868683818110610a4657610a466123d5565b9050602002016020810190610a5b9190611f33565b6001600160a01b031611610a815760405162461bcd60e51b8152600401610361906123eb565b858582818110610a9357610a936123d5565b9050602002016020810190610aa89190611f33565b915080610ab481612431565b915050610a22565b5060005b84811015610b0a57610af888878784818110610ade57610ade6123d5565b9050602002016020810190610af39190611f33565b61116a565b80610b0281612431565b915050610ac0565b50610b1587876113c4565b6001600160a01b03871660009081526004602052604090819020805460ff19166001179055517f29f1c4b32c8481a82e5b96569e5c5e34a79852bd8b346cf981b5bad4111fa9059061072590899089908990899061244c565b60006001600160a01b038216600114801590610bae57506001600160a01b0383811660009081526020818152604080832086851684529091529020541615155b9392505050565b604051632d9ad53d60e01b815230600482015285906001600160a01b03821690632d9ad53d90602401602060405180830381865afa158015610bfb573d6000803e3d6000fd5b505050506040513d601f19601f82011682018060405250810190610c1f919061234f565b610c3b5760405162461bcd60e51b815260040161036190612371565b610c4586836117e0565b610c4f8686610b6e565b15610c9c5760405162461bcd60e51b815260206004820181905260248201527f534d3a206e6577206f776e65722063616e6e6f7420626520677561726469616e6044820152606401610361565b6001600160a01b038616600090815260036020526040812054610cc390889088908661074a565b90506000610d1e826040517f19457468657265756d205369676e6564204d6573736167653a0a3332000000006020820152603c8101829052600090605c01604051602081830303815290604052805190602001209050919050565b90506000610d44896001600160a01b031660009081526020819052604090206002015490565b905060008111610d8c5760405162461bcd60e51b8152602060048201526013602482015272534d3a20656d70747920677561726469616e7360681b6044820152606401610361565b80861015610de75760405162461bcd60e51b815260206004820152602260248201527f534d3a207369676e617475726573206c657373207468616e207468726573686f6044820152611b1960f21b6064820152608401610361565b6000805b87811015610ed35736898983818110610e0657610e066123d5565b9050602002810190610e1891906124af565b90506001600160a01b038316610e316020830183611f33565b6001600160a01b031611610e575760405162461bcd60e51b8152600401610361906123eb565b610eb08c86610e696020850185611f33565b610e7660208601866124cf565b8080601f0160208091040260200160405190810160405280939291908181526020018383808284376000920191909152506107bf92505050565b610ebd6020820182611f33565b9250508080610ecb90612431565b915050610deb565b50610ede8a8a61192b565b610ee88a87611c96565b6001600160a01b038a166000908152600360205260408120805491610f0c83612431565b909155507f15f249889c1856027d48299e9f582b24bff9529eb475290690f00f11cc30a67190508a8a610f4260208a018a611f33565b604080516001600160a01b039485168152928416602084810191909152939091169082015290880135606082015260800160405180910390a150505050505050505050565b6001600160a01b0381166000908152602081905260409020600181015460609190610fc2575050604080516000815260208101909152919050565b6000816001015467ffffffffffffffff811115610fe157610fe1612078565b60405190808252806020026020018201604052801561100a578160200160208202803683370190505b506001600090815260208490526040812054919250906001600160a01b03165b6001600160a01b03811660011461108d578083838151811061104e5761104e6123d5565b6001600160a01b03928316602091820292909201810191909152918116600090815291859052604090912054168161108581612431565b92505061102a565b5090949350505050565b61109f611110565b6001600160a01b0381166111045760405162461bcd60e51b815260206004820152602660248201527f4f776e61626c653a206e6577206f776e657220697320746865207a65726f206160448201526564647265737360d01b6064820152608401610361565b61110d8161164c565b50565b6001546001600160a01b031633146107485760405162461bcd60e51b815260206004820181905260248201527f4f776e61626c653a2063616c6c6572206973206e6f7420746865206f776e65726044820152606401610361565b6001600160a01b0381161580159061118c57506001600160a01b038116600114155b80156111aa5750816001600160a01b0316816001600160a01b031614155b6111ed5760405162461bcd60e51b815260206004820152601460248201527323a99d1034b73b30b634b21033bab0b93234b0b760611b6044820152606401610361565b6040516317aa5fb760e11b81526001600160a01b038281166004830152831690632f54bf6e90602401602060405180830381865afa158015611233573d6000803e3d6000fd5b505050506040513d601f19601f82011682018060405250810190611257919061234f565b156112a45760405162461bcd60e51b815260206004820152601f60248201527f47533a20677561726469616e2063616e6e6f7420626520616e206f776e6572006044820152606401610361565b6001600160a01b0380831660009081526020818152604080832085851684529182905290912054909116156113145760405162461bcd60e51b815260206004820152601660248201527523a99d10323ab83634b1b0ba329033bab0b93234b0b760511b6044820152606401610361565b600181015461135f57600160008181526020839052604080822080546001600160a01b0387166001600160a01b031991821681179092559083529120805490911690911790556113a8565b600160008181526020839052604080822080546001600160a01b038781168086529385208054919092166001600160a01b03199182161790915593909252815490921690911790555b6001810180549060006113ba83612431565b9190505550505050565b6001600160a01b038216600090815260208190526040902060018101548211156114565760405162461bcd60e51b815260206004820152603760248201527f47533a207468726573686f6c64206d757374206265206c6f776572206f72206560448201527f7175616c20746f20677561726469616e7320636f756e740000000000000000006064820152608401610361565b60018101546114b25781156114ad5760405162461bcd60e51b815260206004820152601760248201527f47533a207468726573686f6c64206d75737420626520300000000000000000006044820152606401610361565b611502565b600082116115025760405162461bcd60e51b815260206004820152601960248201527f47533a207468726573686f6c642063616e6e6f742062652030000000000000006044820152606401610361565b6002015550565b6001600160a01b0380841660009081526020819052604090209082161580159061153d57506001600160a01b038216600114155b6115805760405162461bcd60e51b815260206004820152601460248201527323a99d1034b73b30b634b21033bab0b93234b0b760611b6044820152606401610361565b6001600160a01b038381166000908152602083905260409020548116908316146115ec5760405162461bcd60e51b815260206004820152601d60248201527f47533a20696e76616c69642070726576696f757320677561726469616e0000006044820152606401610361565b6001600160a01b03828116600081815260208490526040808220805488861684529183208054929095166001600160a01b03199283161790945591815282549091169091556001820180549161164183612516565b919050555050505050565b600180546001600160a01b038381166001600160a01b0319831681179093556040519116919082907f8be0079c531659141344cd1fd0a4f28419497f9722a3daafe3b4186f6b6457e090600090a35050565b60008060006116ad8585611e14565b909250905060008160048111156116c6576116c661252d565b1480156116e45750856001600160a01b0316826001600160a01b0316145b156116f457600192505050610bae565b600080876001600160a01b0316631626ba7e60e01b888860405160240161171c92919061259b565b60408051601f198184030181529181526020820180516001600160e01b03166001600160e01b031990941693909317909252905161175a91906125bc565b600060405180830381855afa9150503d8060008114611795576040519150601f19603f3d011682016040523d82523d6000602084013e61179a565b606091505b50915091508180156117ad575080516020145b80156117d457508051630b135d3f60e11b906117d290830160209081019084016125ce565b145b98975050505050505050565b60006117ef6020830183611f33565b6001600160a01b03161415611860578060200135826001600160a01b031631101561185c5760405162461bcd60e51b815260206004820152601a60248201527f534d3a20696e73756666696369656e742067617320746f6b656e0000000000006044820152606401610361565b5050565b602081018035906118719083611f33565b6040516370a0823160e01b81526001600160a01b03858116600483015291909116906370a0823190602401602060405180830381865afa1580156118b9573d6000803e3d6000fd5b505050506040513d601f19601f820116820180604052508101906118dd91906125ce565b101561185c5760405162461bcd60e51b815260206004820152601a60248201527f534d3a20696e73756666696369656e742067617320746f6b656e0000000000006044820152606401610361565b60008290506000816001600160a01b031663a0e67e2b6040518163ffffffff1660e01b8152600401600060405180830381865afa158015611970573d6000803e3d6000fd5b505050506040513d6000823e601f3d908101601f1916820160405261199891908101906125e7565b9050600080600183516119ab91906123be565b90505b8015611b1b576001600160a01b03841663468721a7876000866119d26001876123be565b815181106119e2576119e26123d5565b60200260200101518786815181106119fc576119fc6123d5565b60209081029190910101516040516001600160a01b039283166024820152911660448201526001606482015260840160408051601f198184030181529181526020820180516001600160e01b031663f8dc5dd960e01b179052516001600160e01b031960e086901b168152611a79939291906000906004016126af565b6020604051808303816000875af1158015611a98573d6000803e3d6000fd5b505050506040513d601f19601f82011682018060405250810190611abc919061234f565b915081611b0b5760405162461bcd60e51b815260206004820152601860248201527f534d3a206f776e65722072656d6f76616c206661696c656400000000000000006044820152606401610361565b611b1481612516565b90506119ae565b5081600081518110611b2f57611b2f6123d5565b60200260200101516001600160a01b0316846001600160a01b03161415611b57575050505050565b826001600160a01b031663468721a7866000600186600081518110611b7e57611b7e6123d5565b60209081029190910101516040516001600160a01b0392831660248201529082166044820152908916606482015260840160408051601f198184030181529181526020820180516001600160e01b031663e318b52b60e01b179052516001600160e01b031960e086901b168152611bfd939291906000906004016126af565b6020604051808303816000875af1158015611c1c573d6000803e3d6000fd5b505050506040513d601f19601f82011682018060405250810190611c40919061234f565b905080611c8f5760405162461bcd60e51b815260206004820152601c60248201527f534d3a206f776e6572207265706c6163656d656e74206661696c6564000000006044820152606401610361565b5050505050565b60408051602080820190925260008082528492909182918290611cbb90870187611f33565b6001600160a01b03161415611ce4576002546001600160a01b0316925060208501359150611d44565b611cf16020860186611f33565b6002546040516001600160a01b0390911660248201526020870135604482015290935060640160408051601f198184030181529190526020810180516001600160e01b0316636dbbda0d60e01b17905290505b60405163468721a760e01b81526000906001600160a01b0386169063468721a790611d799087908790879087906004016126af565b6020604051808303816000875af1158015611d98573d6000803e3d6000fd5b505050506040513d601f19601f82011682018060405250810190611dbc919061234f565b905080611e0b5760405162461bcd60e51b815260206004820152601d60248201527f534d3a207472616e736665722067617320746f6b656e206661696c65640000006044820152606401610361565b50505050505050565b600080825160411415611e4b5760208301516040840151606085015160001a611e3f87828585611e5a565b94509450505050611e53565b506000905060025b9250929050565b6000807f7fffffffffffffffffffffffffffffff5d576e7357a4501ddfe92f46681b20a0831115611e915750600090506003611f15565b6040805160008082526020820180845289905260ff881692820192909252606081018690526080810185905260019060a0016020604051602081039080840390855afa158015611ee5573d6000803e3d6000fd5b5050604051601f1901519150506001600160a01b038116611f0e57600060019250925050611f15565b9150600090505b94509492505050565b6001600160a01b038116811461110d57600080fd5b600060208284031215611f4557600080fd5b8135610bae81611f1e565b600080600060608486031215611f6557600080fd5b8335611f7081611f1e565b92506020840135611f8081611f1e565b929592945050506040919091013590565b60008060408385031215611fa457600080fd5b8235611faf81611f1e565b946020939093013593505050565b60008060008060808587031215611fd357600080fd5b8435611fde81611f1e565b93506020850135611fee81611f1e565b92506040850135611ffe81611f1e565b9396929550929360600135925050565b60006040828403121561202057600080fd5b50919050565b60008060008060a0858703121561203c57600080fd5b843561204781611f1e565b9350602085013561205781611f1e565b92506040850135915061206d866060870161200e565b905092959194509250565b634e487b7160e01b600052604160045260246000fd5b604051601f8201601f1916810167ffffffffffffffff811182821017156120b7576120b7612078565b604052919050565b600080600080608085870312156120d557600080fd5b84356120e081611f1e565b9350602085810135935060408601356120f881611f1e565b9250606086013567ffffffffffffffff8082111561211557600080fd5b818801915088601f83011261212957600080fd5b81358181111561213b5761213b612078565b61214d601f8201601f1916850161208e565b9150808252898482850101111561216357600080fd5b808484018584013760008482840101525080935050505092959194509250565b60008083601f84011261219557600080fd5b50813567ffffffffffffffff8111156121ad57600080fd5b6020830191508360208260051b8501011115611e5357600080fd5b600080600080606085870312156121de57600080fd5b84356121e981611f1e565b935060208501359250604085013567ffffffffffffffff81111561220c57600080fd5b61221887828801612183565b95989497509550505050565b6000806040838503121561223757600080fd5b823561224281611f1e565b9150602083013561225281611f1e565b809150509250929050565b600080600080600060a0868803121561227557600080fd5b853561228081611f1e565b9450602086013561229081611f1e565b9350604086013567ffffffffffffffff8111156122ac57600080fd5b6122b888828901612183565b90945092506122cc9050876060880161200e565b90509295509295909350565b6020808252825182820181905260009190848201906040850190845b818110156123195783516001600160a01b0316835292840192918401916001016122f4565b50909695505050505050565b60208082526010908201526f14d34e881d5b985d5d1a1bdc9a5e995960821b604082015260600190565b60006020828403121561236157600080fd5b81518015158114610bae57600080fd5b6020808252601e908201527f534d3a2074686973206d6f64756c65206973206e6f7420656e61626c65640000604082015260600190565b634e487b7160e01b600052601160045260246000fd5b6000828210156123d0576123d06123a8565b500390565b634e487b7160e01b600052603260045260246000fd5b60208082526026908201527f534d3a206475706c6963617465207369676e6572732f696e76616c6964206f72604082015265646572696e6760d01b606082015260800190565b6000600019821415612445576124456123a8565b5060010190565b6001600160a01b03858116825260208083018690526060604084018190528301849052600091859160808501845b878110156124a157843561248d81611f1e565b84168252938201939082019060010161247a565b509998505050505050505050565b60008235603e198336030181126124c557600080fd5b9190910192915050565b6000808335601e198436030181126124e657600080fd5b83018035915067ffffffffffffffff82111561250157600080fd5b602001915036819003821315611e5357600080fd5b600081612525576125256123a8565b506000190190565b634e487b7160e01b600052602160045260246000fd5b60005b8381101561255e578181015183820152602001612546565b8381111561086c5750506000910152565b60008151808452612587816020860160208601612543565b601f01601f19169290920160200192915050565b8281526040602082015260006125b4604083018461256f565b949350505050565b600082516124c5818460208701612543565b6000602082840312156125e057600080fd5b5051919050565b600060208083850312156125fa57600080fd5b825167ffffffffffffffff8082111561261257600080fd5b818501915085601f83011261262657600080fd5b81518181111561263857612638612078565b8060051b915061264984830161208e565b818152918301840191848101908884111561266357600080fd5b938501935b838510156117d4578451925061267d83611f1e565b8282529385019390850190612668565b600281106126ab57634e487b7160e01b600052602160045260246000fd5b9052565b60018060a01b03851681528360208201526080604082015260006126d6608083018561256f565b90506126e5606083018461268d565b9594505050505056fea264697066735822122032a8bc2b70163c6514ad7348fb3e74a6c6b65caf597c4cc7a657dfb28401cdfe64736f6c634300080c0033",
  "linkReferences": {},
  "deployedLinkReferences": {}
}