{
  "_format": "hh-sol-artifact-1",
  "contractName": "SenderCreator",
  "sourceName": "contracts/core/SenderCreator.sol",
  "abi": [
    {
      "inputs": [
        {
          "internalType": "bytes",
          "name": "initCode",
          "type": "bytes"
        },
        {
          "internalType": "uint256",
          "name": "salt",
          "type": "uint256"
        }
      ],
      "name": "deploy",
      "outputs": [
        {
          "internalType": "address",
          "name": "sender",
          "type": "address"
        }
      ],
      "stateMutability": "nonpayable",
      "type": "function"
    },
    {
      "inputs": [
        {
          "internalType": "bytes",
          "name": "initCode",
          "type": "bytes"
        },
        {
          "internalType": "uint256",
          "name": "salt",
          "type": "uint256"
        }
      ],
      "name": "getSenderAddress",
      "outputs": [
        {
          "internalType": "address",
          "name": "",
          "type": "address"
        }
      ],
      "stateMutability": "view",
      "type": "function"
    }
  ],
  "bytecode": "0x608060405234801561001057600080fd5b50610395806100206000396000f3fe608060405234801561001057600080fd5b50600436106100365760003560e01c80639c4ae2d01461003b578063c31e43541461006a575b600080fd5b61004e61004936600461021c565b61007d565b6040516001600160a01b03909116815260200160405180910390f35b61004e6100783660046102aa565b6100ce565b60006100c460008360001b86868080601f0160208091040260200160405190810160405280939291908181526020018383808284376000920191909152506100e492505050565b90505b9392505050565b60006100c78260001b84805190602001206101ea565b60008347101561013b5760405162461bcd60e51b815260206004820152601d60248201527f437265617465323a20696e73756666696369656e742062616c616e636500000060448201526064015b60405180910390fd5b81516101895760405162461bcd60e51b815260206004820181905260248201527f437265617465323a2062797465636f6465206c656e677468206973207a65726f6044820152606401610132565b8282516020840186f590506001600160a01b0381166100c75760405162461bcd60e51b815260206004820152601960248201527f437265617465323a204661696c6564206f6e206465706c6f79000000000000006044820152606401610132565b60006100c78383306000604051836040820152846020820152828152600b8101905060ff815360559020949350505050565b60008060006040848603121561023157600080fd5b833567ffffffffffffffff8082111561024957600080fd5b818601915086601f83011261025d57600080fd5b81358181111561026c57600080fd5b87602082850101111561027e57600080fd5b6020928301989097509590910135949350505050565b634e487b7160e01b600052604160045260246000fd5b600080604083850312156102bd57600080fd5b823567ffffffffffffffff808211156102d557600080fd5b818501915085601f8301126102e957600080fd5b8135818111156102fb576102fb610294565b604051601f8201601f19908116603f0116810190838211818310171561032357610323610294565b8160405282815288602084870101111561033c57600080fd5b82602086016020830137600060209382018401529896909101359650505050505056fea2646970667358221220ea2ccfbad57675f3056e5cbefbcc6fe695d165b3533a14a430de78cab20cc49a64736f6c634300080c0033",
  "linkReferences": {},
  "deployedLinkReferences": {}
}